{
  "contractName": "MangoRepo",
  "abi": [
    {
      "constant": false,
      "inputs": [
        {
          "name": "hash",
          "type": "string"
        }
      ],
      "name": "newIssue",
      "outputs": [],
      "payable": false,
      "stateMutability": "nonpayable",
      "type": "function"
    },
    {
      "constant": true,
      "inputs": [],
      "name": "snapshotCount",
      "outputs": [
        {
          "name": "",
          "type": "uint256"
        }
      ],
      "payable": false,
      "stateMutability": "view",
      "type": "function"
    },
    {
      "constant": true,
      "inputs": [],
      "name": "getName",
      "outputs": [
        {
          "name": "",
          "type": "string"
        }
      ],
      "payable": false,
      "stateMutability": "view",
      "type": "function"
    },
    {
      "constant": true,
      "inputs": [],
      "name": "getDescription",
      "outputs": [
        {
          "name": "",
          "type": "string"
        }
      ],
      "payable": false,
      "stateMutability": "view",
      "type": "function"
    },
    {
      "constant": true,
      "inputs": [],
      "name": "maintainerCount",
      "outputs": [
        {
          "name": "",
          "type": "uint256"
        }
      ],
      "payable": false,
      "stateMutability": "view",
      "type": "function"
    },
    {
      "constant": false,
      "inputs": [
        {
          "name": "id",
          "type": "uint256"
        }
      ],
      "name": "closePullRequest",
      "outputs": [],
      "payable": false,
      "stateMutability": "nonpayable",
      "type": "function"
    },
    {
      "constant": true,
      "inputs": [],
      "name": "obsolete",
      "outputs": [
        {
          "name": "",
          "type": "bool"
        }
      ],
      "payable": false,
      "stateMutability": "view",
      "type": "function"
    },
    {
      "constant": false,
      "inputs": [
        {
          "name": "ref",
          "type": "string"
        }
      ],
      "name": "deleteRef",
      "outputs": [],
      "payable": false,
      "stateMutability": "nonpayable",
      "type": "function"
    },
    {
      "constant": false,
      "inputs": [
        {
          "name": "addr",
          "type": "address"
        }
      ],
      "name": "addMaintainer",
      "outputs": [],
      "payable": false,
      "stateMutability": "nonpayable",
      "type": "function"
    },
    {
      "constant": true,
      "inputs": [
        {
          "name": "index",
          "type": "uint256"
        }
      ],
      "name": "getSnapshot",
      "outputs": [
        {
          "name": "",
          "type": "string"
        }
      ],
      "payable": false,
      "stateMutability": "view",
      "type": "function"
    },
    {
      "constant": true,
      "inputs": [],
      "name": "refCount",
      "outputs": [
        {
          "name": "",
          "type": "uint256"
        }
      ],
      "payable": false,
      "stateMutability": "view",
      "type": "function"
    },
    {
      "constant": false,
      "inputs": [
        {
          "name": "ref",
          "type": "string"
        },
        {
          "name": "hash",
          "type": "string"
        }
      ],
      "name": "setRef",
      "outputs": [],
      "payable": false,
      "stateMutability": "nonpayable",
      "type": "function"
    },
    {
      "constant": true,
      "inputs": [
        {
          "name": "index",
          "type": "uint256"
        }
      ],
      "name": "refName",
      "outputs": [
        {
          "name": "ref",
          "type": "string"
        }
      ],
      "payable": false,
      "stateMutability": "view",
      "type": "function"
    },
    {
      "constant": true,
      "inputs": [
        {
          "name": "id",
          "type": "uint256"
        }
      ],
      "name": "getIssue",
      "outputs": [
        {
          "name": "hash",
          "type": "string"
        }
      ],
      "payable": false,
      "stateMutability": "view",
      "type": "function"
    },
    {
      "constant": true,
      "inputs": [],
      "name": "issueCount",
      "outputs": [
        {
          "name": "count",
          "type": "uint256"
        }
      ],
      "payable": false,
      "stateMutability": "view",
      "type": "function"
    },
    {
      "constant": true,
      "inputs": [
        {
          "name": "idx",
          "type": "uint256"
        }
      ],
      "name": "getMaintainer",
      "outputs": [
        {
          "name": "",
          "type": "address"
        }
      ],
      "payable": false,
      "stateMutability": "view",
      "type": "function"
    },
    {
      "constant": true,
      "inputs": [
        {
          "name": "ref",
          "type": "string"
        }
      ],
      "name": "getRef",
      "outputs": [
        {
          "name": "hash",
          "type": "string"
        }
      ],
      "payable": false,
      "stateMutability": "view",
      "type": "function"
    },
    {
      "constant": false,
      "inputs": [
        {
          "name": "id",
          "type": "uint256"
        }
      ],
      "name": "deleteIssue",
      "outputs": [],
      "payable": false,
      "stateMutability": "nonpayable",
      "type": "function"
    },
    {
      "constant": false,
      "inputs": [
        {
          "name": "issueId",
          "type": "uint256"
        },
        {
          "name": "fork",
          "type": "address"
        }
      ],
      "name": "openPullRequest",
      "outputs": [],
      "payable": false,
      "stateMutability": "nonpayable",
      "type": "function"
    },
    {
      "constant": false,
      "inputs": [],
      "name": "setObsolete",
      "outputs": [],
      "payable": false,
      "stateMutability": "nonpayable",
      "type": "function"
    },
    {
      "constant": true,
      "inputs": [
        {
          "name": "id",
          "type": "uint256"
        }
      ],
      "name": "getPullRequest",
      "outputs": [
        {
          "name": "fork",
          "type": "address"
        }
      ],
      "payable": false,
      "stateMutability": "view",
      "type": "function"
    },
    {
      "constant": false,
      "inputs": [
        {
          "name": "addr",
          "type": "address"
        }
      ],
      "name": "removeMaintainer",
      "outputs": [],
      "payable": false,
      "stateMutability": "nonpayable",
      "type": "function"
    },
    {
      "constant": false,
      "inputs": [
        {
          "name": "id",
          "type": "uint256"
        },
        {
          "name": "hash",
          "type": "string"
        }
      ],
      "name": "setIssue",
      "outputs": [],
      "payable": false,
      "stateMutability": "nonpayable",
      "type": "function"
    },
    {
      "constant": true,
      "inputs": [],
      "name": "pullRequestCount",
      "outputs": [
        {
          "name": "count",
          "type": "uint256"
        }
      ],
      "payable": false,
      "stateMutability": "view",
      "type": "function"
    },
    {
      "constant": false,
      "inputs": [
        {
          "name": "hash",
          "type": "string"
        }
      ],
      "name": "addSnapshot",
      "outputs": [],
      "payable": false,
      "stateMutability": "nonpayable",
      "type": "function"
    },
    {
      "inputs": [
        {
          "name": "_name",
          "type": "string"
        },
        {
          "name": "_description",
          "type": "string"
        }
      ],
      "payable": false,
      "stateMutability": "nonpayable",
      "type": "constructor"
    }
  ],
  "bytecode": "0x606060405234156200001057600080fd5b604051620028c7380380620028c78339810160405280805182019190602001805182019190505081600190805190602001906200004f92919062000148565b5080600290805190602001906200006892919062000148565b506001600460003373ffffffffffffffffffffffffffffffffffffffff1673ffffffffffffffffffffffffffffffffffffffff16815260200190815260200160002060006101000a81548160ff02191690831515021790555060038054806001018281620000d79190620001cf565b9160005260206000209001600033909190916101000a81548173ffffffffffffffffffffffffffffffffffffffff021916908373ffffffffffffffffffffffffffffffffffffffff1602179055505060008060006101000a81548160ff021916908315150217905550505062000226565b828054600181600116156101000203166002900490600052602060002090601f016020900481019282601f106200018b57805160ff1916838001178555620001bc565b82800160010185558215620001bc579182015b82811115620001bb5782518255916020019190600101906200019e565b5b509050620001cb9190620001fe565b5090565b815481835581811511620001f957818360005260206000209182019101620001f89190620001fe565b5b505050565b6200022391905b808211156200021f57600081600090555060010162000205565b5090565b90565b61269180620002366000396000f300606060405260043610610149576000357c0100000000000000000000000000000000000000000000000000000000900463ffffffff168063018493e11461014e578063098ab6a1146101ab57806317d7de7c146101d45780631a0925411461026257806331c31820146102f05780634941b36314610319578063494320441461033c5780635ae5df8f146103695780636b453c1f146103c657806376f10ad0146103ff57806380d9eaa61461049b5780638bb0faee146104c45780638c79a24d14610564578063976b31131461060057806398cf147a1461069c5780639cf6dfa0146106c55780639d170c5d14610728578063aa1e9e43146107fe578063acd6c61114610821578063b2761b8e14610863578063cdcbc22f14610878578063d8baf7cf146108db578063ecda30ea14610914578063fd1944001461097a578063fee6d28c146109a3575b600080fd5b341561015957600080fd5b6101a9600480803590602001908201803590602001908080601f01602080910402602001604051908101604052809392919081815260200183838082843782019150505050505091905050610a00565b005b34156101b657600080fd5b6101be610ad7565b6040518082815260200191505060405180910390f35b34156101df57600080fd5b6101e7610ae4565b6040518080602001828103825283818151815260200191508051906020019080838360005b8381101561022757808201518184015260208101905061020c565b50505050905090810190601f1680156102545780820380516001836020036101000a031916815260200191505b509250505060405180910390f35b341561026d57600080fd5b610275610b8c565b6040518080602001828103825283818151815260200191508051906020019080838360005b838110156102b557808201518184015260208101905061029a565b50505050905090810190601f1680156102e25780820380516001836020036101000a031916815260200191505b509250505060405180910390f35b34156102fb57600080fd5b610303610c34565b6040518082815260200191505060405180910390f35b341561032457600080fd5b61033a6004808035906020019091905050610c41565b005b341561034757600080fd5b61034f610e6a565b604051808215151515815260200191505060405180910390f35b341561037457600080fd5b6103c4600480803590602001908201803590602001908080601f01602080910402602001604051908101604052809392919081815260200183838082843782019150505050505091905050610e7c565b005b34156103d157600080fd5b6103fd600480803573ffffffffffffffffffffffffffffffffffffffff16906020019091905050610fde565b005b341561040a57600080fd5b610420600480803590602001909190505061114b565b6040518080602001828103825283818151815260200191508051906020019080838360005b83811015610460578082015181840152602081019050610445565b50505050905090810190601f16801561048d5780820380516001836020036101000a031916815260200191505b509250505060405180910390f35b34156104a657600080fd5b6104ae61120d565b6040518082815260200191505060405180910390f35b34156104cf57600080fd5b610562600480803590602001908201803590602001908080601f0160208091040260200160405190810160405280939291908181526020018383808284378201915050505050509190803590602001908201803590602001908080601f0160208091040260200160405190810160405280939291908181526020018383808284378201915050505050509190505061121a565b005b341561056f57600080fd5b6105856004808035906020019091905050611363565b6040518080602001828103825283818151815260200191508051906020019080838360005b838110156105c55780820151818401526020810190506105aa565b50505050905090810190601f1680156105f25780820380516001836020036101000a031916815260200191505b509250505060405180910390f35b341561060b57600080fd5b6106216004808035906020019091905050611425565b6040518080602001828103825283818151815260200191508051906020019080838360005b83811015610661578082015181840152602081019050610646565b50505050905090810190601f16801561068e5780820380516001836020036101000a031916815260200191505b509250505060405180910390f35b34156106a757600080fd5b6106af611561565b6040518082815260200191505060405180910390f35b34156106d057600080fd5b6106e6600480803590602001909190505061156e565b604051808273ffffffffffffffffffffffffffffffffffffffff1673ffffffffffffffffffffffffffffffffffffffff16815260200191505060405180910390f35b341561073357600080fd5b610783600480803590602001908201803590602001908080601f016020809104026020016040519081016040528093929190818152602001838380828437820191505050505050919050506115b2565b6040518080602001828103825283818151815260200191508051906020019080838360005b838110156107c35780820151818401526020810190506107a8565b50505050905090810190601f1680156107f05780820380516001836020036101000a031916815260200191505b509250505060405180910390f35b341561080957600080fd5b61081f60048080359060200190919050506116c5565b005b341561082c57600080fd5b610861600480803590602001909190803573ffffffffffffffffffffffffffffffffffffffff16906020019091905050611859565b005b341561086e57600080fd5b610876611b5c565b005b341561088357600080fd5b6108996004808035906020019091905050611bd0565b604051808273ffffffffffffffffffffffffffffffffffffffff1673ffffffffffffffffffffffffffffffffffffffff16815260200191505060405180910390f35b34156108e657600080fd5b610912600480803573ffffffffffffffffffffffffffffffffffffffff16906020019091905050611cb7565b005b341561091f57600080fd5b610978600480803590602001909190803590602001908201803590602001908080601f01602080910402602001604051908101604052809392919081815260200183838082843782019150505050505091905050611e54565b005b341561098557600080fd5b61098d611f7d565b6040518082815260200191505060405180910390f35b34156109ae57600080fd5b6109fe600480803590602001908201803590602001908080601f01602080910402602001604051908101604052809392919081815260200183838082843782019150505050505091905050611f8a565b005b60088054806001018281610a1491906122e3565b9160005260206000209060030201600060606040519081016040528060016008805490500381526020013373ffffffffffffffffffffffffffffffffffffffff1681526020018581525090919091506000820151816000015560208201518160010160006101000a81548173ffffffffffffffffffffffffffffffffffffffff021916908373ffffffffffffffffffffffffffffffffffffffff1602179055506040820151816002019080519060200190610ad0929190612315565b5050505050565b6000600780549050905090565b610aec612395565b60018054600181600116156101000203166002900480601f016020809104026020016040519081016040528092919081815260200182805460018160011615610100020316600290048015610b825780601f10610b5757610100808354040283529160200191610b82565b820191906000526020600020905b815481529060010190602001808311610b6557829003601f168201915b5050505050905090565b610b94612395565b60028054600181600116156101000203166002900480601f016020809104026020016040519081016040528092919081815260200182805460018160011615610100020316600290048015610c2a5780601f10610bff57610100808354040283529160200191610c2a565b820191906000526020600020905b815481529060010190602001808311610c0d57829003601f168201915b5050505050905090565b6000600380549050905090565b803373ffffffffffffffffffffffffffffffffffffffff16600982815481101515610c6857fe5b906000526020600020906006020160040160009054906101000a900473ffffffffffffffffffffffffffffffffffffffff1673ffffffffffffffffffffffffffffffffffffffff1614158015610d085750600460003373ffffffffffffffffffffffffffffffffffffffff1673ffffffffffffffffffffffffffffffffffffffff16815260200190815260200160002060009054906101000a900460ff16155b15610d1257600080fd5b60098054905082101580610d265750600082105b15610d3057600080fd5b600073ffffffffffffffffffffffffffffffffffffffff16600983815481101515610d5757fe5b906000526020600020906006020160050160009054906101000a900473ffffffffffffffffffffffffffffffffffffffff1673ffffffffffffffffffffffffffffffffffffffff161415610daa57600080fd5b600982815481101515610db957fe5b9060005260206000209060060201600080820160009055600182016000808201600090556001820160006101000a81549073ffffffffffffffffffffffffffffffffffffffff0219169055600282016000610e1491906123a9565b50506004820160006101000a81549073ffffffffffffffffffffffffffffffffffffffff02191690556005820160006101000a81549073ffffffffffffffffffffffffffffffffffffffff021916905550505050565b6000809054906101000a900460ff1681565b6000600460003373ffffffffffffffffffffffffffffffffffffffff1673ffffffffffffffffffffffffffffffffffffffff16815260200190815260200160002060009054906101000a900460ff161515610ed657600080fd5b610edf82612021565b90507fffffffffffffffffffffffffffffffffffffffffffffffffffffffffffffffff81141515610f4a576020604051908101604052806000815250600582815481101515610f2a57fe5b90600052602060002090019080519060200190610f489291906123f1565b505b60206040519081016040528060008152506006836040518082805190602001908083835b602083101515610f935780518252602082019150602081019050602083039250610f6e565b6001836020036101000a03801982511681845116808217855250505050505090500191505090815260200160405180910390209080519060200190610fd99291906123f1565b505050565b600460003373ffffffffffffffffffffffffffffffffffffffff1673ffffffffffffffffffffffffffffffffffffffff16815260200190815260200160002060009054906101000a900460ff16151561103657600080fd5b600460008273ffffffffffffffffffffffffffffffffffffffff1673ffffffffffffffffffffffffffffffffffffffff16815260200190815260200160002060009054906101000a900460ff161561108d57600080fd5b6001600460008373ffffffffffffffffffffffffffffffffffffffff1673ffffffffffffffffffffffffffffffffffffffff16815260200190815260200160002060006101000a81548160ff021916908315150217905550600380548060010182816110f99190612471565b9160005260206000209001600083909190916101000a81548173ffffffffffffffffffffffffffffffffffffffff021916908373ffffffffffffffffffffffffffffffffffffffff1602179055505050565b611153612395565b60078281548110151561116257fe5b90600052602060002090018054600181600116156101000203166002900480601f0160208091040260200160405190810160405280929190818152602001828054600181600116156101000203166002900480156112015780601f106111d657610100808354040283529160200191611201565b820191906000526020600020905b8154815290600101906020018083116111e457829003601f168201915b50505050509050919050565b6000600580549050905090565b600460003373ffffffffffffffffffffffffffffffffffffffff1673ffffffffffffffffffffffffffffffffffffffff16815260200190815260200160002060009054906101000a900460ff16151561127257600080fd5b7fffffffffffffffffffffffffffffffffffffffffffffffffffffffffffffffff61129c83612021565b14156112df57600580548060010182816112b6919061249d565b9160005260206000209001600084909190915090805190602001906112dc9291906123f1565b50505b806006836040518082805190602001908083835b60208310151561131857805182526020820191506020810190506020830392506112f3565b6001836020036101000a0380198251168184511680821785525050505050509050019150509081526020016040518091039020908051906020019061135e9291906123f1565b505050565b61136b612395565b60058281548110151561137a57fe5b90600052602060002090018054600181600116156101000203166002900480601f0160208091040260200160405190810160405280929190818152602001828054600181600116156101000203166002900480156114195780601f106113ee57610100808354040283529160200191611419565b820191906000526020600020905b8154815290600101906020018083116113fc57829003601f168201915b50505050509050919050565b61142d612395565b600880549050821015806114415750600082105b1561144b57600080fd5b600060088381548110151561145c57fe5b906000526020600020906003020160020180546001816001161561010002031660029004905014156114a0576020604051908101604052806000815250905061155c565b6008828154811015156114af57fe5b90600052602060002090600302016002018054600181600116156101000203166002900480601f0160208091040260200160405190810160405280929190818152602001828054600181600116156101000203166002900480156115545780601f1061152957610100808354040283529160200191611554565b820191906000526020600020905b81548152906001019060200180831161153757829003601f168201915b505050505090505b919050565b6000600880549050905090565b600060038281548110151561157f57fe5b906000526020600020900160009054906101000a900473ffffffffffffffffffffffffffffffffffffffff169050919050565b6115ba612395565b6006826040518082805190602001908083835b6020831015156115f257805182526020820191506020810190506020830392506115cd565b6001836020036101000a03801982511681845116808217855250505050505090500191505090815260200160405180910390208054600181600116156101000203166002900480601f0160208091040260200160405190810160405280929190818152602001828054600181600116156101000203166002900480156116b95780601f1061168e576101008083540402835291602001916116b9565b820191906000526020600020905b81548152906001019060200180831161169c57829003601f168201915b50505050509050919050565b803373ffffffffffffffffffffffffffffffffffffffff166008828154811015156116ec57fe5b906000526020600020906003020160010160009054906101000a900473ffffffffffffffffffffffffffffffffffffffff1673ffffffffffffffffffffffffffffffffffffffff161415801561178c5750600460003373ffffffffffffffffffffffffffffffffffffffff1673ffffffffffffffffffffffffffffffffffffffff16815260200190815260200160002060009054906101000a900460ff16155b1561179657600080fd5b600880549050821015806117aa5750600082105b156117b457600080fd5b60006008838154811015156117c557fe5b906000526020600020906003020160020180546001816001161561010002031660029004905014156117f657600080fd5b60088281548110151561180557fe5b90600052602060002090600302016000808201600090556001820160006101000a81549073ffffffffffffffffffffffffffffffffffffffff021916905560028201600061185391906123a9565b50505050565b600060088381548110151561186a57fe5b9060005260206000209060030201600201805460018160011615610100020316600290049050141561189b57600080fd5b600980548060010182816118af91906124c9565b9160005260206000209060060201600060806040519081016040528060016009805490500381526020016008878154811015156118e857fe5b906000526020600020906003020160606040519081016040529081600082015481526020016001820160009054906101000a900473ffffffffffffffffffffffffffffffffffffffff1673ffffffffffffffffffffffffffffffffffffffff1673ffffffffffffffffffffffffffffffffffffffff168152602001600282018054600181600116156101000203166002900480601f0160208091040260200160405190810160405280929190818152602001828054600181600116156101000203166002900480156119fb5780601f106119d0576101008083540402835291602001916119fb565b820191906000526020600020905b8154815290600101906020018083116119de57829003601f168201915b50505050508152505081526020013373ffffffffffffffffffffffffffffffffffffffff1681526020018573ffffffffffffffffffffffffffffffffffffffff168152509091909150600082015181600001556020820151816001016000820151816000015560208201518160010160006101000a81548173ffffffffffffffffffffffffffffffffffffffff021916908373ffffffffffffffffffffffffffffffffffffffff1602179055506040820151816002019080519060200190611ac4929190612315565b50505060408201518160040160006101000a81548173ffffffffffffffffffffffffffffffffffffffff021916908373ffffffffffffffffffffffffffffffffffffffff16021790555060608201518160050160006101000a81548173ffffffffffffffffffffffffffffffffffffffff021916908373ffffffffffffffffffffffffffffffffffffffff1602179055505050505050565b600460003373ffffffffffffffffffffffffffffffffffffffff1673ffffffffffffffffffffffffffffffffffffffff16815260200190815260200160002060009054906101000a900460ff161515611bb457600080fd5b60016000806101000a81548160ff021916908315150217905550565b600060098054905082101580611be65750600082105b15611bf057600080fd5b600073ffffffffffffffffffffffffffffffffffffffff16600983815481101515611c1757fe5b906000526020600020906006020160050160009054906101000a900473ffffffffffffffffffffffffffffffffffffffff1673ffffffffffffffffffffffffffffffffffffffff161415611c6e5760009050611cb2565b600982815481101515611c7d57fe5b906000526020600020906006020160050160009054906101000a900473ffffffffffffffffffffffffffffffffffffffff1690505b919050565b6000600460003373ffffffffffffffffffffffffffffffffffffffff1673ffffffffffffffffffffffffffffffffffffffff16815260200190815260200160002060009054906101000a900460ff161515611d1157600080fd5b600460008373ffffffffffffffffffffffffffffffffffffffff1673ffffffffffffffffffffffffffffffffffffffff16815260200190815260200160002060009054906101000a900460ff161515611d6957600080fd5b6000600460008473ffffffffffffffffffffffffffffffffffffffff1673ffffffffffffffffffffffffffffffffffffffff16815260200190815260200160002060006101000a81548160ff021916908315150217905550611dca8261213f565b90507fffffffffffffffffffffffffffffffffffffffffffffffffffffffffffffffff81141515611e50576000600382815481101515611e0657fe5b906000526020600020900160006101000a81548173ffffffffffffffffffffffffffffffffffffffff021916908373ffffffffffffffffffffffffffffffffffffffff1602179055505b5050565b813373ffffffffffffffffffffffffffffffffffffffff16600882815481101515611e7b57fe5b906000526020600020906003020160010160009054906101000a900473ffffffffffffffffffffffffffffffffffffffff1673ffffffffffffffffffffffffffffffffffffffff1614158015611f1b5750600460003373ffffffffffffffffffffffffffffffffffffffff1673ffffffffffffffffffffffffffffffffffffffff16815260200190815260200160002060009054906101000a900460ff16155b15611f2557600080fd5b60088054905083101580611f395750600083105b15611f4357600080fd5b81600884815481101515611f5357fe5b90600052602060002090600302016002019080519060200190611f779291906123f1565b50505050565b6000600980549050905090565b600460003373ffffffffffffffffffffffffffffffffffffffff1673ffffffffffffffffffffffffffffffffffffffff16815260200190815260200160002060009054906101000a900460ff161515611fe257600080fd5b60078054806001018281611ff6919061249d565b91600052602060002090016000839091909150908051906020019061201c9291906123f1565b505050565b600080600090505b6005805490508160ff161015612115576120f860058260ff1681548110151561204e57fe5b90600052602060002090018054600181600116156101000203166002900480601f0160208091040260200160405190810160405280929190818152602001828054600181600116156101000203166002900480156120ed5780601f106120c2576101008083540402835291602001916120ed565b820191906000526020600020905b8154815290600101906020018083116120d057829003601f168201915b50505050508461220a565b15612108578060ff169150612139565b8080600101915050612029565b7fffffffffffffffffffffffffffffffffffffffffffffffffffffffffffffffff91505b50919050565b600080600090505b6003805490508160ff1610156121e0578273ffffffffffffffffffffffffffffffffffffffff1660038260ff1681548110151561218057fe5b906000526020600020900160009054906101000a900473ffffffffffffffffffffffffffffffffffffffff1673ffffffffffffffffffffffffffffffffffffffff1614156121d3578060ff169150612204565b8080600101915050612147565b7fffffffffffffffffffffffffffffffffffffffffffffffffffffffffffffffff91505b50919050565b6000816040518082805190602001908083835b602083101515612242578051825260208201915060208101905060208303925061221d565b6001836020036101000a038019825116818451168082178552505050505050905001915050604051809103902060001916836040518082805190602001908083835b6020831015156122a95780518252602082019150602081019050602083039250612284565b6001836020036101000a03801982511681845116808217855250505050505090500191505060405180910390206000191614905092915050565b8154818355818115116123105760030281600302836000526020600020918201910161230f91906124fb565b5b505050565b828054600181600116156101000203166002900490600052602060002090601f016020900481019282601f1061235657805160ff1916838001178555612384565b82800160010185558215612384579182015b82811115612383578251825591602001919060010190612368565b5b5090506123919190612559565b5090565b602060405190810160405280600081525090565b50805460018160011615610100020316600290046000825580601f106123cf57506123ee565b601f0160209004906000526020600020908101906123ed9190612559565b5b50565b828054600181600116156101000203166002900490600052602060002090601f016020900481019282601f1061243257805160ff1916838001178555612460565b82800160010185558215612460579182015b8281111561245f578251825591602001919060010190612444565b5b50905061246d9190612559565b5090565b815481835581811511612498578183600052602060002091820191016124979190612559565b5b505050565b8154818355818115116124c4578183600052602060002091820191016124c3919061257e565b5b505050565b8154818355818115116124f6576006028160060283600052602060002091820191016124f591906125aa565b5b505050565b61255691905b80821115612552576000808201600090556001820160006101000a81549073ffffffffffffffffffffffffffffffffffffffff021916905560028201600061254991906123a9565b50600301612501565b5090565b90565b61257b91905b8082111561257757600081600090555060010161255f565b5090565b90565b6125a791905b808211156125a3576000818161259a91906123a9565b50600101612584565b5090565b90565b61266291905b8082111561265e57600080820160009055600182016000808201600090556001820160006101000a81549073ffffffffffffffffffffffffffffffffffffffff021916905560028201600061260591906123a9565b50506004820160006101000a81549073ffffffffffffffffffffffffffffffffffffffff02191690556005820160006101000a81549073ffffffffffffffffffffffffffffffffffffffff0219169055506006016125b0565b5090565b905600a165627a7a7230582052240bcfe793bd8f52e8396a7b6c93100555544456a10ac0f3ead67e018625990029",
  "source": "/*\r\n * Mango Repository\r\n * Copyright (C) 2016 Alex Beregszaszi\r\n *\r\n * This program is free software: you can redistribute it and/or modify\r\n * it under the terms of the GNU General Public License as published by\r\n * the Free Software Foundation, version 3 of the License only.\r\n *\r\n * This program is distributed in the hope that it will be useful,\r\n * but WITHOUT ANY WARRANTY; without even the implied warranty of\r\n * MERCHANTABILITY or FITNESS FOR A PARTICULAR PURPOSE.  See the\r\n * GNU General Public License for more details.\r\n *\r\n * You should have received a copy of the GNU General Public License\r\n * along with this program.  If not, see <http://www.gnu.org/licenses/>.\r\n */\r\npragma solidity ^0.4.6;\r\n\r\ncontract MangoRepo {\r\n  bool public obsolete;\r\n\r\n  string name;\r\n  string description;\r\n\r\n  address[] maintainerAddresses;\r\n  mapping (address => bool) maintainers;\r\n\r\n  string[] refKeys;\r\n  mapping (string => string) refs;\r\n\r\n  string[] snapshots;\r\n\r\n  struct Issue {\r\n    uint id;\r\n    address creator;\r\n    string hash;\r\n  }\r\n\r\n  struct PullRequest {\r\n    uint id;\r\n    Issue issue;\r\n    address creator;\r\n    address fork;\r\n  }\r\n\r\n  Issue[] issues;\r\n  PullRequest[] pullRequests;\r\n\r\n  modifier maintainerOnly {\r\n    if (!maintainers[msg.sender]) throw;\r\n    _;\r\n  }\r\n\r\n  modifier issuePermissions(uint id) {\r\n    if (issues[id].creator != msg.sender && !maintainers[msg.sender]) throw;\r\n    _;\r\n  }\r\n\r\n  modifier pullRequestPermissions(uint id) {\r\n    if (pullRequests[id].creator != msg.sender && !maintainers[msg.sender]) throw;\r\n    _;\r\n  }\r\n\r\n  function MangoRepo(string _name, string _description) {\r\n    name = _name;\r\n    description = _description;\r\n    maintainers[msg.sender] = true;\r\n    maintainerAddresses.push(msg.sender);\r\n    obsolete = false;\r\n  }\r\n\r\n  function refCount() constant returns (uint) {\r\n    return refKeys.length;\r\n  }\r\n\r\n  function refName(uint index) constant returns (string ref) {\r\n    ref = refKeys[index];\r\n  }\r\n\r\n  function getRef(string ref) constant returns (string hash) {\r\n    hash = refs[ref];\r\n  }\r\n\r\n  function __findRef(string ref) private returns (int) {\r\n    /* Horrible way to add a new key to the list */\r\n\r\n    for (var i = 0; i < refKeys.length; i++)\r\n      if (strEqual(refKeys[i], ref))\r\n        return i;\r\n\r\n    return -1;\r\n  }\r\n\r\n\r\n  function setRef(string ref, string hash) maintainerOnly {\r\n    if (__findRef(ref) == -1)\r\n      refKeys.push(ref);\r\n\r\n    refs[ref] = hash;\r\n  }\r\n\r\n  function deleteRef(string ref) maintainerOnly {\r\n    int pos = __findRef(ref);\r\n    if (pos != -1) {\r\n      // FIXME: shrink the array?\r\n      refKeys[uint(pos)] = \"\";\r\n    }\r\n\r\n    // FIXME: null? string(0)?\r\n    refs[ref] = \"\";\r\n  }\r\n\r\n  function strEqual(string a, string b) private returns (bool) {\r\n    return sha3(a) == sha3(b);\r\n  }\r\n\r\n  function snapshotCount() constant returns (uint) {\r\n    return snapshots.length;\r\n  }\r\n\r\n  function getSnapshot(uint index) constant returns (string) {\r\n    return snapshots[index];\r\n  }\r\n\r\n  function addSnapshot(string hash) maintainerOnly {\r\n    snapshots.push(hash);\r\n  }\r\n\r\n  function issueCount() constant returns (uint count) {\r\n    return issues.length;\r\n  }\r\n\r\n  function getIssue(uint id) constant returns (string hash) {\r\n    if (id >= issues.length || id < 0) throw;\r\n\r\n    if (bytes(issues[id].hash).length == 0) {\r\n      return '';\r\n    } else {\r\n      return issues[id].hash;\r\n    }\r\n  }\r\n\r\n  function newIssue(string hash) {\r\n    issues.push(Issue(issues.length - 1, msg.sender, hash));\r\n  }\r\n\r\n  function setIssue(uint id, string hash) issuePermissions(id) {\r\n    if (id >= issues.length || id < 0) throw;\r\n\r\n    issues[id].hash = hash;\r\n  }\r\n\r\n  function deleteIssue(uint id) issuePermissions(id) {\r\n    if (id >= issues.length || id < 0) throw;\r\n    if (bytes(issues[id].hash).length == 0) throw;\r\n\r\n    delete issues[id];\r\n  }\r\n\r\n  function pullRequestCount() constant returns (uint count) {\r\n    return pullRequests.length;\r\n  }\r\n\r\n  function getPullRequest(uint id) constant returns (address fork) {\r\n    if (id >= pullRequests.length || id < 0) throw;\r\n\r\n    if (pullRequests[id].fork == address(0)) {\r\n      return address(0);\r\n    } else {\r\n      return pullRequests[id].fork;\r\n    }\r\n  }\r\n\r\n  function openPullRequest(uint issueId, address fork) {\r\n    if (bytes(issues[issueId].hash).length == 0) throw;\r\n\r\n    pullRequests.push(PullRequest(pullRequests.length - 1, issues[issueId], msg.sender, fork));\r\n  }\r\n\r\n  function closePullRequest(uint id) pullRequestPermissions(id) {\r\n    if (id >= pullRequests.length || id < 0) throw;\r\n    if (pullRequests[id].fork == address(0)) throw;\r\n\r\n    delete pullRequests[id];\r\n  }\r\n\r\n  function setObsolete() maintainerOnly {\r\n    obsolete = true;\r\n  }\r\n\r\n  function maintainerCount() constant returns (uint) {\r\n    return maintainerAddresses.length;\r\n  }\r\n\r\n  function __findMaintainer(address addr) private returns (int) {\r\n    for (var i = 0; i < maintainerAddresses.length; i++) {\r\n      if (maintainerAddresses[i] == addr)\r\n        return i;\r\n    }\r\n\r\n    return -1;\r\n  }\r\n\r\n  function getName() constant returns (string) {\r\n    return name;\r\n  }\r\n\r\n  function getDescription() constant returns (string) {\r\n    return description;\r\n  }\r\n\r\n  function getMaintainer(uint idx) constant returns (address) {\r\n    return maintainerAddresses[idx];\r\n  }\r\n\r\n  function addMaintainer(address addr) maintainerOnly {\r\n    if (maintainers[addr]) throw;\r\n\r\n    maintainers[addr] = true;\r\n    maintainerAddresses.push(addr);\r\n  }\r\n\r\n  function removeMaintainer(address addr) maintainerOnly {\r\n    if (!maintainers[addr]) throw;\r\n\r\n    maintainers[addr] = false;\r\n\r\n    int pos = __findMaintainer(addr);\r\n\r\n    if (pos != -1) {\r\n      maintainerAddresses[uint(pos)] = address(0);\r\n    }\r\n  }\r\n}\r\n",
  "sourcePath": "/mnt/e/tmp/test2/opencollab-lib/contracts/MangoRepo.sol",
  "compiler": {
    "name": "solc",
    "version": "0.4.18+commit.9cf6e910.Emscripten.clang"
  },
  "schemaVersion": "1.0.1",
  "updatedAt": "2018-02-16T23:28:13.739Z"
}