{
  "contractName": "MangoRepo",
  "abi": [
    {
      "constant": true,
      "inputs": [],
      "name": "challengerStake",
      "outputs": [
        {
          "name": "",
          "type": "uint256"
        }
      ],
      "payable": false,
      "stateMutability": "view",
      "type": "function"
    },
    {
      "constant": true,
      "inputs": [],
      "name": "name",
      "outputs": [
        {
          "name": "",
          "type": "string"
        }
      ],
      "payable": false,
      "stateMutability": "view",
      "type": "function"
    },
    {
      "constant": true,
      "inputs": [],
      "name": "votingCommitPeriodEnd",
      "outputs": [
        {
          "name": "",
          "type": "uint256"
        }
      ],
      "payable": false,
      "stateMutability": "view",
      "type": "function"
    },
    {
      "constant": true,
      "inputs": [],
      "name": "contributorStake",
      "outputs": [
        {
          "name": "",
          "type": "uint256"
        }
      ],
      "payable": false,
      "stateMutability": "view",
      "type": "function"
    },
    {
      "constant": true,
      "inputs": [],
      "name": "obsolete",
      "outputs": [
        {
          "name": "",
          "type": "bool"
        }
      ],
      "payable": false,
      "stateMutability": "view",
      "type": "function"
    },
    {
      "constant": true,
      "inputs": [],
      "name": "votingRevealPeriodLength",
      "outputs": [
        {
          "name": "",
          "type": "uint256"
        }
      ],
      "payable": false,
      "stateMutability": "view",
      "type": "function"
    },
    {
      "constant": true,
      "inputs": [
        {
          "name": "",
          "type": "address"
        }
      ],
      "name": "pullRequestStakes",
      "outputs": [
        {
          "name": "",
          "type": "uint256"
        }
      ],
      "payable": false,
      "stateMutability": "view",
      "type": "function"
    },
    {
      "constant": true,
      "inputs": [],
      "name": "voterPenaltyPercentage",
      "outputs": [
        {
          "name": "",
          "type": "uint256"
        }
      ],
      "payable": false,
      "stateMutability": "view",
      "type": "function"
    },
    {
      "constant": true,
      "inputs": [],
      "name": "voterRewardPercentage",
      "outputs": [
        {
          "name": "",
          "type": "uint256"
        }
      ],
      "payable": false,
      "stateMutability": "view",
      "type": "function"
    },
    {
      "constant": true,
      "inputs": [],
      "name": "description",
      "outputs": [
        {
          "name": "",
          "type": "string"
        }
      ],
      "payable": false,
      "stateMutability": "view",
      "type": "function"
    },
    {
      "constant": true,
      "inputs": [],
      "name": "votingRevealPeriodEnd",
      "outputs": [
        {
          "name": "",
          "type": "uint256"
        }
      ],
      "payable": false,
      "stateMutability": "view",
      "type": "function"
    },
    {
      "constant": true,
      "inputs": [],
      "name": "voterDeposit",
      "outputs": [
        {
          "name": "",
          "type": "uint256"
        }
      ],
      "payable": false,
      "stateMutability": "view",
      "type": "function"
    },
    {
      "constant": true,
      "inputs": [
        {
          "name": "",
          "type": "address"
        }
      ],
      "name": "voters",
      "outputs": [
        {
          "name": "voterAddress",
          "type": "address"
        },
        {
          "name": "deposit",
          "type": "uint256"
        },
        {
          "name": "lastCheckIn",
          "type": "uint256"
        },
        {
          "name": "active",
          "type": "bool"
        }
      ],
      "payable": false,
      "stateMutability": "view",
      "type": "function"
    },
    {
      "constant": true,
      "inputs": [],
      "name": "reviewPeriodLength",
      "outputs": [
        {
          "name": "",
          "type": "uint256"
        }
      ],
      "payable": false,
      "stateMutability": "view",
      "type": "function"
    },
    {
      "constant": true,
      "inputs": [],
      "name": "maintainerStake",
      "outputs": [
        {
          "name": "",
          "type": "uint256"
        }
      ],
      "payable": false,
      "stateMutability": "view",
      "type": "function"
    },
    {
      "constant": true,
      "inputs": [],
      "name": "votingCommitPeriodLength",
      "outputs": [
        {
          "name": "",
          "type": "uint256"
        }
      ],
      "payable": false,
      "stateMutability": "view",
      "type": "function"
    },
    {
      "constant": true,
      "inputs": [],
      "name": "maintainerPercentage",
      "outputs": [
        {
          "name": "",
          "type": "uint256"
        }
      ],
      "payable": false,
      "stateMutability": "view",
      "type": "function"
    },
    {
      "constant": true,
      "inputs": [],
      "name": "reviewPeriodEnd",
      "outputs": [
        {
          "name": "",
          "type": "uint256"
        }
      ],
      "payable": false,
      "stateMutability": "view",
      "type": "function"
    },
    {
      "constant": true,
      "inputs": [],
      "name": "token",
      "outputs": [
        {
          "name": "",
          "type": "address"
        }
      ],
      "payable": false,
      "stateMutability": "view",
      "type": "function"
    },
    {
      "inputs": [
        {
          "name": "_name",
          "type": "string"
        },
        {
          "name": "_description",
          "type": "string"
        },
        {
          "name": "_maintainerPercentage",
          "type": "uint256"
        },
        {
          "name": "_voterRewardPercentage",
          "type": "uint256"
        },
        {
          "name": "_voterPenaltyPercentage",
          "type": "uint256"
        },
        {
          "name": "_voterDeposit",
          "type": "uint256"
        },
        {
          "name": "_maintainerStake",
          "type": "uint256"
        },
        {
          "name": "_contributorStake",
          "type": "uint256"
        },
        {
          "name": "_challengerStake",
          "type": "uint256"
        },
        {
          "name": "_reviewPeriodLength",
          "type": "uint256"
        },
        {
          "name": "_votingCommitPeriodLength",
          "type": "uint256"
        },
        {
          "name": "_votingRevealPeriodLength",
          "type": "uint256"
        },
        {
          "name": "_tokenCount",
          "type": "uint256"
        }
      ],
      "payable": false,
      "stateMutability": "nonpayable",
      "type": "constructor"
    },
    {
      "constant": true,
      "inputs": [],
      "name": "refCount",
      "outputs": [
        {
          "name": "",
          "type": "uint256"
        }
      ],
      "payable": false,
      "stateMutability": "view",
      "type": "function"
    },
    {
      "constant": true,
      "inputs": [
        {
          "name": "index",
          "type": "uint256"
        }
      ],
      "name": "refName",
      "outputs": [
        {
          "name": "ref",
          "type": "string"
        }
      ],
      "payable": false,
      "stateMutability": "view",
      "type": "function"
    },
    {
      "constant": true,
      "inputs": [
        {
          "name": "ref",
          "type": "string"
        }
      ],
      "name": "getRef",
      "outputs": [
        {
          "name": "hash",
          "type": "string"
        }
      ],
      "payable": false,
      "stateMutability": "view",
      "type": "function"
    },
    {
      "constant": false,
      "inputs": [
        {
          "name": "ref",
          "type": "string"
        },
        {
          "name": "hash",
          "type": "string"
        }
      ],
      "name": "setRef",
      "outputs": [],
      "payable": false,
      "stateMutability": "nonpayable",
      "type": "function"
    },
    {
      "constant": false,
      "inputs": [
        {
          "name": "ref",
          "type": "string"
        }
      ],
      "name": "deleteRef",
      "outputs": [],
      "payable": false,
      "stateMutability": "nonpayable",
      "type": "function"
    },
    {
      "constant": true,
      "inputs": [],
      "name": "snapshotCount",
      "outputs": [
        {
          "name": "",
          "type": "uint256"
        }
      ],
      "payable": false,
      "stateMutability": "view",
      "type": "function"
    },
    {
      "constant": true,
      "inputs": [
        {
          "name": "index",
          "type": "uint256"
        }
      ],
      "name": "getSnapshot",
      "outputs": [
        {
          "name": "",
          "type": "string"
        }
      ],
      "payable": false,
      "stateMutability": "view",
      "type": "function"
    },
    {
      "constant": false,
      "inputs": [
        {
          "name": "hash",
          "type": "string"
        }
      ],
      "name": "addSnapshot",
      "outputs": [],
      "payable": false,
      "stateMutability": "nonpayable",
      "type": "function"
    },
    {
      "constant": true,
      "inputs": [],
      "name": "issueCount",
      "outputs": [
        {
          "name": "count",
          "type": "uint256"
        }
      ],
      "payable": false,
      "stateMutability": "view",
      "type": "function"
    },
    {
      "constant": true,
      "inputs": [
        {
          "name": "id",
          "type": "uint256"
        }
      ],
      "name": "getIssue",
      "outputs": [
        {
          "name": "hash",
          "type": "string"
        }
      ],
      "payable": false,
      "stateMutability": "view",
      "type": "function"
    },
    {
      "constant": false,
      "inputs": [
        {
          "name": "hash",
          "type": "string"
        }
      ],
      "name": "newIssue",
      "outputs": [
        {
          "name": "success",
          "type": "bool"
        }
      ],
      "payable": false,
      "stateMutability": "nonpayable",
      "type": "function"
    },
    {
      "constant": false,
      "inputs": [
        {
          "name": "id",
          "type": "uint256"
        },
        {
          "name": "hash",
          "type": "string"
        }
      ],
      "name": "setIssue",
      "outputs": [],
      "payable": false,
      "stateMutability": "nonpayable",
      "type": "function"
    },
    {
      "constant": false,
      "inputs": [
        {
          "name": "id",
          "type": "uint256"
        }
      ],
      "name": "deleteIssue",
      "outputs": [],
      "payable": false,
      "stateMutability": "nonpayable",
      "type": "function"
    },
    {
      "constant": true,
      "inputs": [],
      "name": "pullRequestCount",
      "outputs": [
        {
          "name": "count",
          "type": "uint256"
        }
      ],
      "payable": false,
      "stateMutability": "view",
      "type": "function"
    },
    {
      "constant": true,
      "inputs": [
        {
          "name": "id",
          "type": "uint256"
        }
      ],
      "name": "getPullRequest",
      "outputs": [
        {
          "name": "fork",
          "type": "address"
        }
      ],
      "payable": false,
      "stateMutability": "view",
      "type": "function"
    },
    {
      "constant": false,
      "inputs": [
        {
          "name": "issueId",
          "type": "uint256"
        },
        {
          "name": "fork",
          "type": "address"
        }
      ],
      "name": "openPullRequest",
      "outputs": [],
      "payable": false,
      "stateMutability": "nonpayable",
      "type": "function"
    },
    {
      "constant": false,
      "inputs": [
        {
          "name": "id",
          "type": "uint256"
        }
      ],
      "name": "closePullRequest",
      "outputs": [],
      "payable": false,
      "stateMutability": "nonpayable",
      "type": "function"
    },
    {
      "constant": false,
      "inputs": [
        {
          "name": "id",
          "type": "uint256"
        }
      ],
      "name": "mergePullRequest",
      "outputs": [
        {
          "name": "success",
          "type": "bool"
        }
      ],
      "payable": false,
      "stateMutability": "nonpayable",
      "type": "function"
    },
    {
      "constant": false,
      "inputs": [],
      "name": "setObsolete",
      "outputs": [],
      "payable": false,
      "stateMutability": "nonpayable",
      "type": "function"
    },
    {
      "constant": true,
      "inputs": [],
      "name": "maintainerCount",
      "outputs": [
        {
          "name": "",
          "type": "uint256"
        }
      ],
      "payable": false,
      "stateMutability": "view",
      "type": "function"
    },
    {
      "constant": true,
      "inputs": [],
      "name": "getName",
      "outputs": [
        {
          "name": "",
          "type": "string"
        }
      ],
      "payable": false,
      "stateMutability": "view",
      "type": "function"
    },
    {
      "constant": true,
      "inputs": [],
      "name": "getDescription",
      "outputs": [
        {
          "name": "",
          "type": "string"
        }
      ],
      "payable": false,
      "stateMutability": "view",
      "type": "function"
    },
    {
      "constant": true,
      "inputs": [
        {
          "name": "idx",
          "type": "uint256"
        }
      ],
      "name": "getMaintainer",
      "outputs": [
        {
          "name": "",
          "type": "address"
        }
      ],
      "payable": false,
      "stateMutability": "view",
      "type": "function"
    },
    {
      "constant": false,
      "inputs": [
        {
          "name": "addr",
          "type": "address"
        }
      ],
      "name": "addMaintainer",
      "outputs": [],
      "payable": false,
      "stateMutability": "nonpayable",
      "type": "function"
    },
    {
      "constant": false,
      "inputs": [
        {
          "name": "addr",
          "type": "address"
        }
      ],
      "name": "removeMaintainer",
      "outputs": [],
      "payable": false,
      "stateMutability": "nonpayable",
      "type": "function"
    }
  ],
  "bytecode": "0x606060405234156200001057600080fd5b604051620051e3380380620051e3833981016040528080518201919060200180518201919060200180519060200190919080519060200190919080519060200190919080519060200190919080519060200190919080519060200190919080519060200190919080519060200190919080519060200190919080519060200190919080519060200190919050508c60019080519060200190620000b592919062000382565b508b60029080519060200190620000ce92919062000382565b506001601360003373ffffffffffffffffffffffffffffffffffffffff1673ffffffffffffffffffffffffffffffffffffffff16815260200190815260200160002060006101000a81548160ff021916908315150217905550601280548060010182816200013d919062000409565b9160005260206000209001600033909190916101000a81548173ffffffffffffffffffffffffffffffffffffffff021916908373ffffffffffffffffffffffffffffffffffffffff1602179055505060008060006101000a81548160ff02191690831515021790555030620001b162000438565b808273ffffffffffffffffffffffffffffffffffffffff1673ffffffffffffffffffffffffffffffffffffffff168152602001915050604051809103906000f0801515620001fe57600080fd5b600360006101000a81548173ffffffffffffffffffffffffffffffffffffffff021916908373ffffffffffffffffffffffffffffffffffffffff1602179055508a600481905550896005819055508860068190555087600781905550866009819055508560088190555084600a8190555083600c8190555082600e8190555081601081905550600360009054906101000a900473ffffffffffffffffffffffffffffffffffffffff1673ffffffffffffffffffffffffffffffffffffffff166340c10f1933836000604051602001526040518363ffffffff167c0100000000000000000000000000000000000000000000000000000000028152600401808373ffffffffffffffffffffffffffffffffffffffff1673ffffffffffffffffffffffffffffffffffffffff16815260200182815260200192505050602060405180830381600087803b15156200035257600080fd5b6102c65a03f115156200036457600080fd5b50505060405180519050505050505050505050505050505062000471565b828054600181600116156101000203166002900490600052602060002090601f016020900481019282601f10620003c557805160ff1916838001178555620003f6565b82800160010185558215620003f6579182015b82811115620003f5578251825591602001919060010190620003d8565b5b50905062000405919062000449565b5090565b815481835581811511620004335781836000526020600020918201910162000432919062000449565b5b505050565b6040516112e08062003f0383390190565b6200046e91905b808211156200046a57600081600090555060010162000450565b5090565b90565b613a8280620004816000396000f30060606040526004361061021a576000357c0100000000000000000000000000000000000000000000000000000000900463ffffffff168063018493e11461021f57806301a5da931461029457806306fdde03146102bd578063098ab6a11461034b57806317d7de7c146103745780631a09254114610402578063214a1ce11461049057806331c31820146104cb5780633af13569146104f4578063411691f51461051d5780634941b3631461054657806349432044146105695780635048a4241461059657806350e1fd7a146105bf57806350ff17a41461060c57806357df03e6146106355780635ae5df8f1461065e5780636b453c1f146106bb5780637284e416146106f457806376f10ad01461078257806380d9eaa61461081e57806387c9cd01146108475780638bb0faee146108705780638c79a24d14610910578063939cf037146109ac578063976b3113146109d557806398cf147a14610a715780639cf6dfa014610a9a5780639d170c5d14610afd578063a3ec138d14610bd3578063a7b8c26d14610c65578063aa1e9e4314610c8e578063acd6c61114610cb1578063b2761b8e14610cf3578063c4ec602314610d08578063cdcbc22f14610d31578063d8baf7cf14610d94578063e6a4afc214610dcd578063ecda30ea14610df6578063f2bf6b8c14610e5c578063f4cf99c014610e85578063fc0c546a14610eae578063fd19440014610f03578063fee6d28c14610f2c575b600080fd5b341561022a57600080fd5b61027a600480803590602001908201803590602001908080601f01602080910402602001604051908101604052809392919081815260200183838082843782019150505050505091905050610f89565b604051808215151515815260200191505060405180910390f35b341561029f57600080fd5b6102a7611114565b6040518082815260200191505060405180910390f35b34156102c857600080fd5b6102d061111a565b6040518080602001828103825283818151815260200191508051906020019080838360005b838110156103105780820151818401526020810190506102f5565b50505050905090810190601f16801561033d5780820380516001836020036101000a031916815260200191505b509250505060405180910390f35b341561035657600080fd5b61035e6111b8565b6040518082815260200191505060405180910390f35b341561037f57600080fd5b6103876111c5565b6040518080602001828103825283818151815260200191508051906020019080838360005b838110156103c75780820151818401526020810190506103ac565b50505050905090810190601f1680156103f45780820380516001836020036101000a031916815260200191505b509250505060405180910390f35b341561040d57600080fd5b61041561126d565b6040518080602001828103825283818151815260200191508051906020019080838360005b8381101561045557808201518184015260208101905061043a565b50505050905090810190601f1680156104825780820380516001836020036101000a031916815260200191505b509250505060405180910390f35b341561049b57600080fd5b6104b16004808035906020019091905050611315565b604051808215151515815260200191505060405180910390f35b34156104d657600080fd5b6104de6118fd565b6040518082815260200191505060405180910390f35b34156104ff57600080fd5b61050761190a565b6040518082815260200191505060405180910390f35b341561052857600080fd5b610530611910565b6040518082815260200191505060405180910390f35b341561055157600080fd5b6105676004808035906020019091905050611916565b005b341561057457600080fd5b61057c611b8b565b604051808215151515815260200191505060405180910390f35b34156105a157600080fd5b6105a9611b9d565b6040518082815260200191505060405180910390f35b34156105ca57600080fd5b6105f6600480803573ffffffffffffffffffffffffffffffffffffffff16906020019091905050611ba3565b6040518082815260200191505060405180910390f35b341561061757600080fd5b61061f611bbb565b6040518082815260200191505060405180910390f35b341561064057600080fd5b610648611bc1565b6040518082815260200191505060405180910390f35b341561066957600080fd5b6106b9600480803590602001908201803590602001908080601f01602080910402602001604051908101604052809392919081815260200183838082843782019150505050505091905050611bc7565b005b34156106c657600080fd5b6106f2600480803573ffffffffffffffffffffffffffffffffffffffff16906020019091905050611d29565b005b34156106ff57600080fd5b610707611e96565b6040518080602001828103825283818151815260200191508051906020019080838360005b8381101561074757808201518184015260208101905061072c565b50505050905090810190601f1680156107745780820380516001836020036101000a031916815260200191505b509250505060405180910390f35b341561078d57600080fd5b6107a36004808035906020019091905050611f34565b6040518080602001828103825283818151815260200191508051906020019080838360005b838110156107e35780820151818401526020810190506107c8565b50505050905090810190601f1680156108105780820380516001836020036101000a031916815260200191505b509250505060405180910390f35b341561082957600080fd5b610831611ff6565b6040518082815260200191505060405180910390f35b341561085257600080fd5b61085a612003565b6040518082815260200191505060405180910390f35b341561087b57600080fd5b61090e600480803590602001908201803590602001908080601f0160208091040260200160405190810160405280939291908181526020018383808284378201915050505050509190803590602001908201803590602001908080601f01602080910402602001604051908101604052809392919081815260200183838082843782019150505050505091905050612009565b005b341561091b57600080fd5b6109316004808035906020019091905050612152565b6040518080602001828103825283818151815260200191508051906020019080838360005b83811015610971578082015181840152602081019050610956565b50505050905090810190601f16801561099e5780820380516001836020036101000a031916815260200191505b509250505060405180910390f35b34156109b757600080fd5b6109bf612214565b6040518082815260200191505060405180910390f35b34156109e057600080fd5b6109f6600480803590602001909190505061221a565b6040518080602001828103825283818151815260200191508051906020019080838360005b83811015610a36578082015181840152602081019050610a1b565b50505050905090810190601f168015610a635780820380516001836020036101000a031916815260200191505b509250505060405180910390f35b3415610a7c57600080fd5b610a84612356565b6040518082815260200191505060405180910390f35b3415610aa557600080fd5b610abb6004808035906020019091905050612363565b604051808273ffffffffffffffffffffffffffffffffffffffff1673ffffffffffffffffffffffffffffffffffffffff16815260200191505060405180910390f35b3415610b0857600080fd5b610b58600480803590602001908201803590602001908080601f016020809104026020016040519081016040528093929190818152602001838380828437820191505050505050919050506123a7565b6040518080602001828103825283818151815260200191508051906020019080838360005b83811015610b98578082015181840152602081019050610b7d565b50505050905090810190601f168015610bc55780820380516001836020036101000a031916815260200191505b509250505060405180910390f35b3415610bde57600080fd5b610c0a600480803573ffffffffffffffffffffffffffffffffffffffff169060200190919050506124ba565b604051808573ffffffffffffffffffffffffffffffffffffffff1673ffffffffffffffffffffffffffffffffffffffff1681526020018481526020018381526020018215151515815260200194505050505060405180910390f35b3415610c7057600080fd5b610c78612517565b6040518082815260200191505060405180910390f35b3415610c9957600080fd5b610caf600480803590602001909190505061251d565b005b3415610cbc57600080fd5b610cf1600480803590602001909190803573ffffffffffffffffffffffffffffffffffffffff169060200190919050506126e9565b005b3415610cfe57600080fd5b610d06612d1d565b005b3415610d1357600080fd5b610d1b612d91565b6040518082815260200191505060405180910390f35b3415610d3c57600080fd5b610d526004808035906020019091905050612d97565b604051808273ffffffffffffffffffffffffffffffffffffffff1673ffffffffffffffffffffffffffffffffffffffff16815260200191505060405180910390f35b3415610d9f57600080fd5b610dcb600480803573ffffffffffffffffffffffffffffffffffffffff16906020019091905050612e7e565b005b3415610dd857600080fd5b610de061301b565b6040518082815260200191505060405180910390f35b3415610e0157600080fd5b610e5a600480803590602001909190803590602001908201803590602001908080601f01602080910402602001604051908101604052809392919081815260200183838082843782019150505050505091905050613021565b005b3415610e6757600080fd5b610e6f61314a565b6040518082815260200191505060405180910390f35b3415610e9057600080fd5b610e98613150565b6040518082815260200191505060405180910390f35b3415610eb957600080fd5b610ec1613156565b604051808273ffffffffffffffffffffffffffffffffffffffff1673ffffffffffffffffffffffffffffffffffffffff16815260200191505060405180910390f35b3415610f0e57600080fd5b610f1661317c565b6040518082815260200191505060405180910390f35b3415610f3757600080fd5b610f87600480803590602001908201803590602001908080601f01602080910402602001604051908101604052809392919081815260200183838082843782019150505050505091905050613189565b005b6000610f9361351b565b601a8054905081600001818152505033816020019073ffffffffffffffffffffffffffffffffffffffff16908173ffffffffffffffffffffffffffffffffffffffff16815250508281604001819052506000816060018181525050600081608001901515908115158152505060008160a001818152505060018160c0019015159081151581525050601a805480600101828161102f9190613579565b916000526020600020906008020160008390919091506000820151816000015560208201518160010160006101000a81548173ffffffffffffffffffffffffffffffffffffffff021916908373ffffffffffffffffffffffffffffffffffffffff16021790555060408201518160020190805190602001906110b29291906135ab565b506060820151816003015560808201518160050160006101000a81548160ff02191690831515021790555060a0820151816006015560c08201518160070160006101000a81548160ff0219169083151502179055505050506001915050919050565b600a5481565b60018054600181600116156101000203166002900480601f0160208091040260200160405190810160405280929190818152602001828054600181600116156101000203166002900480156111b05780601f10611185576101008083540402835291602001916111b0565b820191906000526020600020905b81548152906001019060200180831161119357829003601f168201915b505050505081565b6000601680549050905090565b6111cd61362b565b60018054600181600116156101000203166002900480601f0160208091040260200160405190810160405280929190818152602001828054600181600116156101000203166002900480156112635780601f1061123857610100808354040283529160200191611263565b820191906000526020600020905b81548152906001019060200180831161124657829003601f168201915b5050505050905090565b61127561362b565b60028054600181600116156101000203166002900480601f01602080910402602001604051908101604052809291908181526020018280546001816001161561010002031660029004801561130b5780601f106112e05761010080835404028352916020019161130b565b820191906000526020600020905b8154815290600101906020018083116112ee57829003601f168201915b5050505050905090565b600080600080600085601b80549050811015806113325750600081105b1561133c57600080fd5b601b8181548110151561134b57fe5b90600052602060002090600b0201600a0160149054906101000a900460ff16151561137557600080fd5b601360003373ffffffffffffffffffffffffffffffffffffffff1673ffffffffffffffffffffffffffffffffffffffff16815260200190815260200160002060009054906101000a900460ff1615156113cd57600080fd5b6002808111156113d957fe5b600b60009054906101000a900460ff1660028111156113f457fe5b14156113ff57600080fd5b6000600281111561140c57fe5b600b60009054906101000a900460ff16600281111561142757fe5b1480156114355750600d5442105b1561143f57600080fd5b6001600281111561144c57fe5b600b60009054906101000a900460ff16600281111561146757fe5b148015611475575060115442105b1561147f57600080fd5b601b8781548110151561148e57fe5b90600052602060002090600b0201600101600301549450600360009054906101000a900473ffffffffffffffffffffffffffffffffffffffff1673ffffffffffffffffffffffffffffffffffffffff166340c10f1930876000604051602001526040518363ffffffff167c0100000000000000000000000000000000000000000000000000000000028152600401808373ffffffffffffffffffffffffffffffffffffffff1673ffffffffffffffffffffffffffffffffffffffff16815260200182815260200192505050602060405180830381600087803b151561157257600080fd5b6102c65a03f1151561158357600080fd5b50505060405180519050506064600454860281151561159e57fe5b04935083850392506115ef601960003373ffffffffffffffffffffffffffffffffffffffff1673ffffffffffffffffffffffffffffffffffffffff1681526020019081526020016000205485613220565b601960003373ffffffffffffffffffffffffffffffffffffffff1673ffffffffffffffffffffffffffffffffffffffff168152602001908152602001600020819055506116bb60196000601b8a81548110151561164857fe5b90600052602060002090600b020160090160009054906101000a900473ffffffffffffffffffffffffffffffffffffffff1673ffffffffffffffffffffffffffffffffffffffff1673ffffffffffffffffffffffffffffffffffffffff1681526020019081526020016000205484613220565b60196000601b8a8154811015156116ce57fe5b90600052602060002090600b020160090160009054906101000a900473ffffffffffffffffffffffffffffffffffffffff1673ffffffffffffffffffffffffffffffffffffffff1673ffffffffffffffffffffffffffffffffffffffff16815260200190815260200160002081905550601b8781548110151561174d57fe5b90600052602060002090600b02016001016000015491506000601a8381548110151561177557fe5b906000526020600020906008020160050160006101000a81548160ff0219169083151502179055506000601a838154811015156117ae57fe5b906000526020600020906008020160060181905550601b878154811015156117d257fe5b90600052602060002090600b0201600080820160009055600182016000808201600090556001820160006101000a81549073ffffffffffffffffffffffffffffffffffffffff021916905560028201600061182d919061363f565b60038201600090556005820160006101000a81549060ff021916905560068201600090556007820160006101000a81549060ff021916905550506009820160006101000a81549073ffffffffffffffffffffffffffffffffffffffff0219169055600a820160006101000a81549073ffffffffffffffffffffffffffffffffffffffff0219169055600a820160146101000a81549060ff021916905550506002600b60006101000a81548160ff021916908360028111156118ea57fe5b0217905550600195505050505050919050565b6000601280549050905090565b600f5481565b60085481565b803373ffffffffffffffffffffffffffffffffffffffff16601b8281548110151561193d57fe5b90600052602060002090600b020160090160009054906101000a900473ffffffffffffffffffffffffffffffffffffffff1673ffffffffffffffffffffffffffffffffffffffff16141580156119dd5750601360003373ffffffffffffffffffffffffffffffffffffffff1673ffffffffffffffffffffffffffffffffffffffff16815260200190815260200160002060009054906101000a900460ff16155b156119e757600080fd5b601b80549050821015806119fb5750600082105b15611a0557600080fd5b600073ffffffffffffffffffffffffffffffffffffffff16601b83815481101515611a2c57fe5b90600052602060002090600b0201600a0160009054906101000a900473ffffffffffffffffffffffffffffffffffffffff1673ffffffffffffffffffffffffffffffffffffffff161415611a7f57600080fd5b601b82815481101515611a8e57fe5b90600052602060002090600b0201600080820160009055600182016000808201600090556001820160006101000a81549073ffffffffffffffffffffffffffffffffffffffff0219169055600282016000611ae9919061363f565b60038201600090556005820160006101000a81549060ff021916905560068201600090556007820160006101000a81549060ff021916905550506009820160006101000a81549073ffffffffffffffffffffffffffffffffffffffff0219169055600a820160006101000a81549073ffffffffffffffffffffffffffffffffffffffff0219169055600a820160146101000a81549060ff021916905550505050565b6000809054906101000a900460ff1681565b60105481565b60196020528060005260406000206000915090505481565b60065481565b60055481565b6000601360003373ffffffffffffffffffffffffffffffffffffffff1673ffffffffffffffffffffffffffffffffffffffff16815260200190815260200160002060009054906101000a900460ff161515611c2157600080fd5b611c2a8261324a565b90507fffffffffffffffffffffffffffffffffffffffffffffffffffffffffffffffff81141515611c95576020604051908101604052806000815250601482815481101515611c7557fe5b90600052602060002090019080519060200190611c93929190613687565b505b60206040519081016040528060008152506015836040518082805190602001908083835b602083101515611cde5780518252602082019150602081019050602083039250611cb9565b6001836020036101000a03801982511681845116808217855250505050505090500191505090815260200160405180910390209080519060200190611d24929190613687565b505050565b601360003373ffffffffffffffffffffffffffffffffffffffff1673ffffffffffffffffffffffffffffffffffffffff16815260200190815260200160002060009054906101000a900460ff161515611d8157600080fd5b601360008273ffffffffffffffffffffffffffffffffffffffff1673ffffffffffffffffffffffffffffffffffffffff16815260200190815260200160002060009054906101000a900460ff1615611dd857600080fd5b6001601360008373ffffffffffffffffffffffffffffffffffffffff1673ffffffffffffffffffffffffffffffffffffffff16815260200190815260200160002060006101000a81548160ff02191690831515021790555060128054806001018281611e449190613707565b9160005260206000209001600083909190916101000a81548173ffffffffffffffffffffffffffffffffffffffff021916908373ffffffffffffffffffffffffffffffffffffffff1602179055505050565b60028054600181600116156101000203166002900480601f016020809104026020016040519081016040528092919081815260200182805460018160011615610100020316600290048015611f2c5780601f10611f0157610100808354040283529160200191611f2c565b820191906000526020600020905b815481529060010190602001808311611f0f57829003601f168201915b505050505081565b611f3c61362b565b601682815481101515611f4b57fe5b90600052602060002090018054600181600116156101000203166002900480601f016020809104026020016040519081016040528092919081815260200182805460018160011615610100020316600290048015611fea5780601f10611fbf57610100808354040283529160200191611fea565b820191906000526020600020905b815481529060010190602001808311611fcd57829003601f168201915b50505050509050919050565b6000601480549050905090565b60115481565b601360003373ffffffffffffffffffffffffffffffffffffffff1673ffffffffffffffffffffffffffffffffffffffff16815260200190815260200160002060009054906101000a900460ff16151561206157600080fd5b7fffffffffffffffffffffffffffffffffffffffffffffffffffffffffffffffff61208b8361324a565b14156120ce57601480548060010182816120a59190613733565b9160005260206000209001600084909190915090805190602001906120cb929190613687565b50505b806015836040518082805190602001908083835b60208310151561210757805182526020820191506020810190506020830392506120e2565b6001836020036101000a0380198251168184511680821785525050505050509050019150509081526020016040518091039020908051906020019061214d929190613687565b505050565b61215a61362b565b60148281548110151561216957fe5b90600052602060002090018054600181600116156101000203166002900480601f0160208091040260200160405190810160405280929190818152602001828054600181600116156101000203166002900480156122085780601f106121dd57610100808354040283529160200191612208565b820191906000526020600020905b8154815290600101906020018083116121eb57829003601f168201915b50505050509050919050565b60075481565b61222261362b565b601a80549050821015806122365750600082105b1561224057600080fd5b6000601a8381548110151561225157fe5b906000526020600020906008020160020180546001816001161561010002031660029004905014156122955760206040519081016040528060008152509050612351565b601a828154811015156122a457fe5b90600052602060002090600802016002018054600181600116156101000203166002900480601f0160208091040260200160405190810160405280929190818152602001828054600181600116156101000203166002900480156123495780601f1061231e57610100808354040283529160200191612349565b820191906000526020600020905b81548152906001019060200180831161232c57829003601f168201915b505050505090505b919050565b6000601a80549050905090565b600060128281548110151561237457fe5b906000526020600020900160009054906101000a900473ffffffffffffffffffffffffffffffffffffffff169050919050565b6123af61362b565b6015826040518082805190602001908083835b6020831015156123e757805182526020820191506020810190506020830392506123c2565b6001836020036101000a03801982511681845116808217855250505050505090500191505090815260200160405180910390208054600181600116156101000203166002900480601f0160208091040260200160405190810160405280929190818152602001828054600181600116156101000203166002900480156124ae5780601f10612483576101008083540402835291602001916124ae565b820191906000526020600020905b81548152906001019060200180831161249157829003601f168201915b50505050509050919050565b60186020528060005260406000206000915090508060000160009054906101000a900473ffffffffffffffffffffffffffffffffffffffff16908060010154908060020154908060030160009054906101000a900460ff16905084565b600c5481565b803373ffffffffffffffffffffffffffffffffffffffff16601a8281548110151561254457fe5b906000526020600020906008020160010160009054906101000a900473ffffffffffffffffffffffffffffffffffffffff1673ffffffffffffffffffffffffffffffffffffffff16141580156125e45750601360003373ffffffffffffffffffffffffffffffffffffffff1673ffffffffffffffffffffffffffffffffffffffff16815260200190815260200160002060009054906101000a900460ff16155b156125ee57600080fd5b601a80549050821015806126025750600082105b1561260c57600080fd5b6000601a8381548110151561261d57fe5b9060005260206000209060080201600201805460018160011615610100020316600290049050141561264e57600080fd5b601a8281548110151561265d57fe5b90600052602060002090600802016000808201600090556001820160006101000a81549073ffffffffffffffffffffffffffffffffffffffff02191690556002820160006126ab919061363f565b60038201600090556005820160006101000a81549060ff021916905560068201600090556007820160006101000a81549060ff021916905550505050565b6126f161375f565b82601a80549050811015806127065750600081105b1561271057600080fd5b601a8181548110151561271f57fe5b906000526020600020906008020160070160009054906101000a900460ff16151561274957600080fd5b600360009054906101000a900473ffffffffffffffffffffffffffffffffffffffff1673ffffffffffffffffffffffffffffffffffffffff166323b872dd33306008546000604051602001526040518463ffffffff167c0100000000000000000000000000000000000000000000000000000000028152600401808473ffffffffffffffffffffffffffffffffffffffff1673ffffffffffffffffffffffffffffffffffffffff1681526020018373ffffffffffffffffffffffffffffffffffffffff1673ffffffffffffffffffffffffffffffffffffffff1681526020018281526020019350505050602060405180830381600087803b151561284c57600080fd5b6102c65a03f1151561285d57600080fd5b50505060405180519050506128b3601960003373ffffffffffffffffffffffffffffffffffffffff1673ffffffffffffffffffffffffffffffffffffffff16815260200190815260200160002054600854613220565b601960003373ffffffffffffffffffffffffffffffffffffffff1673ffffffffffffffffffffffffffffffffffffffff16815260200190815260200160002081905550601b80549050826000018181525050601a8481548110151561291457fe5b906000526020600020906008020160e06040519081016040529081600082015481526020016001820160009054906101000a900473ffffffffffffffffffffffffffffffffffffffff1673ffffffffffffffffffffffffffffffffffffffff1673ffffffffffffffffffffffffffffffffffffffff168152602001600282018054600181600116156101000203166002900480601f016020809104026020016040519081016040528092919081815260200182805460018160011615610100020316600290048015612a275780601f106129fc57610100808354040283529160200191612a27565b820191906000526020600020905b815481529060010190602001808311612a0a57829003601f168201915b50505050508152602001600382015481526020016005820160009054906101000a900460ff16151515158152602001600682015481526020016007820160009054906101000a900460ff16151515158152505082602001819052506001601a85815481101515612a9357fe5b906000526020600020906008020160050160006101000a81548160ff0219169083151502179055508160000151601a85815481101515612acf57fe5b90600052602060002090600802016006018190555033826040019073ffffffffffffffffffffffffffffffffffffffff16908173ffffffffffffffffffffffffffffffffffffffff168152505082826060019073ffffffffffffffffffffffffffffffffffffffff16908173ffffffffffffffffffffffffffffffffffffffff16815250506001826080019015159081151581525050601b8054806001018281612b7991906137c4565b91600052602060002090600b02016000849091909150600082015181600001556020820151816001016000820151816000015560208201518160010160006101000a81548173ffffffffffffffffffffffffffffffffffffffff021916908373ffffffffffffffffffffffffffffffffffffffff1602179055506040820151816002019080519060200190612c0f9291906135ab565b506060820151816003015560808201518160050160006101000a81548160ff02191690831515021790555060a0820151816006015560c08201518160070160006101000a81548160ff021916908315150217905550505060408201518160090160006101000a81548173ffffffffffffffffffffffffffffffffffffffff021916908373ffffffffffffffffffffffffffffffffffffffff160217905550606082015181600a0160006101000a81548173ffffffffffffffffffffffffffffffffffffffff021916908373ffffffffffffffffffffffffffffffffffffffff160217905550608082015181600a0160146101000a81548160ff02191690831515021790555050505050505050565b601360003373ffffffffffffffffffffffffffffffffffffffff1673ffffffffffffffffffffffffffffffffffffffff16815260200190815260200160002060009054906101000a900460ff161515612d7557600080fd5b60016000806101000a81548160ff021916908315150217905550565b60095481565b6000601b8054905082101580612dad5750600082105b15612db757600080fd5b600073ffffffffffffffffffffffffffffffffffffffff16601b83815481101515612dde57fe5b90600052602060002090600b0201600a0160009054906101000a900473ffffffffffffffffffffffffffffffffffffffff1673ffffffffffffffffffffffffffffffffffffffff161415612e355760009050612e79565b601b82815481101515612e4457fe5b90600052602060002090600b0201600a0160009054906101000a900473ffffffffffffffffffffffffffffffffffffffff1690505b919050565b6000601360003373ffffffffffffffffffffffffffffffffffffffff1673ffffffffffffffffffffffffffffffffffffffff16815260200190815260200160002060009054906101000a900460ff161515612ed857600080fd5b601360008373ffffffffffffffffffffffffffffffffffffffff1673ffffffffffffffffffffffffffffffffffffffff16815260200190815260200160002060009054906101000a900460ff161515612f3057600080fd5b6000601360008473ffffffffffffffffffffffffffffffffffffffff1673ffffffffffffffffffffffffffffffffffffffff16815260200190815260200160002060006101000a81548160ff021916908315150217905550612f9182613368565b90507fffffffffffffffffffffffffffffffffffffffffffffffffffffffffffffffff81141515613017576000601282815481101515612fcd57fe5b906000526020600020900160006101000a81548173ffffffffffffffffffffffffffffffffffffffff021916908373ffffffffffffffffffffffffffffffffffffffff1602179055505b5050565b600e5481565b813373ffffffffffffffffffffffffffffffffffffffff16601a8281548110151561304857fe5b906000526020600020906008020160010160009054906101000a900473ffffffffffffffffffffffffffffffffffffffff1673ffffffffffffffffffffffffffffffffffffffff16141580156130e85750601360003373ffffffffffffffffffffffffffffffffffffffff1673ffffffffffffffffffffffffffffffffffffffff16815260200190815260200160002060009054906101000a900460ff16155b156130f257600080fd5b601a80549050831015806131065750600083105b1561311057600080fd5b81601a8481548110151561312057fe5b90600052602060002090600802016002019080519060200190613144929190613687565b50505050565b60045481565b600d5481565b600360009054906101000a900473ffffffffffffffffffffffffffffffffffffffff1681565b6000601b80549050905090565b601360003373ffffffffffffffffffffffffffffffffffffffff1673ffffffffffffffffffffffffffffffffffffffff16815260200190815260200160002060009054906101000a900460ff1615156131e157600080fd5b601680548060010182816131f59190613733565b91600052602060002090016000839091909150908051906020019061321b929190613687565b505050565b600080828401905061324084821015801561323b5750838210155b613433565b8091505092915050565b600080600090505b6014805490508160ff16101561333e5761332160148260ff1681548110151561327757fe5b90600052602060002090018054600181600116156101000203166002900480601f0160208091040260200160405190810160405280929190818152602001828054600181600116156101000203166002900480156133165780601f106132eb57610100808354040283529160200191613316565b820191906000526020600020905b8154815290600101906020018083116132f957829003601f168201915b505050505084613442565b15613331578060ff169150613362565b8080600101915050613252565b7fffffffffffffffffffffffffffffffffffffffffffffffffffffffffffffffff91505b50919050565b600080600090505b6012805490508160ff161015613409578273ffffffffffffffffffffffffffffffffffffffff1660128260ff168154811015156133a957fe5b906000526020600020900160009054906101000a900473ffffffffffffffffffffffffffffffffffffffff1673ffffffffffffffffffffffffffffffffffffffff1614156133fc578060ff16915061342d565b8080600101915050613370565b7fffffffffffffffffffffffffffffffffffffffffffffffffffffffffffffffff91505b50919050565b80151561343f57600080fd5b50565b6000816040518082805190602001908083835b60208310151561347a5780518252602082019150602081019050602083039250613455565b6001836020036101000a038019825116818451168082178552505050505050905001915050604051809103902060001916836040518082805190602001908083835b6020831015156134e157805182526020820191506020810190506020830392506134bc565b6001836020036101000a03801982511681845116808217855250505050505090500191505060405180910390206000191614905092915050565b60e06040519081016040528060008152602001600073ffffffffffffffffffffffffffffffffffffffff1681526020016135536137f6565b815260200160008152602001600015158152602001600081526020016000151581525090565b8154818355818115116135a6576008028160080283600052602060002091820191016135a5919061380a565b5b505050565b828054600181600116156101000203166002900490600052602060002090601f016020900481019282601f106135ec57805160ff191683800117855561361a565b8280016001018555821561361a579182015b828111156136195782518255916020019190600101906135fe565b5b50905061362791906138a0565b5090565b602060405190810160405280600081525090565b50805460018160011615610100020316600290046000825580601f106136655750613684565b601f01602090049060005260206000209081019061368391906138a0565b5b50565b828054600181600116156101000203166002900490600052602060002090601f016020900481019282601f106136c857805160ff19168380011785556136f6565b828001600101855582156136f6579182015b828111156136f55782518255916020019190600101906136da565b5b50905061370391906138a0565b5090565b81548183558181151161372e5781836000526020600020918201910161372d91906138a0565b5b505050565b81548183558181151161375a5781836000526020600020918201910161375991906138c5565b5b505050565b610160604051908101604052806000815260200161377b6138f1565b8152602001600073ffffffffffffffffffffffffffffffffffffffff168152602001600073ffffffffffffffffffffffffffffffffffffffff1681526020016000151581525090565b8154818355818115116137f157600b0281600b0283600052602060002091820191016137f0919061394f565b5b505050565b602060405190810160405280600081525090565b61389d91905b80821115613899576000808201600090556001820160006101000a81549073ffffffffffffffffffffffffffffffffffffffff0219169055600282016000613858919061363f565b60038201600090556005820160006101000a81549060ff021916905560068201600090556007820160006101000a81549060ff021916905550600801613810565b5090565b90565b6138c291905b808211156138be5760008160009055506001016138a6565b5090565b90565b6138ee91905b808211156138ea57600081816138e1919061363f565b506001016138cb565b5090565b90565b60e06040519081016040528060008152602001600073ffffffffffffffffffffffffffffffffffffffff1681526020016139296137f6565b815260200160008152602001600015158152602001600081526020016000151581525090565b613a5391905b80821115613a4f57600080820160009055600182016000808201600090556001820160006101000a81549073ffffffffffffffffffffffffffffffffffffffff02191690556002820160006139aa919061363f565b60038201600090556005820160006101000a81549060ff021916905560068201600090556007820160006101000a81549060ff021916905550506009820160006101000a81549073ffffffffffffffffffffffffffffffffffffffff0219169055600a820160006101000a81549073ffffffffffffffffffffffffffffffffffffffff0219169055600a820160146101000a81549060ff021916905550600b01613955565b5090565b905600a165627a7a72305820f7d6d9e9646486055383f74a0c3b944909f83dd9f954965d88b632ca0868f639002960606040526040805190810160405280600581526020017f4552433230000000000000000000000000000000000000000000000000000000815250600190805190602001906200005192919062000173565b506040805190810160405280600f81526020017f4f70656e436f6c6c6162546f6b656e0000000000000000000000000000000000815250600290805190602001906200009f92919062000173565b506040805190810160405280600381526020017f4f4354000000000000000000000000000000000000000000000000000000000081525060039080519060200190620000ed92919062000173565b5060126004556a115eec47f6cf7e3500000060085534156200010e57600080fd5b604051602080620012e08339810160405280805190602001909190505080600760006101000a81548173ffffffffffffffffffffffffffffffffffffffff021916908373ffffffffffffffffffffffffffffffffffffffff1602179055505062000222565b828054600181600116156101000203166002900490600052602060002090601f016020900481019282601f10620001b657805160ff1916838001178555620001e7565b82800160010185558215620001e7579182015b82811115620001e6578251825591602001919060010190620001c9565b5b509050620001f69190620001fa565b5090565b6200021f91905b808211156200021b57600081600090555060010162000201565b5090565b90565b6110ae80620002326000396000f3006060604052600436106100d0576000357c0100000000000000000000000000000000000000000000000000000000900463ffffffff16806306fdde03146100d5578063095ea7b31461016357806318160ddd146101bd57806323b872dd146101e6578063313ce5671461025f57806340c10f19146102885780635a3b7e42146102e257806370a08231146103705780638f770ad0146103bd57806395d89b41146103e65780639d11877014610474578063a9059cbb146104af578063dd62ed3e14610509578063eb6db26114610575575b600080fd5b34156100e057600080fd5b6100e86105ca565b6040518080602001828103825283818151815260200191508051906020019080838360005b8381101561012857808201518184015260208101905061010d565b50505050905090810190601f1680156101555780820380516001836020036101000a031916815260200191505b509250505060405180910390f35b341561016e57600080fd5b6101a3600480803573ffffffffffffffffffffffffffffffffffffffff16906020019091908035906020019091905050610668565b604051808215151515815260200191505060405180910390f35b34156101c857600080fd5b6101d061075a565b6040518082815260200191505060405180910390f35b34156101f157600080fd5b610245600480803573ffffffffffffffffffffffffffffffffffffffff1690602001909190803573ffffffffffffffffffffffffffffffffffffffff16906020019091908035906020019091905050610760565b604051808215151515815260200191505060405180910390f35b341561026a57600080fd5b6102726109f5565b6040518082815260200191505060405180910390f35b341561029357600080fd5b6102c8600480803573ffffffffffffffffffffffffffffffffffffffff169060200190919080359060200190919050506109fb565b604051808215151515815260200191505060405180910390f35b34156102ed57600080fd5b6102f5610b14565b6040518080602001828103825283818151815260200191508051906020019080838360005b8381101561033557808201518184015260208101905061031a565b50505050905090810190601f1680156103625780820380516001836020036101000a031916815260200191505b509250505060405180910390f35b341561037b57600080fd5b6103a7600480803573ffffffffffffffffffffffffffffffffffffffff16906020019091905050610bb2565b6040518082815260200191505060405180910390f35b34156103c857600080fd5b6103d0610bfb565b6040518082815260200191505060405180910390f35b34156103f157600080fd5b6103f9610c01565b6040518080602001828103825283818151815260200191508051906020019080838360005b8381101561043957808201518184015260208101905061041e565b50505050905090810190601f1680156104665780820380516001836020036101000a031916815260200191505b509250505060405180910390f35b341561047f57600080fd5b6104956004808035906020019091905050610c9f565b604051808215151515815260200191505060405180910390f35b34156104ba57600080fd5b6104ef600480803573ffffffffffffffffffffffffffffffffffffffff16906020019091908035906020019091905050610dfa565b604051808215151515815260200191505060405180910390f35b341561051457600080fd5b61055f600480803573ffffffffffffffffffffffffffffffffffffffff1690602001909190803573ffffffffffffffffffffffffffffffffffffffff16906020019091905050610f83565b6040518082815260200191505060405180910390f35b341561058057600080fd5b61058861100a565b604051808273ffffffffffffffffffffffffffffffffffffffff1673ffffffffffffffffffffffffffffffffffffffff16815260200191505060405180910390f35b60028054600181600116156101000203166002900480601f0160208091040260200160405190810160405280929190818152602001828054600181600116156101000203166002900480156106605780601f1061063557610100808354040283529160200191610660565b820191906000526020600020905b81548152906001019060200180831161064357829003601f168201915b505050505081565b600081600660003373ffffffffffffffffffffffffffffffffffffffff1673ffffffffffffffffffffffffffffffffffffffff16815260200190815260200160002060008573ffffffffffffffffffffffffffffffffffffffff1673ffffffffffffffffffffffffffffffffffffffff168152602001908152602001600020819055508273ffffffffffffffffffffffffffffffffffffffff163373ffffffffffffffffffffffffffffffffffffffff167f8c5be1e5ebec7d5bd14f71427d1e84f3dd0314c0f7b2291e5b200ac8c7c3b925846040518082815260200191505060405180910390a36001905092915050565b60005481565b600080600660008673ffffffffffffffffffffffffffffffffffffffff1673ffffffffffffffffffffffffffffffffffffffff16815260200190815260200160002060003373ffffffffffffffffffffffffffffffffffffffff1673ffffffffffffffffffffffffffffffffffffffff16815260200190815260200160002054905061082b600560008673ffffffffffffffffffffffffffffffffffffffff1673ffffffffffffffffffffffffffffffffffffffff1681526020019081526020016000205484611030565b600560008673ffffffffffffffffffffffffffffffffffffffff1673ffffffffffffffffffffffffffffffffffffffff168152602001908152602001600020819055506108b7600560008773ffffffffffffffffffffffffffffffffffffffff1673ffffffffffffffffffffffffffffffffffffffff168152602001908152602001600020548461105a565b600560008773ffffffffffffffffffffffffffffffffffffffff1673ffffffffffffffffffffffffffffffffffffffff16815260200190815260200160002081905550610904818461105a565b600660008773ffffffffffffffffffffffffffffffffffffffff1673ffffffffffffffffffffffffffffffffffffffff16815260200190815260200160002060003373ffffffffffffffffffffffffffffffffffffffff1673ffffffffffffffffffffffffffffffffffffffff168152602001908152602001600020819055508373ffffffffffffffffffffffffffffffffffffffff168573ffffffffffffffffffffffffffffffffffffffff167fddf252ad1be2c89b69c2b068fc378daa952ba7f163c4a11628f55a4df523b3ef856040518082815260200191505060405180910390a360019150509392505050565b60045481565b6000600760009054906101000a900473ffffffffffffffffffffffffffffffffffffffff1673ffffffffffffffffffffffffffffffffffffffff163373ffffffffffffffffffffffffffffffffffffffff16141515610a5957600080fd5b60085482600054011115610a6c57600080fd5b610ab5600560008573ffffffffffffffffffffffffffffffffffffffff1673ffffffffffffffffffffffffffffffffffffffff1681526020019081526020016000205483611030565b600560008573ffffffffffffffffffffffffffffffffffffffff1673ffffffffffffffffffffffffffffffffffffffff16815260200190815260200160002081905550610b0460005483611030565b6000819055506001905092915050565b60018054600181600116156101000203166002900480601f016020809104026020016040519081016040528092919081815260200182805460018160011615610100020316600290048015610baa5780601f10610b7f57610100808354040283529160200191610baa565b820191906000526020600020905b815481529060010190602001808311610b8d57829003601f168201915b505050505081565b6000600560008373ffffffffffffffffffffffffffffffffffffffff1673ffffffffffffffffffffffffffffffffffffffff168152602001908152602001600020549050919050565b60085481565b60038054600181600116156101000203166002900480601f016020809104026020016040519081016040528092919081815260200182805460018160011615610100020316600290048015610c975780601f10610c6c57610100808354040283529160200191610c97565b820191906000526020600020905b815481529060010190602001808311610c7a57829003601f168201915b505050505081565b6000600760009054906101000a900473ffffffffffffffffffffffffffffffffffffffff1673ffffffffffffffffffffffffffffffffffffffff163373ffffffffffffffffffffffffffffffffffffffff16141515610cfd57600080fd5b600082600054031015610d0f57600080fd5b610d7a60056000600760009054906101000a900473ffffffffffffffffffffffffffffffffffffffff1673ffffffffffffffffffffffffffffffffffffffff1673ffffffffffffffffffffffffffffffffffffffff168152602001908152602001600020548361105a565b60056000600760009054906101000a900473ffffffffffffffffffffffffffffffffffffffff1673ffffffffffffffffffffffffffffffffffffffff1673ffffffffffffffffffffffffffffffffffffffff16815260200190815260200160002081905550610deb6000548361105a565b60008190555060019050919050565b6000610e45600560003373ffffffffffffffffffffffffffffffffffffffff1673ffffffffffffffffffffffffffffffffffffffff168152602001908152602001600020548361105a565b600560003373ffffffffffffffffffffffffffffffffffffffff1673ffffffffffffffffffffffffffffffffffffffff16815260200190815260200160002081905550610ed1600560008573ffffffffffffffffffffffffffffffffffffffff1673ffffffffffffffffffffffffffffffffffffffff1681526020019081526020016000205483611030565b600560008573ffffffffffffffffffffffffffffffffffffffff1673ffffffffffffffffffffffffffffffffffffffff168152602001908152602001600020819055508273ffffffffffffffffffffffffffffffffffffffff163373ffffffffffffffffffffffffffffffffffffffff167fddf252ad1be2c89b69c2b068fc378daa952ba7f163c4a11628f55a4df523b3ef846040518082815260200191505060405180910390a36001905092915050565b6000600660008473ffffffffffffffffffffffffffffffffffffffff1673ffffffffffffffffffffffffffffffffffffffff16815260200190815260200160002060008373ffffffffffffffffffffffffffffffffffffffff1673ffffffffffffffffffffffffffffffffffffffff16815260200190815260200160002054905092915050565b600760009054906101000a900473ffffffffffffffffffffffffffffffffffffffff1681565b600080828401905061105084821015801561104b5750838210155b611073565b8091505092915050565b600061106883831115611073565b818303905092915050565b80151561107f57600080fd5b505600a165627a7a72305820e761f9230406cbf48fd32c80a6e92953b0d1384ff91f75ebc51fbf05f727c0a30029",
  "source": "/*\n * Mango Repository\n * Copyright (C) 2016 Alex Beregszaszi\n *\n * This program is free software: you can redistribute it and/or modify\n * it under the terms of the GNU General Public License as published by\n * the Free Software Foundation, version 3 of the License only.\n *\n * This program is distributed in the hope that it will be useful,\n * but WITHOUT ANY WARRANTY; without even the implied warranty of\n * MERCHANTABILITY or FITNESS FOR A PARTICULAR PURPOSE.  See the\n * GNU General Public License for more details.\n *\n * You should have received a copy of the GNU General Public License\n * along with this program.  If not, see <http://www.gnu.org/licenses/>.\n */\npragma solidity ^0.4.6;\n\n\nimport \"./OpenCollabToken.sol\";\nimport \"./SafeMath.sol\";\n\n\n\ncontract MangoRepo is SafeMath {\n  bool public obsolete;\n\n  string public name;\n  string public description;\n\n  // Token address\n  OpenCollabToken public token;\n\n  struct RepoParameters {\n    // Maintainer percentage of issue token reward\n    uint256 maintainerPercentage;\n    // Percentage to increase voter deposit by if voter is on winning side of vote\n    uint256 voterRewardPercentage;\n    // Percentage to decrease voter deposity by if voter is on losing side of vote\n    uint256 voterPenaltyPercentage;\n\n    // Required deposit to be a voter\n    uint256 voterDeposit;\n    // Required stake to be a contributor and open a pull request\n    uint256 contributorStake;\n    // Required stake to initiate a pull request merge\n    uint256 maintainerStake;\n    // Required stake to challenge a maintainer\n    uint256 challengerStake;   \n\n    // Length of maintainer merge review period in days\n    uint256 reviewPeriodLength; \n    // Length of voting commit period\n    uint256 votingCommitPeriodLength;\n    // Length of voting reveal period in days\n    uint256 votingRevealPeriodLength;    \n  }\n\n  // Maintainer percentage of issue token reward\n  uint256 public maintainerPercentage;\n  // Percentage to increase voter deposit by if voter is on winning side of vote\n  uint256 public voterRewardPercentage;\n  // Percentage to decrease voter deposity by if voter is on losing side of vote\n  uint256 public voterPenaltyPercentage;\n\n  // Required deposit to be a voter\n  uint256 public voterDeposit;\n  // Required stake to be a contributor and open a pull request\n  uint256 public contributorStake;\n  // Required stake to initiate a pull request merge\n  uint256 public maintainerStake;\n  // Required stake to challenge a maintainer\n  uint256 public challengerStake;\n\n  // Protocol period\n  enum Period { Review, Voting, Regular }\n  // Current protocol period\n  Period currentPeriod;\n\n  // Length of maintainer merge review period in days\n  uint256 public reviewPeriodLength;\n  // Timestamp for end of review period\n  uint256 public reviewPeriodEnd;\n  // Length of voting commit period\n  uint256 public votingCommitPeriodLength;\n  // Timestamp for end of voting commit period in days\n  uint256 public votingCommitPeriodEnd;\n  // Length of voting reveal period in days\n  uint256 public votingRevealPeriodLength;\n  // Timestamp for end of voting reveal period\n  uint256 public votingRevealPeriodEnd;  \n\n  address[] maintainerAddresses;\n  mapping (address => bool) maintainers;\n\n  string[] refKeys;\n  mapping (string => string) refs;\n\n  string[] snapshots;\n\n\n  struct Issue {\n    uint id;                                 // Issue id\n    address creator;                         // Address of issue creator\n    string hash;                             // Swarm hash of issue contents\n    uint totalStake;                         // Total amount staked to this issue\n    mapping (address => uint) stakedTokens;  // Mapping curator addresses to staked amounts for this issue\n    bool openPullRequest;                    // Is there a pull request open for this issue\n    uint pullRequestId;                      // Id for open pull request for this issue\n    bool active;                             // Is this issue active\n  }\n\n\n  struct PullRequest {\n    uint id;                                 // Pull request id\n    Issue issue;                             // Issue being resolved\n    address creator;                         // Address of pull request creator\n    address fork;                            // Contract address of repo fork\n    bool active;                             // Is this pull request active\n  }\n\n  // Represents a challenge voting round\n  struct VotingRound {\n    address maintainer;               // Address of maintainer challenged\n    address challenger;               // Address of challenger\n    uint256 uphold;                   // Number of uphold votes\n    uint256 veto;                     // Number of veto votes\n    mapping (address => Vote) votes;  // Votes casted\n    VoteValue result;                 // Result of vote\n  }\n\n  // Track all voting rounds\n  VotingRound[] votingRounds;\n\n  // Represents a vote\n  struct Vote {\n    bytes32 commit;                   // Vote commitment hash\n    VoteValue voteValue;              // Revealed vote value\n    bool commited;                    // Was the vote committed\n    bool revealed;                    // Was the vote revealed\n  }\n\n  // Values of votes\n  enum VoteValue { Uphold, Veto, None }\n\n  // Represents a voter\n  struct Voter {\n    address voterAddress;             // Address of voter\n    uint deposit;                     // Voter deposit\n    uint lastCheckIn;                 // Last voting round voter checked in\n    bool active;                 // Is the voter active\n  }\n\n  // Track registered voters\n  mapping (address => Voter) public voters;\n\n  // Track stakes for pull requests (opening, merging and challenging)\n  mapping (address => uint256) public pullRequestStakes;\n\n  Issue[] issues;\n  PullRequest[] pullRequests;\n\n  // Only maintainer can call functions with this modifier\n  modifier maintainerOnly {\n    if (!maintainers[msg.sender]) throw;\n    _;\n  }\n\n  // Checks for valid issue\n  modifier validIssue(uint id) {\n    // Check for valid issue id\n    if (id >= issues.length || id < 0) throw;\n    // Check for active issue\n    if (!issues[id].active) throw;\n    _;\n  }  \n\n  // Checks for valid pull request\n  modifier validPullRequest(uint id) {\n    // Check for valid pull request id\n    if (id >= pullRequests.length || id < 0) throw;\n    // Check for active pull request\n    if (!pullRequests[id].active) throw;\n    _;\n  }\n\n  // Only an issue creator or a maintainer can call functions with this modifier\n  modifier issuePermissions(uint id) {\n    if (issues[id].creator != msg.sender && !maintainers[msg.sender]) throw;\n    _;\n  }\n\n  // Only a pull request creator or a maintainer can call functions with this modifier\n  modifier pullRequestPermissions(uint id) {\n    if (pullRequests[id].creator != msg.sender && !maintainers[msg.sender]) throw;\n    _;\n  }\n\n  function MangoRepo(string _name, string _description, uint _maintainerPercentage, uint _voterRewardPercentage, uint _voterPenaltyPercentage,\n    uint _voterDeposit, uint _maintainerStake, uint _contributorStake, uint _challengerStake, uint _reviewPeriodLength, uint _votingCommitPeriodLength,\n    uint _votingRevealPeriodLength, uint _tokenCount) {\n\n    name = _name;\n    description = _description;\n\n    maintainers[msg.sender] = true;\n    maintainerAddresses.push(msg.sender);\n    obsolete = false;\n    token = new OpenCollabToken(address(this));\n\n    maintainerPercentage = _maintainerPercentage;\n    voterRewardPercentage = _voterRewardPercentage;\n    voterPenaltyPercentage = _voterPenaltyPercentage;\n\n    voterDeposit = _voterDeposit;\n    maintainerStake = _maintainerStake;\n    contributorStake = _contributorStake;\n    challengerStake = _challengerStake;\n\n    reviewPeriodLength = _reviewPeriodLength;\n    votingCommitPeriodLength = _votingCommitPeriodLength;\n    votingRevealPeriodLength = _votingRevealPeriodLength;\n\n    // Initial token distribution\n    token.mint(msg.sender, _tokenCount);\n  }\n\n  function refCount() constant returns (uint) {\n    return refKeys.length;\n  }\n\n  function refName(uint index) constant returns (string ref) {\n    ref = refKeys[index];\n  }\n\n  function getRef(string ref) constant returns (string hash) {\n    hash = refs[ref];\n  }\n\n  function __findRef(string ref) private returns (int) {\n    /* Horrible way to add a new key to the list */\n\n    for (var i = 0; i < refKeys.length; i++)\n      if (strEqual(refKeys[i], ref))\n        return i;\n\n    return -1;\n  }\n\n\n  function setRef(string ref, string hash) maintainerOnly {\n    if (__findRef(ref) == -1)\n      refKeys.push(ref);\n\n    refs[ref] = hash;\n  }\n\n  function deleteRef(string ref) maintainerOnly {\n    int pos = __findRef(ref);\n    if (pos != -1) {\n      // FIXME: shrink the array?\n      refKeys[uint(pos)] = \"\";\n    }\n\n    // FIXME: null? string(0)?\n    refs[ref] = \"\";\n  }\n\n  function strEqual(string a, string b) private returns (bool) {\n    return sha3(a) == sha3(b);\n  }\n\n  function snapshotCount() constant returns (uint) {\n    return snapshots.length;\n  }\n\n  function getSnapshot(uint index) constant returns (string) {\n    return snapshots[index];\n  }\n\n  function addSnapshot(string hash) maintainerOnly {\n    snapshots.push(hash);\n  }\n\n  function issueCount() constant returns (uint count) {\n    return issues.length;\n  }\n\n  function getIssue(uint id) constant returns (string hash) {\n    if (id >= issues.length || id < 0) throw;\n\n    if (bytes(issues[id].hash).length == 0) {\n      return '';\n    } else {\n      return issues[id].hash;\n    }\n  }\n\n  /**\n   * Create new issue\n   * @param hash Swarm hash of issue contents\n   */\n  function newIssue(string hash) returns (bool success) {\n    Issue memory issue;\n\n    issue.id = issues.length;\n    issue.creator = msg.sender;\n    issue.hash = hash;\n    issue.totalStake = 0;\n    issue.openPullRequest = false;\n    issue.pullRequestId = 0;\n    issue.active = true;\n\n    issues.push(issue);\n\n    return true;\n  }\n\n  function setIssue(uint id, string hash) issuePermissions(id) {\n    if (id >= issues.length || id < 0) throw;\n\n    issues[id].hash = hash;\n  }\n\n  function deleteIssue(uint id) issuePermissions(id) {\n    if (id >= issues.length || id < 0) throw;\n    if (bytes(issues[id].hash).length == 0) throw;\n\n    delete issues[id];\n  }\n\n  function pullRequestCount() constant returns (uint count) {\n    return pullRequests.length;\n  }\n\n  function getPullRequest(uint id) constant returns (address fork) {\n    if (id >= pullRequests.length || id < 0) throw;\n\n    if (pullRequests[id].fork == address(0)) {\n      return address(0);\n    } else {\n      return pullRequests[id].fork;\n    }\n  }\n\n  /**\n   * Opens pull request\n   * @param issueId Issue id\n   * @param fork Contract address for repo fork\n   */\n  function openPullRequest(uint issueId, address fork) validIssue(issueId) {\n    // Transfer tokens. This call throws if it fails\n    token.transferFrom(msg.sender, this, contributorStake);\n\n    // Update pullRequestStakes for sender\n    pullRequestStakes[msg.sender] = safeAdd(pullRequestStakes[msg.sender], contributorStake);\n\n    PullRequest memory pullRequest;\n\n    pullRequest.id = pullRequests.length;\n    pullRequest.issue = issues[issueId];\n    issues[issueId].openPullRequest = true;\n    issues[issueId].pullRequestId = pullRequest.id;\n    pullRequest.creator = msg.sender;\n    pullRequest.fork = fork;\n    pullRequest.active = true;\n\n    pullRequests.push(pullRequest);\n  }\n\n  function closePullRequest(uint id) pullRequestPermissions(id) {\n    if (id >= pullRequests.length || id < 0) throw;\n    if (pullRequests[id].fork == address(0)) throw;\n\n    delete pullRequests[id];\n  }\n\n  /*\n   * Finalize a pull request merge\n   * @param id Pull request id\n   */\n  function mergePullRequest(uint id) validPullRequest(id) maintainerOnly returns (bool success) {\n    // Check if in regular period\n    if (currentPeriod == Period.Regular) throw;\n    // If in review period check if it is over\n    if (currentPeriod == Period.Review\n        && block.timestamp < reviewPeriodEnd) {\n      throw;\n    }\n    // If in voting period check if voting reveal period is over\n    if (currentPeriod == Period.Voting\n        && block.timestamp < votingRevealPeriodEnd) {\n      throw;\n    }\n\n    var totalStake = pullRequests[id].issue.totalStake;\n\n    // Mint issue reward\n    token.mint(this, totalStake);\n\n    // Calculate rewards\n    uint256 maintainerReward = (totalStake * maintainerPercentage) / 100;\n    uint256 contributorReward = totalStake - maintainerReward;\n\n    // Update pullRequestStakes with rewards\n    pullRequestStakes[msg.sender] = safeAdd(pullRequestStakes[msg.sender], maintainerReward);\n    pullRequestStakes[pullRequests[id].creator] = safeAdd(pullRequestStakes[pullRequests[id].creator], contributorReward);\n\n    // Zero out issue pull request id\n    uint issueId = pullRequests[id].issue.id;\n    issues[issueId].openPullRequest = false;\n    issues[issueId].pullRequestId = 0;\n\n    delete pullRequests[id];\n\n    currentPeriod = Period.Regular;\n\n    return true;\n  }\n\n  function setObsolete() maintainerOnly {\n    obsolete = true;\n  }\n\n  function maintainerCount() constant returns (uint) {\n    return maintainerAddresses.length;\n  }\n\n  function __findMaintainer(address addr) private returns (int) {\n    for (var i = 0; i < maintainerAddresses.length; i++) {\n      if (maintainerAddresses[i] == addr)\n        return i;\n    }\n\n    return -1;\n  }\n\n  function getName() constant returns (string) {\n    return name;\n  }\n\n  function getDescription() constant returns (string) {\n    return description;\n  }\n\n  function getMaintainer(uint idx) constant returns (address) {\n    return maintainerAddresses[idx];\n  }\n\n  function addMaintainer(address addr) maintainerOnly {\n    if (maintainers[addr]) throw;\n\n    maintainers[addr] = true;\n    maintainerAddresses.push(addr);\n  }\n\n  function removeMaintainer(address addr) maintainerOnly {\n    if (!maintainers[addr]) throw;\n\n    maintainers[addr] = false;\n\n    int pos = __findMaintainer(addr);\n\n    if (pos != -1) {\n      maintainerAddresses[uint(pos)] = address(0);\n    }\n  }\n}\n",
  "sourcePath": "/home/mathew/workspace/opencollab/opencollab-lib/contracts/MangoRepo.sol",
  "compiler": {
    "name": "solc",
    "version": "0.4.19+commit.c4cbbb05.Emscripten.clang"
  },
  "schemaVersion": "2.0.0",
  "updatedAt": "2018-03-02T02:49:28.070Z"
}