{
  "contractName": "MangoRepo",
  "abi": [
    {
      "constant": false,
      "inputs": [
        {
          "name": "hash",
          "type": "string"
        }
      ],
      "name": "newIssue",
      "outputs": [
        {
          "name": "success",
          "type": "bool"
        }
      ],
      "payable": false,
      "stateMutability": "nonpayable",
      "type": "function"
    },
    {
      "constant": true,
      "inputs": [],
      "name": "challengerStake",
      "outputs": [
        {
          "name": "",
          "type": "uint256"
        }
      ],
      "payable": false,
      "stateMutability": "view",
      "type": "function"
    },
    {
      "constant": true,
      "inputs": [],
      "name": "snapshotCount",
      "outputs": [
        {
          "name": "",
          "type": "uint256"
        }
      ],
      "payable": false,
      "stateMutability": "view",
      "type": "function"
    },
    {
      "constant": true,
      "inputs": [],
      "name": "getName",
      "outputs": [
        {
          "name": "",
          "type": "string"
        }
      ],
      "payable": false,
      "stateMutability": "view",
      "type": "function"
    },
    {
      "constant": true,
      "inputs": [],
      "name": "getDescription",
      "outputs": [
        {
          "name": "",
          "type": "string"
        }
      ],
      "payable": false,
      "stateMutability": "view",
      "type": "function"
    },
    {
      "constant": false,
      "inputs": [
        {
          "name": "id",
          "type": "uint256"
        }
      ],
      "name": "mergePullRequest",
      "outputs": [
        {
          "name": "success",
          "type": "bool"
        }
      ],
      "payable": false,
      "stateMutability": "nonpayable",
      "type": "function"
    },
    {
      "constant": true,
      "inputs": [],
      "name": "maintainerCount",
      "outputs": [
        {
          "name": "",
          "type": "uint256"
        }
      ],
      "payable": false,
      "stateMutability": "view",
      "type": "function"
    },
    {
      "constant": true,
      "inputs": [],
      "name": "votingCommitPeriodEnd",
      "outputs": [
        {
          "name": "",
          "type": "uint256"
        }
      ],
      "payable": false,
      "stateMutability": "view",
      "type": "function"
    },
    {
      "constant": true,
      "inputs": [],
      "name": "contributorStake",
      "outputs": [
        {
          "name": "",
          "type": "uint256"
        }
      ],
      "payable": false,
      "stateMutability": "view",
      "type": "function"
    },
    {
      "constant": false,
      "inputs": [
        {
          "name": "id",
          "type": "uint256"
        }
      ],
      "name": "closePullRequest",
      "outputs": [],
      "payable": false,
      "stateMutability": "nonpayable",
      "type": "function"
    },
    {
      "constant": true,
      "inputs": [],
      "name": "obsolete",
      "outputs": [
        {
          "name": "",
          "type": "bool"
        }
      ],
      "payable": false,
      "stateMutability": "view",
      "type": "function"
    },
    {
      "constant": true,
      "inputs": [],
      "name": "votingRevealPeriodLength",
      "outputs": [
        {
          "name": "",
          "type": "uint256"
        }
      ],
      "payable": false,
      "stateMutability": "view",
      "type": "function"
    },
    {
      "constant": true,
      "inputs": [
        {
          "name": "",
          "type": "address"
        }
      ],
      "name": "pullRequestStakes",
      "outputs": [
        {
          "name": "",
          "type": "uint256"
        }
      ],
      "payable": false,
      "stateMutability": "view",
      "type": "function"
    },
    {
      "constant": true,
      "inputs": [],
      "name": "voterPenaltyPercentage",
      "outputs": [
        {
          "name": "",
          "type": "uint256"
        }
      ],
      "payable": false,
      "stateMutability": "view",
      "type": "function"
    },
    {
      "constant": true,
      "inputs": [],
      "name": "voterRewardPercentage",
      "outputs": [
        {
          "name": "",
          "type": "uint256"
        }
      ],
      "payable": false,
      "stateMutability": "view",
      "type": "function"
    },
    {
      "constant": false,
      "inputs": [
        {
          "name": "ref",
          "type": "string"
        }
      ],
      "name": "deleteRef",
      "outputs": [],
      "payable": false,
      "stateMutability": "nonpayable",
      "type": "function"
    },
    {
      "constant": false,
      "inputs": [
        {
          "name": "addr",
          "type": "address"
        }
      ],
      "name": "addMaintainer",
      "outputs": [],
      "payable": false,
      "stateMutability": "nonpayable",
      "type": "function"
    },
    {
      "constant": true,
      "inputs": [
        {
          "name": "index",
          "type": "uint256"
        }
      ],
      "name": "getSnapshot",
      "outputs": [
        {
          "name": "",
          "type": "string"
        }
      ],
      "payable": false,
      "stateMutability": "view",
      "type": "function"
    },
    {
      "constant": true,
      "inputs": [],
      "name": "refCount",
      "outputs": [
        {
          "name": "",
          "type": "uint256"
        }
      ],
      "payable": false,
      "stateMutability": "view",
      "type": "function"
    },
    {
      "constant": true,
      "inputs": [],
      "name": "votingRevealPeriodEnd",
      "outputs": [
        {
          "name": "",
          "type": "uint256"
        }
      ],
      "payable": false,
      "stateMutability": "view",
      "type": "function"
    },
    {
      "constant": false,
      "inputs": [
        {
          "name": "ref",
          "type": "string"
        },
        {
          "name": "hash",
          "type": "string"
        }
      ],
      "name": "setRef",
      "outputs": [],
      "payable": false,
      "stateMutability": "nonpayable",
      "type": "function"
    },
    {
      "constant": true,
      "inputs": [
        {
          "name": "index",
          "type": "uint256"
        }
      ],
      "name": "refName",
      "outputs": [
        {
          "name": "ref",
          "type": "string"
        }
      ],
      "payable": false,
      "stateMutability": "view",
      "type": "function"
    },
    {
      "constant": true,
      "inputs": [],
      "name": "voterDeposit",
      "outputs": [
        {
          "name": "",
          "type": "uint256"
        }
      ],
      "payable": false,
      "stateMutability": "view",
      "type": "function"
    },
    {
      "constant": true,
      "inputs": [
        {
          "name": "id",
          "type": "uint256"
        }
      ],
      "name": "getIssue",
      "outputs": [
        {
          "name": "hash",
          "type": "string"
        }
      ],
      "payable": false,
      "stateMutability": "view",
      "type": "function"
    },
    {
      "constant": true,
      "inputs": [],
      "name": "issueCount",
      "outputs": [
        {
          "name": "count",
          "type": "uint256"
        }
      ],
      "payable": false,
      "stateMutability": "view",
      "type": "function"
    },
    {
      "constant": true,
      "inputs": [
        {
          "name": "idx",
          "type": "uint256"
        }
      ],
      "name": "getMaintainer",
      "outputs": [
        {
          "name": "",
          "type": "address"
        }
      ],
      "payable": false,
      "stateMutability": "view",
      "type": "function"
    },
    {
      "constant": true,
      "inputs": [
        {
          "name": "ref",
          "type": "string"
        }
      ],
      "name": "getRef",
      "outputs": [
        {
          "name": "hash",
          "type": "string"
        }
      ],
      "payable": false,
      "stateMutability": "view",
      "type": "function"
    },
    {
      "constant": true,
      "inputs": [
        {
          "name": "",
          "type": "address"
        }
      ],
      "name": "voters",
      "outputs": [
        {
          "name": "voterAddress",
          "type": "address"
        },
        {
          "name": "deposit",
          "type": "uint256"
        },
        {
          "name": "lastCheckIn",
          "type": "uint256"
        },
        {
          "name": "active",
          "type": "bool"
        }
      ],
      "payable": false,
      "stateMutability": "view",
      "type": "function"
    },
    {
      "constant": true,
      "inputs": [],
      "name": "reviewPeriodLength",
      "outputs": [
        {
          "name": "",
          "type": "uint256"
        }
      ],
      "payable": false,
      "stateMutability": "view",
      "type": "function"
    },
    {
      "constant": false,
      "inputs": [
        {
          "name": "id",
          "type": "uint256"
        }
      ],
      "name": "deleteIssue",
      "outputs": [],
      "payable": false,
      "stateMutability": "nonpayable",
      "type": "function"
    },
    {
      "constant": false,
      "inputs": [
        {
          "name": "issueId",
          "type": "uint256"
        },
        {
          "name": "fork",
          "type": "address"
        }
      ],
      "name": "openPullRequest",
      "outputs": [],
      "payable": false,
      "stateMutability": "nonpayable",
      "type": "function"
    },
    {
      "constant": false,
      "inputs": [],
      "name": "setObsolete",
      "outputs": [],
      "payable": false,
      "stateMutability": "nonpayable",
      "type": "function"
    },
    {
      "constant": true,
      "inputs": [],
      "name": "maintainerStake",
      "outputs": [
        {
          "name": "",
          "type": "uint256"
        }
      ],
      "payable": false,
      "stateMutability": "view",
      "type": "function"
    },
    {
      "constant": true,
      "inputs": [
        {
          "name": "id",
          "type": "uint256"
        }
      ],
      "name": "getPullRequest",
      "outputs": [
        {
          "name": "fork",
          "type": "address"
        }
      ],
      "payable": false,
      "stateMutability": "view",
      "type": "function"
    },
    {
      "constant": false,
      "inputs": [
        {
          "name": "addr",
          "type": "address"
        }
      ],
      "name": "removeMaintainer",
      "outputs": [],
      "payable": false,
      "stateMutability": "nonpayable",
      "type": "function"
    },
    {
      "constant": true,
      "inputs": [],
      "name": "votingCommitPeriodLength",
      "outputs": [
        {
          "name": "",
          "type": "uint256"
        }
      ],
      "payable": false,
      "stateMutability": "view",
      "type": "function"
    },
    {
      "constant": false,
      "inputs": [
        {
          "name": "id",
          "type": "uint256"
        },
        {
          "name": "hash",
          "type": "string"
        }
      ],
      "name": "setIssue",
      "outputs": [],
      "payable": false,
      "stateMutability": "nonpayable",
      "type": "function"
    },
    {
      "constant": true,
      "inputs": [],
      "name": "maintainerPercentage",
      "outputs": [
        {
          "name": "",
          "type": "uint256"
        }
      ],
      "payable": false,
      "stateMutability": "view",
      "type": "function"
    },
    {
      "constant": true,
      "inputs": [],
      "name": "reviewPeriodEnd",
      "outputs": [
        {
          "name": "",
          "type": "uint256"
        }
      ],
      "payable": false,
      "stateMutability": "view",
      "type": "function"
    },
    {
      "constant": true,
      "inputs": [],
      "name": "token",
      "outputs": [
        {
          "name": "",
          "type": "address"
        }
      ],
      "payable": false,
      "stateMutability": "view",
      "type": "function"
    },
    {
      "constant": true,
      "inputs": [],
      "name": "pullRequestCount",
      "outputs": [
        {
          "name": "count",
          "type": "uint256"
        }
      ],
      "payable": false,
      "stateMutability": "view",
      "type": "function"
    },
    {
      "constant": false,
      "inputs": [
        {
          "name": "hash",
          "type": "string"
        }
      ],
      "name": "addSnapshot",
      "outputs": [],
      "payable": false,
      "stateMutability": "nonpayable",
      "type": "function"
    },
    {
      "inputs": [
        {
          "name": "_name",
          "type": "string"
        },
        {
          "name": "_description",
          "type": "string"
        },
        {
          "name": "_voterRewardPercentage",
          "type": "uint256"
        },
        {
          "name": "_voterPenaltyPercentage",
          "type": "uint256"
        }
      ],
      "payable": false,
      "stateMutability": "nonpayable",
      "type": "constructor"
    }
  ],
  "bytecode": "0x606060405234156200001057600080fd5b60405162004df838038062004df88339810160405280805182019190602001805182019190602001805190602001909190805190602001909190505083600190805190602001906200006492919062000205565b5082600290805190602001906200007d92919062000205565b5081600581905550806006819055506001601360003373ffffffffffffffffffffffffffffffffffffffff1673ffffffffffffffffffffffffffffffffffffffff16815260200190815260200160002060006101000a81548160ff02191690831515021790555060128054806001018281620000fa91906200028c565b9160005260206000209001600033909190916101000a81548173ffffffffffffffffffffffffffffffffffffffff021916908373ffffffffffffffffffffffffffffffffffffffff160217905550503062000154620002bb565b808273ffffffffffffffffffffffffffffffffffffffff1673ffffffffffffffffffffffffffffffffffffffff168152602001915050604051809103906000f0801515620001a157600080fd5b600360006101000a81548173ffffffffffffffffffffffffffffffffffffffff021916908373ffffffffffffffffffffffffffffffffffffffff16021790555060008060006101000a81548160ff02191690831515021790555050505050620002f4565b828054600181600116156101000203166002900490600052602060002090601f016020900481019282601f106200024857805160ff191683800117855562000279565b8280016001018555821562000279579182015b82811115620002785782518255916020019190600101906200025b565b5b509050620002889190620002cc565b5090565b815481835581811511620002b657818360005260206000209182019101620002b59190620002cc565b5b505050565b6040516112e08062003b1883390190565b620002f191905b80821115620002ed576000816000905550600101620002d3565b5090565b90565b61381480620003046000396000f300606060405260043610610204576000357c0100000000000000000000000000000000000000000000000000000000900463ffffffff168063018493e11461020957806301a5da931461027e578063098ab6a1146102a757806317d7de7c146102d05780631a0925411461035e578063214a1ce1146103ec57806331c31820146104275780633af1356914610450578063411691f5146104795780634941b363146104a257806349432044146104c55780635048a424146104f257806350e1fd7a1461051b57806350ff17a41461056857806357df03e6146105915780635ae5df8f146105ba5780636b453c1f1461061757806376f10ad01461065057806380d9eaa6146106ec57806387c9cd01146107155780638bb0faee1461073e5780638c79a24d146107de578063939cf0371461087a578063976b3113146108a357806398cf147a1461093f5780639cf6dfa0146109685780639d170c5d146109cb578063a3ec138d14610aa1578063a7b8c26d14610b33578063aa1e9e4314610b5c578063acd6c61114610b7f578063b2761b8e14610bc1578063c4ec602314610bd6578063cdcbc22f14610bff578063d8baf7cf14610c62578063e6a4afc214610c9b578063ecda30ea14610cc4578063f2bf6b8c14610d2a578063f4cf99c014610d53578063fc0c546a14610d7c578063fd19440014610dd1578063fee6d28c14610dfa575b600080fd5b341561021457600080fd5b610264600480803590602001908201803590602001908080601f01602080910402602001604051908101604052809392919081815260200183838082843782019150505050505091905050610e57565b604051808215151515815260200191505060405180910390f35b341561028957600080fd5b610291610fe2565b6040518082815260200191505060405180910390f35b34156102b257600080fd5b6102ba610fe8565b6040518082815260200191505060405180910390f35b34156102db57600080fd5b6102e3610ff5565b6040518080602001828103825283818151815260200191508051906020019080838360005b83811015610323578082015181840152602081019050610308565b50505050905090810190601f1680156103505780820380516001836020036101000a031916815260200191505b509250505060405180910390f35b341561036957600080fd5b61037161109d565b6040518080602001828103825283818151815260200191508051906020019080838360005b838110156103b1578082015181840152602081019050610396565b50505050905090810190601f1680156103de5780820380516001836020036101000a031916815260200191505b509250505060405180910390f35b34156103f757600080fd5b61040d6004808035906020019091905050611145565b604051808215151515815260200191505060405180910390f35b341561043257600080fd5b61043a61172d565b6040518082815260200191505060405180910390f35b341561045b57600080fd5b61046361173a565b6040518082815260200191505060405180910390f35b341561048457600080fd5b61048c611740565b6040518082815260200191505060405180910390f35b34156104ad57600080fd5b6104c36004808035906020019091905050611746565b005b34156104d057600080fd5b6104d86119bb565b604051808215151515815260200191505060405180910390f35b34156104fd57600080fd5b6105056119cd565b6040518082815260200191505060405180910390f35b341561052657600080fd5b610552600480803573ffffffffffffffffffffffffffffffffffffffff169060200190919050506119d3565b6040518082815260200191505060405180910390f35b341561057357600080fd5b61057b6119eb565b6040518082815260200191505060405180910390f35b341561059c57600080fd5b6105a46119f1565b6040518082815260200191505060405180910390f35b34156105c557600080fd5b610615600480803590602001908201803590602001908080601f016020809104026020016040519081016040528093929190818152602001838380828437820191505050505050919050506119f7565b005b341561062257600080fd5b61064e600480803573ffffffffffffffffffffffffffffffffffffffff16906020019091905050611b59565b005b341561065b57600080fd5b6106716004808035906020019091905050611cc6565b6040518080602001828103825283818151815260200191508051906020019080838360005b838110156106b1578082015181840152602081019050610696565b50505050905090810190601f1680156106de5780820380516001836020036101000a031916815260200191505b509250505060405180910390f35b34156106f757600080fd5b6106ff611d88565b6040518082815260200191505060405180910390f35b341561072057600080fd5b610728611d95565b6040518082815260200191505060405180910390f35b341561074957600080fd5b6107dc600480803590602001908201803590602001908080601f0160208091040260200160405190810160405280939291908181526020018383808284378201915050505050509190803590602001908201803590602001908080601f01602080910402602001604051908101604052809392919081815260200183838082843782019150505050505091905050611d9b565b005b34156107e957600080fd5b6107ff6004808035906020019091905050611ee4565b6040518080602001828103825283818151815260200191508051906020019080838360005b8381101561083f578082015181840152602081019050610824565b50505050905090810190601f16801561086c5780820380516001836020036101000a031916815260200191505b509250505060405180910390f35b341561088557600080fd5b61088d611fa6565b6040518082815260200191505060405180910390f35b34156108ae57600080fd5b6108c46004808035906020019091905050611fac565b6040518080602001828103825283818151815260200191508051906020019080838360005b838110156109045780820151818401526020810190506108e9565b50505050905090810190601f1680156109315780820380516001836020036101000a031916815260200191505b509250505060405180910390f35b341561094a57600080fd5b6109526120e8565b6040518082815260200191505060405180910390f35b341561097357600080fd5b61098960048080359060200190919050506120f5565b604051808273ffffffffffffffffffffffffffffffffffffffff1673ffffffffffffffffffffffffffffffffffffffff16815260200191505060405180910390f35b34156109d657600080fd5b610a26600480803590602001908201803590602001908080601f01602080910402602001604051908101604052809392919081815260200183838082843782019150505050505091905050612139565b6040518080602001828103825283818151815260200191508051906020019080838360005b83811015610a66578082015181840152602081019050610a4b565b50505050905090810190601f168015610a935780820380516001836020036101000a031916815260200191505b509250505060405180910390f35b3415610aac57600080fd5b610ad8600480803573ffffffffffffffffffffffffffffffffffffffff1690602001909190505061224c565b604051808573ffffffffffffffffffffffffffffffffffffffff1673ffffffffffffffffffffffffffffffffffffffff1681526020018481526020018381526020018215151515815260200194505050505060405180910390f35b3415610b3e57600080fd5b610b466122a9565b6040518082815260200191505060405180910390f35b3415610b6757600080fd5b610b7d60048080359060200190919050506122af565b005b3415610b8a57600080fd5b610bbf600480803590602001909190803573ffffffffffffffffffffffffffffffffffffffff1690602001909190505061247b565b005b3415610bcc57600080fd5b610bd4612aaf565b005b3415610be157600080fd5b610be9612b23565b6040518082815260200191505060405180910390f35b3415610c0a57600080fd5b610c206004808035906020019091905050612b29565b604051808273ffffffffffffffffffffffffffffffffffffffff1673ffffffffffffffffffffffffffffffffffffffff16815260200191505060405180910390f35b3415610c6d57600080fd5b610c99600480803573ffffffffffffffffffffffffffffffffffffffff16906020019091905050612c10565b005b3415610ca657600080fd5b610cae612dad565b6040518082815260200191505060405180910390f35b3415610ccf57600080fd5b610d28600480803590602001909190803590602001908201803590602001908080601f01602080910402602001604051908101604052809392919081815260200183838082843782019150505050505091905050612db3565b005b3415610d3557600080fd5b610d3d612edc565b6040518082815260200191505060405180910390f35b3415610d5e57600080fd5b610d66612ee2565b6040518082815260200191505060405180910390f35b3415610d8757600080fd5b610d8f612ee8565b604051808273ffffffffffffffffffffffffffffffffffffffff1673ffffffffffffffffffffffffffffffffffffffff16815260200191505060405180910390f35b3415610ddc57600080fd5b610de4612f0e565b6040518082815260200191505060405180910390f35b3415610e0557600080fd5b610e55600480803590602001908201803590602001908080601f01602080910402602001604051908101604052809392919081815260200183838082843782019150505050505091905050612f1b565b005b6000610e616132ad565b601a8054905081600001818152505033816020019073ffffffffffffffffffffffffffffffffffffffff16908173ffffffffffffffffffffffffffffffffffffffff16815250508281604001819052506000816060018181525050600081608001901515908115158152505060008160a001818152505060018160c0019015159081151581525050601a8054806001018281610efd919061330b565b916000526020600020906008020160008390919091506000820151816000015560208201518160010160006101000a81548173ffffffffffffffffffffffffffffffffffffffff021916908373ffffffffffffffffffffffffffffffffffffffff1602179055506040820151816002019080519060200190610f8092919061333d565b506060820151816003015560808201518160050160006101000a81548160ff02191690831515021790555060a0820151816006015560c08201518160070160006101000a81548160ff0219169083151502179055505050506001915050919050565b600a5481565b6000601680549050905090565b610ffd6133bd565b60018054600181600116156101000203166002900480601f0160208091040260200160405190810160405280929190818152602001828054600181600116156101000203166002900480156110935780601f1061106857610100808354040283529160200191611093565b820191906000526020600020905b81548152906001019060200180831161107657829003601f168201915b5050505050905090565b6110a56133bd565b60028054600181600116156101000203166002900480601f01602080910402602001604051908101604052809291908181526020018280546001816001161561010002031660029004801561113b5780601f106111105761010080835404028352916020019161113b565b820191906000526020600020905b81548152906001019060200180831161111e57829003601f168201915b5050505050905090565b600080600080600085601b80549050811015806111625750600081105b1561116c57600080fd5b601b8181548110151561117b57fe5b90600052602060002090600b0201600a0160149054906101000a900460ff1615156111a557600080fd5b601360003373ffffffffffffffffffffffffffffffffffffffff1673ffffffffffffffffffffffffffffffffffffffff16815260200190815260200160002060009054906101000a900460ff1615156111fd57600080fd5b60028081111561120957fe5b600b60009054906101000a900460ff16600281111561122457fe5b141561122f57600080fd5b6000600281111561123c57fe5b600b60009054906101000a900460ff16600281111561125757fe5b1480156112655750600d5442105b1561126f57600080fd5b6001600281111561127c57fe5b600b60009054906101000a900460ff16600281111561129757fe5b1480156112a5575060115442105b156112af57600080fd5b601b878154811015156112be57fe5b90600052602060002090600b0201600101600301549450600360009054906101000a900473ffffffffffffffffffffffffffffffffffffffff1673ffffffffffffffffffffffffffffffffffffffff166340c10f1930876000604051602001526040518363ffffffff167c0100000000000000000000000000000000000000000000000000000000028152600401808373ffffffffffffffffffffffffffffffffffffffff1673ffffffffffffffffffffffffffffffffffffffff16815260200182815260200192505050602060405180830381600087803b15156113a257600080fd5b6102c65a03f115156113b357600080fd5b5050506040518051905050606460045486028115156113ce57fe5b049350838503925061141f601960003373ffffffffffffffffffffffffffffffffffffffff1673ffffffffffffffffffffffffffffffffffffffff1681526020019081526020016000205485612fb2565b601960003373ffffffffffffffffffffffffffffffffffffffff1673ffffffffffffffffffffffffffffffffffffffff168152602001908152602001600020819055506114eb60196000601b8a81548110151561147857fe5b90600052602060002090600b020160090160009054906101000a900473ffffffffffffffffffffffffffffffffffffffff1673ffffffffffffffffffffffffffffffffffffffff1673ffffffffffffffffffffffffffffffffffffffff1681526020019081526020016000205484612fb2565b60196000601b8a8154811015156114fe57fe5b90600052602060002090600b020160090160009054906101000a900473ffffffffffffffffffffffffffffffffffffffff1673ffffffffffffffffffffffffffffffffffffffff1673ffffffffffffffffffffffffffffffffffffffff16815260200190815260200160002081905550601b8781548110151561157d57fe5b90600052602060002090600b02016001016000015491506000601a838154811015156115a557fe5b906000526020600020906008020160050160006101000a81548160ff0219169083151502179055506000601a838154811015156115de57fe5b906000526020600020906008020160060181905550601b8781548110151561160257fe5b90600052602060002090600b0201600080820160009055600182016000808201600090556001820160006101000a81549073ffffffffffffffffffffffffffffffffffffffff021916905560028201600061165d91906133d1565b60038201600090556005820160006101000a81549060ff021916905560068201600090556007820160006101000a81549060ff021916905550506009820160006101000a81549073ffffffffffffffffffffffffffffffffffffffff0219169055600a820160006101000a81549073ffffffffffffffffffffffffffffffffffffffff0219169055600a820160146101000a81549060ff021916905550506002600b60006101000a81548160ff0219169083600281111561171a57fe5b0217905550600195505050505050919050565b6000601280549050905090565b600f5481565b60085481565b803373ffffffffffffffffffffffffffffffffffffffff16601b8281548110151561176d57fe5b90600052602060002090600b020160090160009054906101000a900473ffffffffffffffffffffffffffffffffffffffff1673ffffffffffffffffffffffffffffffffffffffff161415801561180d5750601360003373ffffffffffffffffffffffffffffffffffffffff1673ffffffffffffffffffffffffffffffffffffffff16815260200190815260200160002060009054906101000a900460ff16155b1561181757600080fd5b601b805490508210158061182b5750600082105b1561183557600080fd5b600073ffffffffffffffffffffffffffffffffffffffff16601b8381548110151561185c57fe5b90600052602060002090600b0201600a0160009054906101000a900473ffffffffffffffffffffffffffffffffffffffff1673ffffffffffffffffffffffffffffffffffffffff1614156118af57600080fd5b601b828154811015156118be57fe5b90600052602060002090600b0201600080820160009055600182016000808201600090556001820160006101000a81549073ffffffffffffffffffffffffffffffffffffffff021916905560028201600061191991906133d1565b60038201600090556005820160006101000a81549060ff021916905560068201600090556007820160006101000a81549060ff021916905550506009820160006101000a81549073ffffffffffffffffffffffffffffffffffffffff0219169055600a820160006101000a81549073ffffffffffffffffffffffffffffffffffffffff0219169055600a820160146101000a81549060ff021916905550505050565b6000809054906101000a900460ff1681565b60105481565b60196020528060005260406000206000915090505481565b60065481565b60055481565b6000601360003373ffffffffffffffffffffffffffffffffffffffff1673ffffffffffffffffffffffffffffffffffffffff16815260200190815260200160002060009054906101000a900460ff161515611a5157600080fd5b611a5a82612fdc565b90507fffffffffffffffffffffffffffffffffffffffffffffffffffffffffffffffff81141515611ac5576020604051908101604052806000815250601482815481101515611aa557fe5b90600052602060002090019080519060200190611ac3929190613419565b505b60206040519081016040528060008152506015836040518082805190602001908083835b602083101515611b0e5780518252602082019150602081019050602083039250611ae9565b6001836020036101000a03801982511681845116808217855250505050505090500191505090815260200160405180910390209080519060200190611b54929190613419565b505050565b601360003373ffffffffffffffffffffffffffffffffffffffff1673ffffffffffffffffffffffffffffffffffffffff16815260200190815260200160002060009054906101000a900460ff161515611bb157600080fd5b601360008273ffffffffffffffffffffffffffffffffffffffff1673ffffffffffffffffffffffffffffffffffffffff16815260200190815260200160002060009054906101000a900460ff1615611c0857600080fd5b6001601360008373ffffffffffffffffffffffffffffffffffffffff1673ffffffffffffffffffffffffffffffffffffffff16815260200190815260200160002060006101000a81548160ff02191690831515021790555060128054806001018281611c749190613499565b9160005260206000209001600083909190916101000a81548173ffffffffffffffffffffffffffffffffffffffff021916908373ffffffffffffffffffffffffffffffffffffffff1602179055505050565b611cce6133bd565b601682815481101515611cdd57fe5b90600052602060002090018054600181600116156101000203166002900480601f016020809104026020016040519081016040528092919081815260200182805460018160011615610100020316600290048015611d7c5780601f10611d5157610100808354040283529160200191611d7c565b820191906000526020600020905b815481529060010190602001808311611d5f57829003601f168201915b50505050509050919050565b6000601480549050905090565b60115481565b601360003373ffffffffffffffffffffffffffffffffffffffff1673ffffffffffffffffffffffffffffffffffffffff16815260200190815260200160002060009054906101000a900460ff161515611df357600080fd5b7fffffffffffffffffffffffffffffffffffffffffffffffffffffffffffffffff611e1d83612fdc565b1415611e605760148054806001018281611e3791906134c5565b916000526020600020900160008490919091509080519060200190611e5d929190613419565b50505b806015836040518082805190602001908083835b602083101515611e995780518252602082019150602081019050602083039250611e74565b6001836020036101000a03801982511681845116808217855250505050505090500191505090815260200160405180910390209080519060200190611edf929190613419565b505050565b611eec6133bd565b601482815481101515611efb57fe5b90600052602060002090018054600181600116156101000203166002900480601f016020809104026020016040519081016040528092919081815260200182805460018160011615610100020316600290048015611f9a5780601f10611f6f57610100808354040283529160200191611f9a565b820191906000526020600020905b815481529060010190602001808311611f7d57829003601f168201915b50505050509050919050565b60075481565b611fb46133bd565b601a8054905082101580611fc85750600082105b15611fd257600080fd5b6000601a83815481101515611fe357fe5b9060005260206000209060080201600201805460018160011615610100020316600290049050141561202757602060405190810160405280600081525090506120e3565b601a8281548110151561203657fe5b90600052602060002090600802016002018054600181600116156101000203166002900480601f0160208091040260200160405190810160405280929190818152602001828054600181600116156101000203166002900480156120db5780601f106120b0576101008083540402835291602001916120db565b820191906000526020600020905b8154815290600101906020018083116120be57829003601f168201915b505050505090505b919050565b6000601a80549050905090565b600060128281548110151561210657fe5b906000526020600020900160009054906101000a900473ffffffffffffffffffffffffffffffffffffffff169050919050565b6121416133bd565b6015826040518082805190602001908083835b6020831015156121795780518252602082019150602081019050602083039250612154565b6001836020036101000a03801982511681845116808217855250505050505090500191505090815260200160405180910390208054600181600116156101000203166002900480601f0160208091040260200160405190810160405280929190818152602001828054600181600116156101000203166002900480156122405780601f1061221557610100808354040283529160200191612240565b820191906000526020600020905b81548152906001019060200180831161222357829003601f168201915b50505050509050919050565b60186020528060005260406000206000915090508060000160009054906101000a900473ffffffffffffffffffffffffffffffffffffffff16908060010154908060020154908060030160009054906101000a900460ff16905084565b600c5481565b803373ffffffffffffffffffffffffffffffffffffffff16601a828154811015156122d657fe5b906000526020600020906008020160010160009054906101000a900473ffffffffffffffffffffffffffffffffffffffff1673ffffffffffffffffffffffffffffffffffffffff16141580156123765750601360003373ffffffffffffffffffffffffffffffffffffffff1673ffffffffffffffffffffffffffffffffffffffff16815260200190815260200160002060009054906101000a900460ff16155b1561238057600080fd5b601a80549050821015806123945750600082105b1561239e57600080fd5b6000601a838154811015156123af57fe5b906000526020600020906008020160020180546001816001161561010002031660029004905014156123e057600080fd5b601a828154811015156123ef57fe5b90600052602060002090600802016000808201600090556001820160006101000a81549073ffffffffffffffffffffffffffffffffffffffff021916905560028201600061243d91906133d1565b60038201600090556005820160006101000a81549060ff021916905560068201600090556007820160006101000a81549060ff021916905550505050565b6124836134f1565b82601a80549050811015806124985750600081105b156124a257600080fd5b601a818154811015156124b157fe5b906000526020600020906008020160070160009054906101000a900460ff1615156124db57600080fd5b600360009054906101000a900473ffffffffffffffffffffffffffffffffffffffff1673ffffffffffffffffffffffffffffffffffffffff166323b872dd33306008546000604051602001526040518463ffffffff167c0100000000000000000000000000000000000000000000000000000000028152600401808473ffffffffffffffffffffffffffffffffffffffff1673ffffffffffffffffffffffffffffffffffffffff1681526020018373ffffffffffffffffffffffffffffffffffffffff1673ffffffffffffffffffffffffffffffffffffffff1681526020018281526020019350505050602060405180830381600087803b15156125de57600080fd5b6102c65a03f115156125ef57600080fd5b5050506040518051905050612645601960003373ffffffffffffffffffffffffffffffffffffffff1673ffffffffffffffffffffffffffffffffffffffff16815260200190815260200160002054600854612fb2565b601960003373ffffffffffffffffffffffffffffffffffffffff1673ffffffffffffffffffffffffffffffffffffffff16815260200190815260200160002081905550601b80549050826000018181525050601a848154811015156126a657fe5b906000526020600020906008020160e06040519081016040529081600082015481526020016001820160009054906101000a900473ffffffffffffffffffffffffffffffffffffffff1673ffffffffffffffffffffffffffffffffffffffff1673ffffffffffffffffffffffffffffffffffffffff168152602001600282018054600181600116156101000203166002900480601f0160208091040260200160405190810160405280929190818152602001828054600181600116156101000203166002900480156127b95780601f1061278e576101008083540402835291602001916127b9565b820191906000526020600020905b81548152906001019060200180831161279c57829003601f168201915b50505050508152602001600382015481526020016005820160009054906101000a900460ff16151515158152602001600682015481526020016007820160009054906101000a900460ff16151515158152505082602001819052506001601a8581548110151561282557fe5b906000526020600020906008020160050160006101000a81548160ff0219169083151502179055508160000151601a8581548110151561286157fe5b90600052602060002090600802016006018190555033826040019073ffffffffffffffffffffffffffffffffffffffff16908173ffffffffffffffffffffffffffffffffffffffff168152505082826060019073ffffffffffffffffffffffffffffffffffffffff16908173ffffffffffffffffffffffffffffffffffffffff16815250506001826080019015159081151581525050601b805480600101828161290b9190613556565b91600052602060002090600b02016000849091909150600082015181600001556020820151816001016000820151816000015560208201518160010160006101000a81548173ffffffffffffffffffffffffffffffffffffffff021916908373ffffffffffffffffffffffffffffffffffffffff16021790555060408201518160020190805190602001906129a192919061333d565b506060820151816003015560808201518160050160006101000a81548160ff02191690831515021790555060a0820151816006015560c08201518160070160006101000a81548160ff021916908315150217905550505060408201518160090160006101000a81548173ffffffffffffffffffffffffffffffffffffffff021916908373ffffffffffffffffffffffffffffffffffffffff160217905550606082015181600a0160006101000a81548173ffffffffffffffffffffffffffffffffffffffff021916908373ffffffffffffffffffffffffffffffffffffffff160217905550608082015181600a0160146101000a81548160ff02191690831515021790555050505050505050565b601360003373ffffffffffffffffffffffffffffffffffffffff1673ffffffffffffffffffffffffffffffffffffffff16815260200190815260200160002060009054906101000a900460ff161515612b0757600080fd5b60016000806101000a81548160ff021916908315150217905550565b60095481565b6000601b8054905082101580612b3f5750600082105b15612b4957600080fd5b600073ffffffffffffffffffffffffffffffffffffffff16601b83815481101515612b7057fe5b90600052602060002090600b0201600a0160009054906101000a900473ffffffffffffffffffffffffffffffffffffffff1673ffffffffffffffffffffffffffffffffffffffff161415612bc75760009050612c0b565b601b82815481101515612bd657fe5b90600052602060002090600b0201600a0160009054906101000a900473ffffffffffffffffffffffffffffffffffffffff1690505b919050565b6000601360003373ffffffffffffffffffffffffffffffffffffffff1673ffffffffffffffffffffffffffffffffffffffff16815260200190815260200160002060009054906101000a900460ff161515612c6a57600080fd5b601360008373ffffffffffffffffffffffffffffffffffffffff1673ffffffffffffffffffffffffffffffffffffffff16815260200190815260200160002060009054906101000a900460ff161515612cc257600080fd5b6000601360008473ffffffffffffffffffffffffffffffffffffffff1673ffffffffffffffffffffffffffffffffffffffff16815260200190815260200160002060006101000a81548160ff021916908315150217905550612d23826130fa565b90507fffffffffffffffffffffffffffffffffffffffffffffffffffffffffffffffff81141515612da9576000601282815481101515612d5f57fe5b906000526020600020900160006101000a81548173ffffffffffffffffffffffffffffffffffffffff021916908373ffffffffffffffffffffffffffffffffffffffff1602179055505b5050565b600e5481565b813373ffffffffffffffffffffffffffffffffffffffff16601a82815481101515612dda57fe5b906000526020600020906008020160010160009054906101000a900473ffffffffffffffffffffffffffffffffffffffff1673ffffffffffffffffffffffffffffffffffffffff1614158015612e7a5750601360003373ffffffffffffffffffffffffffffffffffffffff1673ffffffffffffffffffffffffffffffffffffffff16815260200190815260200160002060009054906101000a900460ff16155b15612e8457600080fd5b601a8054905083101580612e985750600083105b15612ea257600080fd5b81601a84815481101515612eb257fe5b90600052602060002090600802016002019080519060200190612ed6929190613419565b50505050565b60045481565b600d5481565b600360009054906101000a900473ffffffffffffffffffffffffffffffffffffffff1681565b6000601b80549050905090565b601360003373ffffffffffffffffffffffffffffffffffffffff1673ffffffffffffffffffffffffffffffffffffffff16815260200190815260200160002060009054906101000a900460ff161515612f7357600080fd5b60168054806001018281612f8791906134c5565b916000526020600020900160008390919091509080519060200190612fad929190613419565b505050565b6000808284019050612fd2848210158015612fcd5750838210155b6131c5565b8091505092915050565b600080600090505b6014805490508160ff1610156130d0576130b360148260ff1681548110151561300957fe5b90600052602060002090018054600181600116156101000203166002900480601f0160208091040260200160405190810160405280929190818152602001828054600181600116156101000203166002900480156130a85780601f1061307d576101008083540402835291602001916130a8565b820191906000526020600020905b81548152906001019060200180831161308b57829003601f168201915b5050505050846131d4565b156130c3578060ff1691506130f4565b8080600101915050612fe4565b7fffffffffffffffffffffffffffffffffffffffffffffffffffffffffffffffff91505b50919050565b600080600090505b6012805490508160ff16101561319b578273ffffffffffffffffffffffffffffffffffffffff1660128260ff1681548110151561313b57fe5b906000526020600020900160009054906101000a900473ffffffffffffffffffffffffffffffffffffffff1673ffffffffffffffffffffffffffffffffffffffff16141561318e578060ff1691506131bf565b8080600101915050613102565b7fffffffffffffffffffffffffffffffffffffffffffffffffffffffffffffffff91505b50919050565b8015156131d157600080fd5b50565b6000816040518082805190602001908083835b60208310151561320c57805182526020820191506020810190506020830392506131e7565b6001836020036101000a038019825116818451168082178552505050505050905001915050604051809103902060001916836040518082805190602001908083835b602083101515613273578051825260208201915060208101905060208303925061324e565b6001836020036101000a03801982511681845116808217855250505050505090500191505060405180910390206000191614905092915050565b60e06040519081016040528060008152602001600073ffffffffffffffffffffffffffffffffffffffff1681526020016132e5613588565b815260200160008152602001600015158152602001600081526020016000151581525090565b81548183558181151161333857600802816008028360005260206000209182019101613337919061359c565b5b505050565b828054600181600116156101000203166002900490600052602060002090601f016020900481019282601f1061337e57805160ff19168380011785556133ac565b828001600101855582156133ac579182015b828111156133ab578251825591602001919060010190613390565b5b5090506133b99190613632565b5090565b602060405190810160405280600081525090565b50805460018160011615610100020316600290046000825580601f106133f75750613416565b601f0160209004906000526020600020908101906134159190613632565b5b50565b828054600181600116156101000203166002900490600052602060002090601f016020900481019282601f1061345a57805160ff1916838001178555613488565b82800160010185558215613488579182015b8281111561348757825182559160200191906001019061346c565b5b5090506134959190613632565b5090565b8154818355818115116134c0578183600052602060002091820191016134bf9190613632565b5b505050565b8154818355818115116134ec578183600052602060002091820191016134eb9190613657565b5b505050565b610160604051908101604052806000815260200161350d613683565b8152602001600073ffffffffffffffffffffffffffffffffffffffff168152602001600073ffffffffffffffffffffffffffffffffffffffff1681526020016000151581525090565b81548183558181151161358357600b0281600b02836000526020600020918201910161358291906136e1565b5b505050565b602060405190810160405280600081525090565b61362f91905b8082111561362b576000808201600090556001820160006101000a81549073ffffffffffffffffffffffffffffffffffffffff02191690556002820160006135ea91906133d1565b60038201600090556005820160006101000a81549060ff021916905560068201600090556007820160006101000a81549060ff0219169055506008016135a2565b5090565b90565b61365491905b80821115613650576000816000905550600101613638565b5090565b90565b61368091905b8082111561367c576000818161367391906133d1565b5060010161365d565b5090565b90565b60e06040519081016040528060008152602001600073ffffffffffffffffffffffffffffffffffffffff1681526020016136bb613588565b815260200160008152602001600015158152602001600081526020016000151581525090565b6137e591905b808211156137e157600080820160009055600182016000808201600090556001820160006101000a81549073ffffffffffffffffffffffffffffffffffffffff021916905560028201600061373c91906133d1565b60038201600090556005820160006101000a81549060ff021916905560068201600090556007820160006101000a81549060ff021916905550506009820160006101000a81549073ffffffffffffffffffffffffffffffffffffffff0219169055600a820160006101000a81549073ffffffffffffffffffffffffffffffffffffffff0219169055600a820160146101000a81549060ff021916905550600b016136e7565b5090565b905600a165627a7a72305820df71cf35e648287f3619b48ab50bf9a5c60710b260f0e8c71d15cec908d8b88d002960606040526040805190810160405280600581526020017f4552433230000000000000000000000000000000000000000000000000000000815250600190805190602001906200005192919062000173565b506040805190810160405280600f81526020017f4f70656e436f6c6c6162546f6b656e0000000000000000000000000000000000815250600290805190602001906200009f92919062000173565b506040805190810160405280600381526020017f4f4354000000000000000000000000000000000000000000000000000000000081525060039080519060200190620000ed92919062000173565b5060126004556a115eec47f6cf7e3500000060085534156200010e57600080fd5b604051602080620012e08339810160405280805190602001909190505080600760006101000a81548173ffffffffffffffffffffffffffffffffffffffff021916908373ffffffffffffffffffffffffffffffffffffffff1602179055505062000222565b828054600181600116156101000203166002900490600052602060002090601f016020900481019282601f10620001b657805160ff1916838001178555620001e7565b82800160010185558215620001e7579182015b82811115620001e6578251825591602001919060010190620001c9565b5b509050620001f69190620001fa565b5090565b6200021f91905b808211156200021b57600081600090555060010162000201565b5090565b90565b6110ae80620002326000396000f3006060604052600436106100d0576000357c0100000000000000000000000000000000000000000000000000000000900463ffffffff16806306fdde03146100d5578063095ea7b31461016357806318160ddd146101bd57806323b872dd146101e6578063313ce5671461025f57806340c10f19146102885780635a3b7e42146102e257806370a08231146103705780638f770ad0146103bd57806395d89b41146103e65780639d11877014610474578063a9059cbb146104af578063dd62ed3e14610509578063eb6db26114610575575b600080fd5b34156100e057600080fd5b6100e86105ca565b6040518080602001828103825283818151815260200191508051906020019080838360005b8381101561012857808201518184015260208101905061010d565b50505050905090810190601f1680156101555780820380516001836020036101000a031916815260200191505b509250505060405180910390f35b341561016e57600080fd5b6101a3600480803573ffffffffffffffffffffffffffffffffffffffff16906020019091908035906020019091905050610668565b604051808215151515815260200191505060405180910390f35b34156101c857600080fd5b6101d061075a565b6040518082815260200191505060405180910390f35b34156101f157600080fd5b610245600480803573ffffffffffffffffffffffffffffffffffffffff1690602001909190803573ffffffffffffffffffffffffffffffffffffffff16906020019091908035906020019091905050610760565b604051808215151515815260200191505060405180910390f35b341561026a57600080fd5b6102726109f5565b6040518082815260200191505060405180910390f35b341561029357600080fd5b6102c8600480803573ffffffffffffffffffffffffffffffffffffffff169060200190919080359060200190919050506109fb565b604051808215151515815260200191505060405180910390f35b34156102ed57600080fd5b6102f5610b14565b6040518080602001828103825283818151815260200191508051906020019080838360005b8381101561033557808201518184015260208101905061031a565b50505050905090810190601f1680156103625780820380516001836020036101000a031916815260200191505b509250505060405180910390f35b341561037b57600080fd5b6103a7600480803573ffffffffffffffffffffffffffffffffffffffff16906020019091905050610bb2565b6040518082815260200191505060405180910390f35b34156103c857600080fd5b6103d0610bfb565b6040518082815260200191505060405180910390f35b34156103f157600080fd5b6103f9610c01565b6040518080602001828103825283818151815260200191508051906020019080838360005b8381101561043957808201518184015260208101905061041e565b50505050905090810190601f1680156104665780820380516001836020036101000a031916815260200191505b509250505060405180910390f35b341561047f57600080fd5b6104956004808035906020019091905050610c9f565b604051808215151515815260200191505060405180910390f35b34156104ba57600080fd5b6104ef600480803573ffffffffffffffffffffffffffffffffffffffff16906020019091908035906020019091905050610dfa565b604051808215151515815260200191505060405180910390f35b341561051457600080fd5b61055f600480803573ffffffffffffffffffffffffffffffffffffffff1690602001909190803573ffffffffffffffffffffffffffffffffffffffff16906020019091905050610f83565b6040518082815260200191505060405180910390f35b341561058057600080fd5b61058861100a565b604051808273ffffffffffffffffffffffffffffffffffffffff1673ffffffffffffffffffffffffffffffffffffffff16815260200191505060405180910390f35b60028054600181600116156101000203166002900480601f0160208091040260200160405190810160405280929190818152602001828054600181600116156101000203166002900480156106605780601f1061063557610100808354040283529160200191610660565b820191906000526020600020905b81548152906001019060200180831161064357829003601f168201915b505050505081565b600081600660003373ffffffffffffffffffffffffffffffffffffffff1673ffffffffffffffffffffffffffffffffffffffff16815260200190815260200160002060008573ffffffffffffffffffffffffffffffffffffffff1673ffffffffffffffffffffffffffffffffffffffff168152602001908152602001600020819055508273ffffffffffffffffffffffffffffffffffffffff163373ffffffffffffffffffffffffffffffffffffffff167f8c5be1e5ebec7d5bd14f71427d1e84f3dd0314c0f7b2291e5b200ac8c7c3b925846040518082815260200191505060405180910390a36001905092915050565b60005481565b600080600660008673ffffffffffffffffffffffffffffffffffffffff1673ffffffffffffffffffffffffffffffffffffffff16815260200190815260200160002060003373ffffffffffffffffffffffffffffffffffffffff1673ffffffffffffffffffffffffffffffffffffffff16815260200190815260200160002054905061082b600560008673ffffffffffffffffffffffffffffffffffffffff1673ffffffffffffffffffffffffffffffffffffffff1681526020019081526020016000205484611030565b600560008673ffffffffffffffffffffffffffffffffffffffff1673ffffffffffffffffffffffffffffffffffffffff168152602001908152602001600020819055506108b7600560008773ffffffffffffffffffffffffffffffffffffffff1673ffffffffffffffffffffffffffffffffffffffff168152602001908152602001600020548461105a565b600560008773ffffffffffffffffffffffffffffffffffffffff1673ffffffffffffffffffffffffffffffffffffffff16815260200190815260200160002081905550610904818461105a565b600660008773ffffffffffffffffffffffffffffffffffffffff1673ffffffffffffffffffffffffffffffffffffffff16815260200190815260200160002060003373ffffffffffffffffffffffffffffffffffffffff1673ffffffffffffffffffffffffffffffffffffffff168152602001908152602001600020819055508373ffffffffffffffffffffffffffffffffffffffff168573ffffffffffffffffffffffffffffffffffffffff167fddf252ad1be2c89b69c2b068fc378daa952ba7f163c4a11628f55a4df523b3ef856040518082815260200191505060405180910390a360019150509392505050565b60045481565b6000600760009054906101000a900473ffffffffffffffffffffffffffffffffffffffff1673ffffffffffffffffffffffffffffffffffffffff163373ffffffffffffffffffffffffffffffffffffffff16141515610a5957600080fd5b60085482600054011115610a6c57600080fd5b610ab5600560008573ffffffffffffffffffffffffffffffffffffffff1673ffffffffffffffffffffffffffffffffffffffff1681526020019081526020016000205483611030565b600560008573ffffffffffffffffffffffffffffffffffffffff1673ffffffffffffffffffffffffffffffffffffffff16815260200190815260200160002081905550610b0460005483611030565b6000819055506001905092915050565b60018054600181600116156101000203166002900480601f016020809104026020016040519081016040528092919081815260200182805460018160011615610100020316600290048015610baa5780601f10610b7f57610100808354040283529160200191610baa565b820191906000526020600020905b815481529060010190602001808311610b8d57829003601f168201915b505050505081565b6000600560008373ffffffffffffffffffffffffffffffffffffffff1673ffffffffffffffffffffffffffffffffffffffff168152602001908152602001600020549050919050565b60085481565b60038054600181600116156101000203166002900480601f016020809104026020016040519081016040528092919081815260200182805460018160011615610100020316600290048015610c975780601f10610c6c57610100808354040283529160200191610c97565b820191906000526020600020905b815481529060010190602001808311610c7a57829003601f168201915b505050505081565b6000600760009054906101000a900473ffffffffffffffffffffffffffffffffffffffff1673ffffffffffffffffffffffffffffffffffffffff163373ffffffffffffffffffffffffffffffffffffffff16141515610cfd57600080fd5b600082600054031015610d0f57600080fd5b610d7a60056000600760009054906101000a900473ffffffffffffffffffffffffffffffffffffffff1673ffffffffffffffffffffffffffffffffffffffff1673ffffffffffffffffffffffffffffffffffffffff168152602001908152602001600020548361105a565b60056000600760009054906101000a900473ffffffffffffffffffffffffffffffffffffffff1673ffffffffffffffffffffffffffffffffffffffff1673ffffffffffffffffffffffffffffffffffffffff16815260200190815260200160002081905550610deb6000548361105a565b60008190555060019050919050565b6000610e45600560003373ffffffffffffffffffffffffffffffffffffffff1673ffffffffffffffffffffffffffffffffffffffff168152602001908152602001600020548361105a565b600560003373ffffffffffffffffffffffffffffffffffffffff1673ffffffffffffffffffffffffffffffffffffffff16815260200190815260200160002081905550610ed1600560008573ffffffffffffffffffffffffffffffffffffffff1673ffffffffffffffffffffffffffffffffffffffff1681526020019081526020016000205483611030565b600560008573ffffffffffffffffffffffffffffffffffffffff1673ffffffffffffffffffffffffffffffffffffffff168152602001908152602001600020819055508273ffffffffffffffffffffffffffffffffffffffff163373ffffffffffffffffffffffffffffffffffffffff167fddf252ad1be2c89b69c2b068fc378daa952ba7f163c4a11628f55a4df523b3ef846040518082815260200191505060405180910390a36001905092915050565b6000600660008473ffffffffffffffffffffffffffffffffffffffff1673ffffffffffffffffffffffffffffffffffffffff16815260200190815260200160002060008373ffffffffffffffffffffffffffffffffffffffff1673ffffffffffffffffffffffffffffffffffffffff16815260200190815260200160002054905092915050565b600760009054906101000a900473ffffffffffffffffffffffffffffffffffffffff1681565b600080828401905061105084821015801561104b5750838210155b611073565b8091505092915050565b600061106883831115611073565b818303905092915050565b80151561107f57600080fd5b505600a165627a7a723058202e36b566b2b6f8e8aea40d0f0a03c3bb7784ae23b5050502a8e52101a369baed0029",
  "source": "/*\n * Mango Repository\n * Copyright (C) 2016 Alex Beregszaszi\n *\n * This program is free software: you can redistribute it and/or modify\n * it under the terms of the GNU General Public License as published by\n * the Free Software Foundation, version 3 of the License only.\n *\n * This program is distributed in the hope that it will be useful,\n * but WITHOUT ANY WARRANTY; without even the implied warranty of\n * MERCHANTABILITY or FITNESS FOR A PARTICULAR PURPOSE.  See the\n * GNU General Public License for more details.\n *\n * You should have received a copy of the GNU General Public License\n * along with this program.  If not, see <http://www.gnu.org/licenses/>.\n */\npragma solidity ^0.4.6;\n\n\nimport \"./OpenCollabToken.sol\";\nimport \"./SafeMath.sol\";\n\n\ncontract MangoRepo is SafeMath {\n  bool public obsolete;\n\n  string name;\n  string description;\n\n  // Token address\n  OpenCollabToken public token;\n\n  // Maintainer percentage of issue token reward\n  uint256 public maintainerPercentage;\n  // Percentage to increase voter deposit by if voter is on winning side of vote\n  uint256 public voterRewardPercentage;\n  // Percentage to decrease voter deposity by if voter is on losing side of vote\n  uint256 public voterPenaltyPercentage;\n\n  // Required deposit to be a voter\n  uint256 public voterDeposit;\n  // Required stake to be a contributor and open a pull request\n  uint256 public contributorStake;\n  // Required stake to initiate a pull request merge\n  uint256 public maintainerStake;\n  // Required stake to challenge a maintainer\n  uint256 public challengerStake;\n\n  // Protocol period\n  enum Period { Review, Voting, Regular }\n  // Current protocol period\n  Period currentPeriod;\n\n  // Length of maintainer merge review period in days\n  uint256 public reviewPeriodLength;\n  // Timestamp for end of review period\n  uint256 public reviewPeriodEnd;\n  // Length of voting commit period\n  uint256 public votingCommitPeriodLength;\n  // Timestamp for end of voting commit period in days\n  uint256 public votingCommitPeriodEnd;\n  // Length of voting reveal period in days\n  uint256 public votingRevealPeriodLength;\n  // Timestamp for end of voting reveal period\n  uint256 public votingRevealPeriodEnd;  \n\n  address[] maintainerAddresses;\n  mapping (address => bool) maintainers;\n\n  string[] refKeys;\n  mapping (string => string) refs;\n\n  string[] snapshots;\n\n  struct Issue {\n    uint id;                                 // Issue id\n    address creator;                         // Address of issue creator\n    string hash;                             // Swarm hash of issue contents\n    uint totalStake;                         // Total amount staked to this issue\n    mapping (address => uint) stakedTokens;  // Mapping curator addresses to staked amounts for this issue\n    bool openPullRequest;                    // Is there a pull request open for this issue\n    uint pullRequestId;                      // Id for open pull request for this issue\n    bool active;                             // Is this issue active\n  }\n\n\n  struct PullRequest {\n    uint id;                                 // Pull request id\n    Issue issue;                             // Issue being resolved\n    address creator;                         // Address of pull request creator\n    address fork;                            // Contract address of repo fork\n    bool active;                             // Is this pull request active\n  }\n\n  // Represents a challenge voting round\n  struct VotingRound {\n    address maintainer;               // Address of maintainer challenged\n    address challenger;               // Address of challenger\n    uint256 uphold;                   // Number of uphold votes\n    uint256 veto;                     // Number of veto votes\n    mapping (address => Vote) votes;  // Votes casted\n    VoteValue result;                 // Result of vote\n  }\n\n  // Track all voting rounds\n  VotingRound[] votingRounds;\n\n  // Represents a vote\n  struct Vote {\n    bytes32 commit;                   // Vote commitment hash\n    VoteValue voteValue;              // Revealed vote value\n    bool commited;                    // Was the vote committed\n    bool revealed;                    // Was the vote revealed\n  }\n\n  // Values of votes\n  enum VoteValue { Uphold, Veto, None }\n\n  // Represents a voter\n  struct Voter {\n    address voterAddress;             // Address of voter\n    uint deposit;                     // Voter deposit\n    uint lastCheckIn;                 // Last voting round voter checked in\n    bool active;                 // Is the voter active\n  }\n\n  // Track registered voters\n  mapping (address => Voter) public voters;\n\n  // Track stakes for pull requests (opening, merging and challenging)\n  mapping (address => uint256) public pullRequestStakes;\n\n  Issue[] issues;\n  PullRequest[] pullRequests;\n\n  modifier maintainerOnly {\n    if (!maintainers[msg.sender]) throw;\n    _;\n  }\n\n  // Checks for valid issue\n  modifier validIssue(uint id) {\n    // Check for valid issue id\n    if (id >= issues.length || id < 0) throw;\n    // Check for active issue\n    if (!issues[id].active) throw;\n    _;\n  }  \n\n  // Checks for valid pull request\n  modifier validPullRequest(uint id) {\n    // Check for valid pull request id\n    if (id >= pullRequests.length || id < 0) throw;\n    // Check for active pull request\n    if (!pullRequests[id].active) throw;\n    _;\n  }\n\n  modifier issuePermissions(uint id) {\n    if (issues[id].creator != msg.sender && !maintainers[msg.sender]) throw;\n    _;\n  }\n\n  modifier pullRequestPermissions(uint id) {\n    if (pullRequests[id].creator != msg.sender && !maintainers[msg.sender]) throw;\n    _;\n  }\n\n  function MangoRepo(string _name, string _description, uint _voterRewardPercentage, uint _voterPenaltyPercentage) {\n    name = _name;\n    description = _description;\n    voterRewardPercentage = _voterRewardPercentage;\n    voterPenaltyPercentage = _voterPenaltyPercentage;\n    maintainers[msg.sender] = true;\n    maintainerAddresses.push(msg.sender);\n    token = new OpenCollabToken(address(this));\n    obsolete = false;\n  }\n\n  function refCount() constant returns (uint) {\n    return refKeys.length;\n  }\n\n  function refName(uint index) constant returns (string ref) {\n    ref = refKeys[index];\n  }\n\n  function getRef(string ref) constant returns (string hash) {\n    hash = refs[ref];\n  }\n\n  function __findRef(string ref) private returns (int) {\n    /* Horrible way to add a new key to the list */\n\n    for (var i = 0; i < refKeys.length; i++)\n      if (strEqual(refKeys[i], ref))\n        return i;\n\n    return -1;\n  }\n\n\n  function setRef(string ref, string hash) maintainerOnly {\n    if (__findRef(ref) == -1)\n      refKeys.push(ref);\n\n    refs[ref] = hash;\n  }\n\n  function deleteRef(string ref) maintainerOnly {\n    int pos = __findRef(ref);\n    if (pos != -1) {\n      // FIXME: shrink the array?\n      refKeys[uint(pos)] = \"\";\n    }\n\n    // FIXME: null? string(0)?\n    refs[ref] = \"\";\n  }\n\n  function strEqual(string a, string b) private returns (bool) {\n    return sha3(a) == sha3(b);\n  }\n\n  function snapshotCount() constant returns (uint) {\n    return snapshots.length;\n  }\n\n  function getSnapshot(uint index) constant returns (string) {\n    return snapshots[index];\n  }\n\n  function addSnapshot(string hash) maintainerOnly {\n    snapshots.push(hash);\n  }\n\n  function issueCount() constant returns (uint count) {\n    return issues.length;\n  }\n\n  function getIssue(uint id) constant returns (string hash) {\n    if (id >= issues.length || id < 0) throw;\n\n    if (bytes(issues[id].hash).length == 0) {\n      return '';\n    } else {\n      return issues[id].hash;\n    }\n  }\n\n  /**\n   * Create new issue\n   * @param hash Swarm hash of issue contents\n   */\n  function newIssue(string hash) returns (bool success) {\n    Issue memory issue;\n\n    issue.id = issues.length;\n    issue.creator = msg.sender;\n    issue.hash = hash;\n    issue.totalStake = 0;\n    issue.openPullRequest = false;\n    issue.pullRequestId = 0;\n    issue.active = true;\n\n    issues.push(issue);\n\n    return true;\n  }\n\n  function setIssue(uint id, string hash) issuePermissions(id) {\n    if (id >= issues.length || id < 0) throw;\n\n    issues[id].hash = hash;\n  }\n\n  function deleteIssue(uint id) issuePermissions(id) {\n    if (id >= issues.length || id < 0) throw;\n    if (bytes(issues[id].hash).length == 0) throw;\n\n    delete issues[id];\n  }\n\n  function pullRequestCount() constant returns (uint count) {\n    return pullRequests.length;\n  }\n\n  function getPullRequest(uint id) constant returns (address fork) {\n    if (id >= pullRequests.length || id < 0) throw;\n\n    if (pullRequests[id].fork == address(0)) {\n      return address(0);\n    } else {\n      return pullRequests[id].fork;\n    }\n  }\n\n  /**\n   * Opens pull request\n   * @param issueId Issue id\n   * @param fork Contract address for repo fork\n   */\n  function openPullRequest(uint issueId, address fork) validIssue(issueId) {\n    // Transfer tokens. This call throws if it fails\n    token.transferFrom(msg.sender, this, contributorStake);\n\n    // Update pullRequestStakes for sender\n    pullRequestStakes[msg.sender] = safeAdd(pullRequestStakes[msg.sender], contributorStake);\n\n    PullRequest memory pullRequest;\n\n    pullRequest.id = pullRequests.length;\n    pullRequest.issue = issues[issueId];\n    issues[issueId].openPullRequest = true;\n    issues[issueId].pullRequestId = pullRequest.id;\n    pullRequest.creator = msg.sender;\n    pullRequest.fork = fork;\n    pullRequest.active = true;\n\n    pullRequests.push(pullRequest);\n  }\n\n  function closePullRequest(uint id) pullRequestPermissions(id) {\n    if (id >= pullRequests.length || id < 0) throw;\n    if (pullRequests[id].fork == address(0)) throw;\n\n    delete pullRequests[id];\n  }\n\n  /*\n   * Finalize a pull request merge\n   * @param id Pull request id\n   */\n  function mergePullRequest(uint id) validPullRequest(id) maintainerOnly returns (bool success) {\n    // Check if in regular period\n    if (currentPeriod == Period.Regular) throw;\n    // If in review period check if it is over\n    if (currentPeriod == Period.Review\n        && block.timestamp < reviewPeriodEnd) {\n      throw;\n    }\n    // If in voting period check if voting reveal period is over\n    if (currentPeriod == Period.Voting\n        && block.timestamp < votingRevealPeriodEnd) {\n      throw;\n    }\n\n    var totalStake = pullRequests[id].issue.totalStake;\n\n    // Mint issue reward\n    token.mint(this, totalStake);\n\n    // Calculate rewards\n    uint256 maintainerReward = (totalStake * maintainerPercentage) / 100;\n    uint256 contributorReward = totalStake - maintainerReward;\n\n    // Update pullRequestStakes with rewards\n    pullRequestStakes[msg.sender] = safeAdd(pullRequestStakes[msg.sender], maintainerReward);\n    pullRequestStakes[pullRequests[id].creator] = safeAdd(pullRequestStakes[pullRequests[id].creator], contributorReward);\n\n    // Zero out issue pull request id\n    uint issueId = pullRequests[id].issue.id;\n    issues[issueId].openPullRequest = false;\n    issues[issueId].pullRequestId = 0;\n\n    delete pullRequests[id];\n\n    currentPeriod = Period.Regular;\n\n    return true;\n  }\n\n  function setObsolete() maintainerOnly {\n    obsolete = true;\n  }\n\n  function maintainerCount() constant returns (uint) {\n    return maintainerAddresses.length;\n  }\n\n  function __findMaintainer(address addr) private returns (int) {\n    for (var i = 0; i < maintainerAddresses.length; i++) {\n      if (maintainerAddresses[i] == addr)\n        return i;\n    }\n\n    return -1;\n  }\n\n  function getName() constant returns (string) {\n    return name;\n  }\n\n  function getDescription() constant returns (string) {\n    return description;\n  }\n\n  function getMaintainer(uint idx) constant returns (address) {\n    return maintainerAddresses[idx];\n  }\n\n  function addMaintainer(address addr) maintainerOnly {\n    if (maintainers[addr]) throw;\n\n    maintainers[addr] = true;\n    maintainerAddresses.push(addr);\n  }\n\n  function removeMaintainer(address addr) maintainerOnly {\n    if (!maintainers[addr]) throw;\n\n    maintainers[addr] = false;\n\n    int pos = __findMaintainer(addr);\n\n    if (pos != -1) {\n      maintainerAddresses[uint(pos)] = address(0);\n    }\n  }\n}\n",
  "sourcePath": "/home/mathew/workspace/opencollab-lib/contracts/MangoRepo.sol",
  "compiler": {
    "name": "solc",
    "version": "0.4.18+commit.9cf6e910.Emscripten.clang"
  },
  "schemaVersion": "1.0.1",
  "updatedAt": "2018-02-17T19:44:36.814Z"
}