{
  "contractName": "MangoRepo",
  "abi": [
    {
      "constant": true,
      "inputs": [],
      "name": "challengerStake",
      "outputs": [
        {
          "name": "",
          "type": "uint256"
        }
      ],
      "payable": false,
      "stateMutability": "view",
      "type": "function"
    },
    {
      "constant": true,
      "inputs": [],
      "name": "name",
      "outputs": [
        {
          "name": "",
          "type": "string"
        }
      ],
      "payable": false,
      "stateMutability": "view",
      "type": "function"
    },
    {
      "constant": true,
      "inputs": [],
      "name": "votingCommitPeriodEnd",
      "outputs": [
        {
          "name": "",
          "type": "uint256"
        }
      ],
      "payable": false,
      "stateMutability": "view",
      "type": "function"
    },
    {
      "constant": true,
      "inputs": [],
      "name": "contributorStake",
      "outputs": [
        {
          "name": "",
          "type": "uint256"
        }
      ],
      "payable": false,
      "stateMutability": "view",
      "type": "function"
    },
    {
      "constant": true,
      "inputs": [],
      "name": "obsolete",
      "outputs": [
        {
          "name": "",
          "type": "bool"
        }
      ],
      "payable": false,
      "stateMutability": "view",
      "type": "function"
    },
    {
      "constant": true,
      "inputs": [],
      "name": "votingRevealPeriodLength",
      "outputs": [
        {
          "name": "",
          "type": "uint256"
        }
      ],
      "payable": false,
      "stateMutability": "view",
      "type": "function"
    },
    {
      "constant": true,
      "inputs": [
        {
          "name": "",
          "type": "address"
        }
      ],
      "name": "pullRequestStakes",
      "outputs": [
        {
          "name": "",
          "type": "uint256"
        }
      ],
      "payable": false,
      "stateMutability": "view",
      "type": "function"
    },
    {
      "constant": true,
      "inputs": [],
      "name": "voterPenaltyPercentage",
      "outputs": [
        {
          "name": "",
          "type": "uint256"
        }
      ],
      "payable": false,
      "stateMutability": "view",
      "type": "function"
    },
    {
      "constant": true,
      "inputs": [],
      "name": "voterRewardPercentage",
      "outputs": [
        {
          "name": "",
          "type": "uint256"
        }
      ],
      "payable": false,
      "stateMutability": "view",
      "type": "function"
    },
    {
      "constant": true,
      "inputs": [],
      "name": "description",
      "outputs": [
        {
          "name": "",
          "type": "string"
        }
      ],
      "payable": false,
      "stateMutability": "view",
      "type": "function"
    },
    {
      "constant": true,
      "inputs": [],
      "name": "votingRevealPeriodEnd",
      "outputs": [
        {
          "name": "",
          "type": "uint256"
        }
      ],
      "payable": false,
      "stateMutability": "view",
      "type": "function"
    },
    {
      "constant": true,
      "inputs": [],
      "name": "voterDeposit",
      "outputs": [
        {
          "name": "",
          "type": "uint256"
        }
      ],
      "payable": false,
      "stateMutability": "view",
      "type": "function"
    },
    {
      "constant": true,
      "inputs": [
        {
          "name": "",
          "type": "address"
        }
      ],
      "name": "voters",
      "outputs": [
        {
          "name": "voterAddress",
          "type": "address"
        },
        {
          "name": "deposit",
          "type": "uint256"
        },
        {
          "name": "lastCheckIn",
          "type": "uint256"
        },
        {
          "name": "active",
          "type": "bool"
        }
      ],
      "payable": false,
      "stateMutability": "view",
      "type": "function"
    },
    {
      "constant": true,
      "inputs": [],
      "name": "reviewPeriodLength",
      "outputs": [
        {
          "name": "",
          "type": "uint256"
        }
      ],
      "payable": false,
      "stateMutability": "view",
      "type": "function"
    },
    {
      "constant": true,
      "inputs": [],
      "name": "maintainerStake",
      "outputs": [
        {
          "name": "",
          "type": "uint256"
        }
      ],
      "payable": false,
      "stateMutability": "view",
      "type": "function"
    },
    {
      "constant": true,
      "inputs": [],
      "name": "votingCommitPeriodLength",
      "outputs": [
        {
          "name": "",
          "type": "uint256"
        }
      ],
      "payable": false,
      "stateMutability": "view",
      "type": "function"
    },
    {
      "constant": true,
      "inputs": [],
      "name": "maintainerPercentage",
      "outputs": [
        {
          "name": "",
          "type": "uint256"
        }
      ],
      "payable": false,
      "stateMutability": "view",
      "type": "function"
    },
    {
      "constant": true,
      "inputs": [],
      "name": "reviewPeriodEnd",
      "outputs": [
        {
          "name": "",
          "type": "uint256"
        }
      ],
      "payable": false,
      "stateMutability": "view",
      "type": "function"
    },
    {
      "constant": true,
      "inputs": [],
      "name": "token",
      "outputs": [
        {
          "name": "",
          "type": "address"
        }
      ],
      "payable": false,
      "stateMutability": "view",
      "type": "function"
    },
    {
      "inputs": [
        {
          "name": "_name",
          "type": "string"
        },
        {
          "name": "_description",
          "type": "string"
        },
        {
          "name": "_maintainerPercentage",
          "type": "uint256"
        },
        {
          "name": "_voterRewardPercentage",
          "type": "uint256"
        },
        {
          "name": "_voterPenaltyPercentage",
          "type": "uint256"
        },
        {
          "name": "_voterDeposit",
          "type": "uint256"
        },
        {
          "name": "_maintainerStake",
          "type": "uint256"
        },
        {
          "name": "_contributorStake",
          "type": "uint256"
        },
        {
          "name": "_challengerStake",
          "type": "uint256"
        },
        {
          "name": "_reviewPeriodLength",
          "type": "uint256"
        },
        {
          "name": "_votingCommitPeriodLength",
          "type": "uint256"
        },
        {
          "name": "_votingRevealPeriodLength",
          "type": "uint256"
        },
        {
          "name": "_tokenCount",
          "type": "uint256"
        }
      ],
      "payable": false,
      "stateMutability": "nonpayable",
      "type": "constructor"
    },
    {
      "constant": true,
      "inputs": [],
      "name": "refCount",
      "outputs": [
        {
          "name": "",
          "type": "uint256"
        }
      ],
      "payable": false,
      "stateMutability": "view",
      "type": "function"
    },
    {
      "constant": true,
      "inputs": [
        {
          "name": "index",
          "type": "uint256"
        }
      ],
      "name": "refName",
      "outputs": [
        {
          "name": "ref",
          "type": "string"
        }
      ],
      "payable": false,
      "stateMutability": "view",
      "type": "function"
    },
    {
      "constant": true,
      "inputs": [
        {
          "name": "ref",
          "type": "string"
        }
      ],
      "name": "getRef",
      "outputs": [
        {
          "name": "hash",
          "type": "string"
        }
      ],
      "payable": false,
      "stateMutability": "view",
      "type": "function"
    },
    {
      "constant": false,
      "inputs": [
        {
          "name": "ref",
          "type": "string"
        },
        {
          "name": "hash",
          "type": "string"
        }
      ],
      "name": "setRef",
      "outputs": [],
      "payable": false,
      "stateMutability": "nonpayable",
      "type": "function"
    },
    {
      "constant": false,
      "inputs": [
        {
          "name": "ref",
          "type": "string"
        }
      ],
      "name": "deleteRef",
      "outputs": [],
      "payable": false,
      "stateMutability": "nonpayable",
      "type": "function"
    },
    {
      "constant": true,
      "inputs": [],
      "name": "snapshotCount",
      "outputs": [
        {
          "name": "",
          "type": "uint256"
        }
      ],
      "payable": false,
      "stateMutability": "view",
      "type": "function"
    },
    {
      "constant": true,
      "inputs": [
        {
          "name": "index",
          "type": "uint256"
        }
      ],
      "name": "getSnapshot",
      "outputs": [
        {
          "name": "",
          "type": "string"
        }
      ],
      "payable": false,
      "stateMutability": "view",
      "type": "function"
    },
    {
      "constant": false,
      "inputs": [
        {
          "name": "hash",
          "type": "string"
        }
      ],
      "name": "addSnapshot",
      "outputs": [],
      "payable": false,
      "stateMutability": "nonpayable",
      "type": "function"
    },
    {
      "constant": true,
      "inputs": [],
      "name": "issueCount",
      "outputs": [
        {
          "name": "count",
          "type": "uint256"
        }
      ],
      "payable": false,
      "stateMutability": "view",
      "type": "function"
    },
    {
      "constant": true,
      "inputs": [
        {
          "name": "_id",
          "type": "uint256"
        }
      ],
      "name": "getIssue",
      "outputs": [
        {
          "name": "name",
          "type": "string"
        },
        {
          "name": "description",
          "type": "string"
        },
        {
          "name": "hash",
          "type": "string"
        },
        {
          "name": "totalStake",
          "type": "uint256"
        },
        {
          "name": "openPullRequest",
          "type": "bool"
        },
        {
          "name": "pullRequestId",
          "type": "uint256"
        },
        {
          "name": "active",
          "type": "bool"
        }
      ],
      "payable": false,
      "stateMutability": "view",
      "type": "function"
    },
    {
      "constant": false,
      "inputs": [
        {
          "name": "_name",
          "type": "string"
        },
        {
          "name": "_description",
          "type": "string"
        },
        {
          "name": "hash",
          "type": "string"
        },
        {
          "name": "_isActive",
          "type": "bool"
        }
      ],
      "name": "newIssue",
      "outputs": [
        {
          "name": "success",
          "type": "bool"
        }
      ],
      "payable": false,
      "stateMutability": "nonpayable",
      "type": "function"
    },
    {
      "constant": false,
      "inputs": [
        {
          "name": "id",
          "type": "uint256"
        },
        {
          "name": "hash",
          "type": "string"
        }
      ],
      "name": "setIssue",
      "outputs": [],
      "payable": false,
      "stateMutability": "nonpayable",
      "type": "function"
    },
    {
      "constant": false,
      "inputs": [
        {
          "name": "id",
          "type": "uint256"
        }
      ],
      "name": "closeIssue",
      "outputs": [],
      "payable": false,
      "stateMutability": "nonpayable",
      "type": "function"
    },
    {
      "constant": false,
      "inputs": [
        {
          "name": "id",
          "type": "uint256"
        },
        {
          "name": "stake",
          "type": "uint256"
        }
      ],
      "name": "stakeIssue",
      "outputs": [
        {
          "name": "success",
          "type": "bool"
        }
      ],
      "payable": false,
      "stateMutability": "nonpayable",
      "type": "function"
    },
    {
      "constant": false,
      "inputs": [
        {
          "name": "id",
          "type": "uint256"
        }
      ],
      "name": "withdrawIssueStake",
      "outputs": [
        {
          "name": "success",
          "type": "bool"
        }
      ],
      "payable": false,
      "stateMutability": "nonpayable",
      "type": "function"
    },
    {
      "constant": true,
      "inputs": [],
      "name": "pullRequestCount",
      "outputs": [
        {
          "name": "count",
          "type": "uint256"
        }
      ],
      "payable": false,
      "stateMutability": "view",
      "type": "function"
    },
    {
      "constant": true,
      "inputs": [
        {
          "name": "id",
          "type": "uint256"
        }
      ],
      "name": "getPullRequest",
      "outputs": [
        {
          "name": "fork",
          "type": "address"
        }
      ],
      "payable": false,
      "stateMutability": "view",
      "type": "function"
    },
    {
      "constant": false,
      "inputs": [
        {
          "name": "issueId",
          "type": "uint256"
        },
        {
          "name": "fork",
          "type": "address"
        }
      ],
      "name": "openPullRequest",
      "outputs": [],
      "payable": false,
      "stateMutability": "nonpayable",
      "type": "function"
    },
    {
      "constant": false,
      "inputs": [
        {
          "name": "id",
          "type": "uint256"
        }
      ],
      "name": "closePullRequest",
      "outputs": [],
      "payable": false,
      "stateMutability": "nonpayable",
      "type": "function"
    },
    {
      "constant": false,
      "inputs": [
        {
          "name": "id",
          "type": "uint256"
        }
      ],
      "name": "mergePullRequest",
      "outputs": [
        {
          "name": "success",
          "type": "bool"
        }
      ],
      "payable": false,
      "stateMutability": "nonpayable",
      "type": "function"
    },
    {
      "constant": false,
      "inputs": [],
      "name": "setObsolete",
      "outputs": [],
      "payable": false,
      "stateMutability": "nonpayable",
      "type": "function"
    },
    {
      "constant": true,
      "inputs": [],
      "name": "maintainerCount",
      "outputs": [
        {
          "name": "",
          "type": "uint256"
        }
      ],
      "payable": false,
      "stateMutability": "view",
      "type": "function"
    },
    {
      "constant": true,
      "inputs": [],
      "name": "getName",
      "outputs": [
        {
          "name": "",
          "type": "string"
        }
      ],
      "payable": false,
      "stateMutability": "view",
      "type": "function"
    },
    {
      "constant": true,
      "inputs": [],
      "name": "getDescription",
      "outputs": [
        {
          "name": "",
          "type": "string"
        }
      ],
      "payable": false,
      "stateMutability": "view",
      "type": "function"
    },
    {
      "constant": true,
      "inputs": [
        {
          "name": "idx",
          "type": "uint256"
        }
      ],
      "name": "getMaintainer",
      "outputs": [
        {
          "name": "",
          "type": "address"
        }
      ],
      "payable": false,
      "stateMutability": "view",
      "type": "function"
    },
    {
      "constant": false,
      "inputs": [
        {
          "name": "addr",
          "type": "address"
        }
      ],
      "name": "addMaintainer",
      "outputs": [],
      "payable": false,
      "stateMutability": "nonpayable",
      "type": "function"
    },
    {
      "constant": false,
      "inputs": [
        {
          "name": "addr",
          "type": "address"
        }
      ],
      "name": "removeMaintainer",
      "outputs": [],
      "payable": false,
      "stateMutability": "nonpayable",
      "type": "function"
    },
    {
      "constant": true,
      "inputs": [
        {
          "name": "owner",
          "type": "address"
        }
      ],
      "name": "balanceOf",
      "outputs": [
        {
          "name": "balance",
          "type": "uint256"
        }
      ],
      "payable": false,
      "stateMutability": "view",
      "type": "function"
    }
  ],
  "bytecode": "0x606060405234156200001057600080fd5b60405162005dcf38038062005dcf833981016040528080518201919060200180518201919060200180519060200190919080519060200190919080519060200190919080519060200190919080519060200190919080519060200190919080519060200190919080519060200190919080519060200190919080519060200190919080519060200190919050508c60019080519060200190620000b592919062000382565b508b60029080519060200190620000ce92919062000382565b506001601360003373ffffffffffffffffffffffffffffffffffffffff1673ffffffffffffffffffffffffffffffffffffffff16815260200190815260200160002060006101000a81548160ff021916908315150217905550601280548060010182816200013d919062000409565b9160005260206000209001600033909190916101000a81548173ffffffffffffffffffffffffffffffffffffffff021916908373ffffffffffffffffffffffffffffffffffffffff1602179055505060008060006101000a81548160ff02191690831515021790555030620001b162000438565b808273ffffffffffffffffffffffffffffffffffffffff1673ffffffffffffffffffffffffffffffffffffffff168152602001915050604051809103906000f0801515620001fe57600080fd5b600360006101000a81548173ffffffffffffffffffffffffffffffffffffffff021916908373ffffffffffffffffffffffffffffffffffffffff1602179055508a600481905550896005819055508860068190555087600781905550866009819055508560088190555084600a8190555083600c8190555082600e8190555081601081905550600360009054906101000a900473ffffffffffffffffffffffffffffffffffffffff1673ffffffffffffffffffffffffffffffffffffffff166340c10f1933836000604051602001526040518363ffffffff167c0100000000000000000000000000000000000000000000000000000000028152600401808373ffffffffffffffffffffffffffffffffffffffff1673ffffffffffffffffffffffffffffffffffffffff16815260200182815260200192505050602060405180830381600087803b15156200035257600080fd5b6102c65a03f115156200036457600080fd5b50505060405180519050505050505050505050505050505062000471565b828054600181600116156101000203166002900490600052602060002090601f016020900481019282601f10620003c557805160ff1916838001178555620003f6565b82800160010185558215620003f6579182015b82811115620003f5578251825591602001919060010190620003d8565b5b50905062000405919062000449565b5090565b815481835581811511620004335781836000526020600020918201910162000432919062000449565b5b505050565b6040516112568062004b7983390190565b6200046e91905b808211156200046a57600081600090555060010162000450565b5090565b90565b6146f880620004816000396000f30060606040526004361061023b576000357c0100000000000000000000000000000000000000000000000000000000900463ffffffff16806301a5da931461024057806303c30f0f1461026957806306fdde03146102ad578063098ab6a11461033b57806317d7de7c146103645780631a092541146103f2578063214a1ce114610480578063288c8f62146104bb57806331c31820146104de5780633af1356914610507578063411691f5146105305780634941b36314610559578063494320441461057c5780635048a424146105a957806350e1fd7a146105d257806350ff17a41461061f57806357df03e6146106485780635ae5df8f146106715780636b453c1f146106ce57806370a082311461070757806371573f8d146107545780637284e4161461078f57806376f10ad01461081d57806380d9eaa6146108b957806387c9cd01146108e25780638bb0faee1461090b5780638c79a24d146109ab578063939cf03714610a47578063976b311314610a7057806398cf147a14610c085780639cf6dfa014610c315780639d170c5d14610c94578063a3ec138d14610d6a578063a7b8c26d14610dfc578063acd6c61114610e25578063b2761b8e14610e67578063c4ec602314610e7c578063cdcbc22f14610ea5578063d8baf7cf14610f08578063e6a4afc214610f41578063ecda30ea14610f6a578063f2bf6b8c14610fd0578063f4cf99c014610ff9578063f95b130f14611022578063fc0c546a14611128578063fd1944001461117d578063fee6d28c146111a6575b600080fd5b341561024b57600080fd5b610253611203565b6040518082815260200191505060405180910390f35b341561027457600080fd5b6102936004808035906020019091908035906020019091905050611209565b604051808215151515815260200191505060405180910390f35b34156102b857600080fd5b6102c06114a1565b6040518080602001828103825283818151815260200191508051906020019080838360005b838110156103005780820151818401526020810190506102e5565b50505050905090810190601f16801561032d5780820380516001836020036101000a031916815260200191505b509250505060405180910390f35b341561034657600080fd5b61034e61153f565b6040518082815260200191505060405180910390f35b341561036f57600080fd5b61037761154c565b6040518080602001828103825283818151815260200191508051906020019080838360005b838110156103b757808201518184015260208101905061039c565b50505050905090810190601f1680156103e45780820380516001836020036101000a031916815260200191505b509250505060405180910390f35b34156103fd57600080fd5b6104056115f4565b6040518080602001828103825283818151815260200191508051906020019080838360005b8381101561044557808201518184015260208101905061042a565b50505050905090810190601f1680156104725780820380516001836020036101000a031916815260200191505b509250505060405180910390f35b341561048b57600080fd5b6104a1600480803590602001909190505061169c565b604051808215151515815260200191505060405180910390f35b34156104c657600080fd5b6104dc6004808035906020019091905050611ca4565b005b34156104e957600080fd5b6104f1611e0b565b6040518082815260200191505060405180910390f35b341561051257600080fd5b61051a611e18565b6040518082815260200191505060405180910390f35b341561053b57600080fd5b610543611e1e565b6040518082815260200191505060405180910390f35b341561056457600080fd5b61057a6004808035906020019091905050611e24565b005b341561058757600080fd5b61058f6120b9565b604051808215151515815260200191505060405180910390f35b34156105b457600080fd5b6105bc6120cb565b6040518082815260200191505060405180910390f35b34156105dd57600080fd5b610609600480803573ffffffffffffffffffffffffffffffffffffffff169060200190919050506120d1565b6040518082815260200191505060405180910390f35b341561062a57600080fd5b6106326120e9565b6040518082815260200191505060405180910390f35b341561065357600080fd5b61065b6120ef565b6040518082815260200191505060405180910390f35b341561067c57600080fd5b6106cc600480803590602001908201803590602001908080601f016020809104026020016040519081016040528093929190818152602001838380828437820191505050505050919050506120f5565b005b34156106d957600080fd5b610705600480803573ffffffffffffffffffffffffffffffffffffffff16906020019091905050612257565b005b341561071257600080fd5b61073e600480803573ffffffffffffffffffffffffffffffffffffffff169060200190919050506123c4565b6040518082815260200191505060405180910390f35b341561075f57600080fd5b61077560048080359060200190919050506124ad565b604051808215151515815260200191505060405180910390f35b341561079a57600080fd5b6107a261271c565b6040518080602001828103825283818151815260200191508051906020019080838360005b838110156107e25780820151818401526020810190506107c7565b50505050905090810190601f16801561080f5780820380516001836020036101000a031916815260200191505b509250505060405180910390f35b341561082857600080fd5b61083e60048080359060200190919050506127ba565b6040518080602001828103825283818151815260200191508051906020019080838360005b8381101561087e578082015181840152602081019050610863565b50505050905090810190601f1680156108ab5780820380516001836020036101000a031916815260200191505b509250505060405180910390f35b34156108c457600080fd5b6108cc61287c565b6040518082815260200191505060405180910390f35b34156108ed57600080fd5b6108f5612889565b6040518082815260200191505060405180910390f35b341561091657600080fd5b6109a9600480803590602001908201803590602001908080601f0160208091040260200160405190810160405280939291908181526020018383808284378201915050505050509190803590602001908201803590602001908080601f0160208091040260200160405190810160405280939291908181526020018383808284378201915050505050509190505061288f565b005b34156109b657600080fd5b6109cc60048080359060200190919050506129d8565b6040518080602001828103825283818151815260200191508051906020019080838360005b83811015610a0c5780820151818401526020810190506109f1565b50505050905090810190601f168015610a395780820380516001836020036101000a031916815260200191505b509250505060405180910390f35b3415610a5257600080fd5b610a5a612a9a565b6040518082815260200191505060405180910390f35b3415610a7b57600080fd5b610a916004808035906020019091905050612aa0565b60405180806020018060200180602001888152602001871515151581526020018681526020018515151515815260200184810384528b818151815260200191508051906020019080838360005b83811015610af9578082015181840152602081019050610ade565b50505050905090810190601f168015610b265780820380516001836020036101000a031916815260200191505b5084810383528a818151815260200191508051906020019080838360005b83811015610b5f578082015181840152602081019050610b44565b50505050905090810190601f168015610b8c5780820380516001836020036101000a031916815260200191505b50848103825289818151815260200191508051906020019080838360005b83811015610bc5578082015181840152602081019050610baa565b50505050905090810190601f168015610bf25780820380516001836020036101000a031916815260200191505b509a505050505050505050505060405180910390f35b3415610c1357600080fd5b610c1b612dc7565b6040518082815260200191505060405180910390f35b3415610c3c57600080fd5b610c526004808035906020019091905050612dd4565b604051808273ffffffffffffffffffffffffffffffffffffffff1673ffffffffffffffffffffffffffffffffffffffff16815260200191505060405180910390f35b3415610c9f57600080fd5b610cef600480803590602001908201803590602001908080601f01602080910402602001604051908101604052809392919081815260200183838082843782019150505050505091905050612e18565b6040518080602001828103825283818151815260200191508051906020019080838360005b83811015610d2f578082015181840152602081019050610d14565b50505050905090810190601f168015610d5c5780820380516001836020036101000a031916815260200191505b509250505060405180910390f35b3415610d7557600080fd5b610da1600480803573ffffffffffffffffffffffffffffffffffffffff16906020019091905050612f2b565b604051808573ffffffffffffffffffffffffffffffffffffffff1673ffffffffffffffffffffffffffffffffffffffff1681526020018481526020018381526020018215151515815260200194505050505060405180910390f35b3415610e0757600080fd5b610e0f612f88565b6040518082815260200191505060405180910390f35b3415610e3057600080fd5b610e65600480803590602001909190803573ffffffffffffffffffffffffffffffffffffffff16906020019091905050612f8e565b005b3415610e7257600080fd5b610e7a613742565b005b3415610e8757600080fd5b610e8f6137b6565b6040518082815260200191505060405180910390f35b3415610eb057600080fd5b610ec660048080359060200190919050506137bc565b604051808273ffffffffffffffffffffffffffffffffffffffff1673ffffffffffffffffffffffffffffffffffffffff16815260200191505060405180910390f35b3415610f1357600080fd5b610f3f600480803573ffffffffffffffffffffffffffffffffffffffff169060200190919050506138a3565b005b3415610f4c57600080fd5b610f54613a40565b6040518082815260200191505060405180910390f35b3415610f7557600080fd5b610fce600480803590602001909190803590602001908201803590602001908080601f01602080910402602001604051908101604052809392919081815260200183838082843782019150505050505091905050613a46565b005b3415610fdb57600080fd5b610fe3613b6f565b6040518082815260200191505060405180910390f35b341561100457600080fd5b61100c613b75565b6040518082815260200191505060405180910390f35b341561102d57600080fd5b61110e600480803590602001908201803590602001908080601f0160208091040260200160405190810160405280939291908181526020018383808284378201915050505050509190803590602001908201803590602001908080601f0160208091040260200160405190810160405280939291908181526020018383808284378201915050505050509190803590602001908201803590602001908080601f016020809104026020016040519081016040528093929190818152602001838380828437820191505050505050919080351515906020019091905050613b7b565b604051808215151515815260200191505060405180910390f35b341561113357600080fd5b61113b613d56565b604051808273ffffffffffffffffffffffffffffffffffffffff1673ffffffffffffffffffffffffffffffffffffffff16815260200191505060405180910390f35b341561118857600080fd5b611190613d7c565b6040518082815260200191505060405180910390f35b34156111b157600080fd5b611201600480803590602001908201803590602001908080601f01602080910402602001604051908101604052809392919081815260200183838082843782019150505050505091905050613d89565b005b600a5481565b600082601a80549050811015806112205750600081105b1561122a57600080fd5b601a8181548110151561123957fe5b90600052602060002090600a020160090160009054906101000a900460ff16151561126357600080fd5b600360009054906101000a900473ffffffffffffffffffffffffffffffffffffffff1673ffffffffffffffffffffffffffffffffffffffff166323b872dd3330866000604051602001526040518463ffffffff167c0100000000000000000000000000000000000000000000000000000000028152600401808473ffffffffffffffffffffffffffffffffffffffff1673ffffffffffffffffffffffffffffffffffffffff1681526020018373ffffffffffffffffffffffffffffffffffffffff1673ffffffffffffffffffffffffffffffffffffffff1681526020018281526020019350505050602060405180830381600087803b151561136457600080fd5b6102c65a03f1151561137557600080fd5b50505060405180519050506113e7601a8581548110151561139257fe5b90600052602060002090600a020160060160003373ffffffffffffffffffffffffffffffffffffffff1673ffffffffffffffffffffffffffffffffffffffff1681526020019081526020016000205484613e20565b601a858154811015156113f657fe5b90600052602060002090600a020160060160003373ffffffffffffffffffffffffffffffffffffffff1673ffffffffffffffffffffffffffffffffffffffff16815260200190815260200160002081905550611472601a8581548110151561145a57fe5b90600052602060002090600a02016005015484613e20565b601a8581548110151561148157fe5b90600052602060002090600a020160050181905550600191505092915050565b60018054600181600116156101000203166002900480601f0160208091040260200160405190810160405280929190818152602001828054600181600116156101000203166002900480156115375780601f1061150c57610100808354040283529160200191611537565b820191906000526020600020905b81548152906001019060200180831161151a57829003601f168201915b505050505081565b6000601680549050905090565b61155461411b565b60018054600181600116156101000203166002900480601f0160208091040260200160405190810160405280929190818152602001828054600181600116156101000203166002900480156115ea5780601f106115bf576101008083540402835291602001916115ea565b820191906000526020600020905b8154815290600101906020018083116115cd57829003601f168201915b5050505050905090565b6115fc61411b565b60028054600181600116156101000203166002900480601f0160208091040260200160405190810160405280929190818152602001828054600181600116156101000203166002900480156116925780601f1061166757610100808354040283529160200191611692565b820191906000526020600020905b81548152906001019060200180831161167557829003601f168201915b5050505050905090565b600080600080600085601b80549050811015806116b95750600081105b156116c357600080fd5b601b818154811015156116d257fe5b90600052602060002090600d0201600c0160149054906101000a900460ff1615156116fc57600080fd5b601360003373ffffffffffffffffffffffffffffffffffffffff1673ffffffffffffffffffffffffffffffffffffffff16815260200190815260200160002060009054906101000a900460ff16151561175457600080fd5b60028081111561176057fe5b600b60009054906101000a900460ff16600281111561177b57fe5b141561178657600080fd5b6000600281111561179357fe5b600b60009054906101000a900460ff1660028111156117ae57fe5b1480156117bc5750600d5442105b156117c657600080fd5b600160028111156117d357fe5b600b60009054906101000a900460ff1660028111156117ee57fe5b1480156117fc575060115442105b1561180657600080fd5b601b8781548110151561181557fe5b90600052602060002090600d0201600101600501549450600360009054906101000a900473ffffffffffffffffffffffffffffffffffffffff1673ffffffffffffffffffffffffffffffffffffffff166340c10f1930876000604051602001526040518363ffffffff167c0100000000000000000000000000000000000000000000000000000000028152600401808373ffffffffffffffffffffffffffffffffffffffff1673ffffffffffffffffffffffffffffffffffffffff16815260200182815260200192505050602060405180830381600087803b15156118f957600080fd5b6102c65a03f1151561190a57600080fd5b50505060405180519050506064600454860281151561192557fe5b0493508385039250611976601960003373ffffffffffffffffffffffffffffffffffffffff1673ffffffffffffffffffffffffffffffffffffffff1681526020019081526020016000205485613e20565b601960003373ffffffffffffffffffffffffffffffffffffffff1673ffffffffffffffffffffffffffffffffffffffff16815260200190815260200160002081905550611a4260196000601b8a8154811015156119cf57fe5b90600052602060002090600d0201600b0160009054906101000a900473ffffffffffffffffffffffffffffffffffffffff1673ffffffffffffffffffffffffffffffffffffffff1673ffffffffffffffffffffffffffffffffffffffff1681526020019081526020016000205484613e20565b60196000601b8a815481101515611a5557fe5b90600052602060002090600d0201600b0160009054906101000a900473ffffffffffffffffffffffffffffffffffffffff1673ffffffffffffffffffffffffffffffffffffffff1673ffffffffffffffffffffffffffffffffffffffff16815260200190815260200160002081905550601b87815481101515611ad457fe5b90600052602060002090600d02016001016000015491506000601a83815481101515611afc57fe5b90600052602060002090600a020160070160006101000a81548160ff0219169083151502179055506000601a83815481101515611b3557fe5b90600052602060002090600a020160080181905550601b87815481101515611b5957fe5b90600052602060002090600d020160008082016000905560018201600080820160009055600182016000611b8d919061412f565b600282016000611b9d919061412f565b6003820160006101000a81549073ffffffffffffffffffffffffffffffffffffffff0219169055600482016000611bd4919061412f565b60058201600090556007820160006101000a81549060ff021916905560088201600090556009820160006101000a81549060ff02191690555050600b820160006101000a81549073ffffffffffffffffffffffffffffffffffffffff0219169055600c820160006101000a81549073ffffffffffffffffffffffffffffffffffffffff0219169055600c820160146101000a81549060ff021916905550506002600b60006101000a81548160ff02191690836002811115611c9157fe5b0217905550600195505050505050919050565b80601a8054905081101580611cb95750600081105b15611cc357600080fd5b601a81815481101515611cd257fe5b90600052602060002090600a020160090160009054906101000a900460ff161515611cfc57600080fd5b813373ffffffffffffffffffffffffffffffffffffffff16601a82815481101515611d2357fe5b90600052602060002090600a020160030160009054906101000a900473ffffffffffffffffffffffffffffffffffffffff1673ffffffffffffffffffffffffffffffffffffffff1614158015611dc35750601360003373ffffffffffffffffffffffffffffffffffffffff1673ffffffffffffffffffffffffffffffffffffffff16815260200190815260200160002060009054906101000a900460ff16155b15611dcd57600080fd5b6000601a84815481101515611dde57fe5b90600052602060002090600a020160090160006101000a81548160ff021916908315150217905550505050565b6000601280549050905090565b600f5481565b60085481565b803373ffffffffffffffffffffffffffffffffffffffff16601b82815481101515611e4b57fe5b90600052602060002090600d0201600b0160009054906101000a900473ffffffffffffffffffffffffffffffffffffffff1673ffffffffffffffffffffffffffffffffffffffff1614158015611eeb5750601360003373ffffffffffffffffffffffffffffffffffffffff1673ffffffffffffffffffffffffffffffffffffffff16815260200190815260200160002060009054906101000a900460ff16155b15611ef557600080fd5b601b8054905082101580611f095750600082105b15611f1357600080fd5b600073ffffffffffffffffffffffffffffffffffffffff16601b83815481101515611f3a57fe5b90600052602060002090600d0201600c0160009054906101000a900473ffffffffffffffffffffffffffffffffffffffff1673ffffffffffffffffffffffffffffffffffffffff161415611f8d57600080fd5b601b82815481101515611f9c57fe5b90600052602060002090600d020160008082016000905560018201600080820160009055600182016000611fd0919061412f565b600282016000611fe0919061412f565b6003820160006101000a81549073ffffffffffffffffffffffffffffffffffffffff0219169055600482016000612017919061412f565b60058201600090556007820160006101000a81549060ff021916905560088201600090556009820160006101000a81549060ff02191690555050600b820160006101000a81549073ffffffffffffffffffffffffffffffffffffffff0219169055600c820160006101000a81549073ffffffffffffffffffffffffffffffffffffffff0219169055600c820160146101000a81549060ff021916905550505050565b6000809054906101000a900460ff1681565b60105481565b60196020528060005260406000206000915090505481565b60065481565b60055481565b6000601360003373ffffffffffffffffffffffffffffffffffffffff1673ffffffffffffffffffffffffffffffffffffffff16815260200190815260200160002060009054906101000a900460ff16151561214f57600080fd5b61215882613e4a565b90507fffffffffffffffffffffffffffffffffffffffffffffffffffffffffffffffff811415156121c35760206040519081016040528060008152506014828154811015156121a357fe5b906000526020600020900190805190602001906121c1929190614177565b505b60206040519081016040528060008152506015836040518082805190602001908083835b60208310151561220c57805182526020820191506020810190506020830392506121e7565b6001836020036101000a03801982511681845116808217855250505050505090500191505090815260200160405180910390209080519060200190612252929190614177565b505050565b601360003373ffffffffffffffffffffffffffffffffffffffff1673ffffffffffffffffffffffffffffffffffffffff16815260200190815260200160002060009054906101000a900460ff1615156122af57600080fd5b601360008273ffffffffffffffffffffffffffffffffffffffff1673ffffffffffffffffffffffffffffffffffffffff16815260200190815260200160002060009054906101000a900460ff161561230657600080fd5b6001601360008373ffffffffffffffffffffffffffffffffffffffff1673ffffffffffffffffffffffffffffffffffffffff16815260200190815260200160002060006101000a81548160ff0219169083151502179055506012805480600101828161237291906141f7565b9160005260206000209001600083909190916101000a81548173ffffffffffffffffffffffffffffffffffffffff021916908373ffffffffffffffffffffffffffffffffffffffff1602179055505050565b6000600360009054906101000a900473ffffffffffffffffffffffffffffffffffffffff1673ffffffffffffffffffffffffffffffffffffffff166370a08231836000604051602001526040518263ffffffff167c0100000000000000000000000000000000000000000000000000000000028152600401808273ffffffffffffffffffffffffffffffffffffffff1673ffffffffffffffffffffffffffffffffffffffff168152602001915050602060405180830381600087803b151561248b57600080fd5b6102c65a03f1151561249c57600080fd5b505050604051805190509050919050565b6000601a80549050821015806124c35750600082105b156124cd57600080fd5b601a828154811015156124dc57fe5b90600052602060002090600a020160070160009054906101000a900460ff161561250557600080fd5b6000601a8381548110151561251657fe5b90600052602060002090600a020160060160003373ffffffffffffffffffffffffffffffffffffffff1673ffffffffffffffffffffffffffffffffffffffff16815260200190815260200160002054141561257057600080fd5b600360009054906101000a900473ffffffffffffffffffffffffffffffffffffffff1673ffffffffffffffffffffffffffffffffffffffff1663a9059cbb33601a858154811015156125be57fe5b90600052602060002090600a020160060160003373ffffffffffffffffffffffffffffffffffffffff1673ffffffffffffffffffffffffffffffffffffffff168152602001908152602001600020546000604051602001526040518363ffffffff167c0100000000000000000000000000000000000000000000000000000000028152600401808373ffffffffffffffffffffffffffffffffffffffff1673ffffffffffffffffffffffffffffffffffffffff16815260200182815260200192505050602060405180830381600087803b151561269a57600080fd5b6102c65a03f115156126ab57600080fd5b5050506040518051905050601a828154811015156126c557fe5b90600052602060002090600a020160060160003373ffffffffffffffffffffffffffffffffffffffff1673ffffffffffffffffffffffffffffffffffffffff16815260200190815260200160002060009055919050565b60028054600181600116156101000203166002900480601f0160208091040260200160405190810160405280929190818152602001828054600181600116156101000203166002900480156127b25780601f10612787576101008083540402835291602001916127b2565b820191906000526020600020905b81548152906001019060200180831161279557829003601f168201915b505050505081565b6127c261411b565b6016828154811015156127d157fe5b90600052602060002090018054600181600116156101000203166002900480601f0160208091040260200160405190810160405280929190818152602001828054600181600116156101000203166002900480156128705780601f1061284557610100808354040283529160200191612870565b820191906000526020600020905b81548152906001019060200180831161285357829003601f168201915b50505050509050919050565b6000601480549050905090565b60115481565b601360003373ffffffffffffffffffffffffffffffffffffffff1673ffffffffffffffffffffffffffffffffffffffff16815260200190815260200160002060009054906101000a900460ff1615156128e757600080fd5b7fffffffffffffffffffffffffffffffffffffffffffffffffffffffffffffffff61291183613e4a565b1415612954576014805480600101828161292b9190614223565b916000526020600020900160008490919091509080519060200190612951929190614177565b50505b806015836040518082805190602001908083835b60208310151561298d5780518252602082019150602081019050602083039250612968565b6001836020036101000a038019825116818451168082178552505050505050905001915050908152602001604051809103902090805190602001906129d3929190614177565b505050565b6129e061411b565b6014828154811015156129ef57fe5b90600052602060002090018054600181600116156101000203166002900480601f016020809104026020016040519081016040528092919081815260200182805460018160011615610100020316600290048015612a8e5780601f10612a6357610100808354040283529160200191612a8e565b820191906000526020600020905b815481529060010190602001808311612a7157829003601f168201915b50505050509050919050565b60075481565b612aa861411b565b612ab061411b565b612ab861411b565b600080600080601a8054905088101580612ad25750600088105b15612adc57600080fd5b601a88815481101515612aeb57fe5b90600052602060002090600a0201600101601a89815481101515612b0b57fe5b90600052602060002090600a0201600201601a8a815481101515612b2b57fe5b90600052602060002090600a0201600401601a8b815481101515612b4b57fe5b90600052602060002090600a020160050154601a8c815481101515612b6c57fe5b90600052602060002090600a020160070160009054906101000a900460ff16601a8d815481101515612b9a57fe5b90600052602060002090600a020160080154601a8e815481101515612bbb57fe5b90600052602060002090600a020160090160009054906101000a900460ff16868054600181600116156101000203166002900480601f016020809104026020016040519081016040528092919081815260200182805460018160011615610100020316600290048015612c6f5780601f10612c4457610100808354040283529160200191612c6f565b820191906000526020600020905b815481529060010190602001808311612c5257829003601f168201915b50505050509650858054600181600116156101000203166002900480601f016020809104026020016040519081016040528092919081815260200182805460018160011615610100020316600290048015612d0b5780601f10612ce057610100808354040283529160200191612d0b565b820191906000526020600020905b815481529060010190602001808311612cee57829003601f168201915b50505050509550848054600181600116156101000203166002900480601f016020809104026020016040519081016040528092919081815260200182805460018160011615610100020316600290048015612da75780601f10612d7c57610100808354040283529160200191612da7565b820191906000526020600020905b815481529060010190602001808311612d8a57829003601f168201915b505050505094509650965096509650965096509650919395979092949650565b6000601a80549050905090565b6000601282815481101515612de557fe5b906000526020600020900160009054906101000a900473ffffffffffffffffffffffffffffffffffffffff169050919050565b612e2061411b565b6015826040518082805190602001908083835b602083101515612e585780518252602082019150602081019050602083039250612e33565b6001836020036101000a03801982511681845116808217855250505050505090500191505090815260200160405180910390208054600181600116156101000203166002900480601f016020809104026020016040519081016040528092919081815260200182805460018160011615610100020316600290048015612f1f5780601f10612ef457610100808354040283529160200191612f1f565b820191906000526020600020905b815481529060010190602001808311612f0257829003601f168201915b50505050509050919050565b60186020528060005260406000206000915090508060000160009054906101000a900473ffffffffffffffffffffffffffffffffffffffff16908060010154908060020154908060030160009054906101000a900460ff16905084565b600c5481565b612f9661424f565b82601a8054905081101580612fab5750600081105b15612fb557600080fd5b601a81815481101515612fc457fe5b90600052602060002090600a020160090160009054906101000a900460ff161515612fee57600080fd5b600360009054906101000a900473ffffffffffffffffffffffffffffffffffffffff1673ffffffffffffffffffffffffffffffffffffffff166323b872dd33306008546000604051602001526040518463ffffffff167c0100000000000000000000000000000000000000000000000000000000028152600401808473ffffffffffffffffffffffffffffffffffffffff1673ffffffffffffffffffffffffffffffffffffffff1681526020018373ffffffffffffffffffffffffffffffffffffffff1673ffffffffffffffffffffffffffffffffffffffff1681526020018281526020019350505050602060405180830381600087803b15156130f157600080fd5b6102c65a03f1151561310257600080fd5b5050506040518051905050613158601960003373ffffffffffffffffffffffffffffffffffffffff1673ffffffffffffffffffffffffffffffffffffffff16815260200190815260200160002054600854613e20565b601960003373ffffffffffffffffffffffffffffffffffffffff1673ffffffffffffffffffffffffffffffffffffffff16815260200190815260200160002081905550601b80549050826000018181525050601a848154811015156131b957fe5b90600052602060002090600a0201610120604051908101604052908160008201548152602001600182018054600181600116156101000203166002900480601f0160208091040260200160405190810160405280929190818152602001828054600181600116156101000203166002900480156132775780601f1061324c57610100808354040283529160200191613277565b820191906000526020600020905b81548152906001019060200180831161325a57829003601f168201915b50505050508152602001600282018054600181600116156101000203166002900480601f0160208091040260200160405190810160405280929190818152602001828054600181600116156101000203166002900480156133195780601f106132ee57610100808354040283529160200191613319565b820191906000526020600020905b8154815290600101906020018083116132fc57829003601f168201915b505050505081526020016003820160009054906101000a900473ffffffffffffffffffffffffffffffffffffffff1673ffffffffffffffffffffffffffffffffffffffff1673ffffffffffffffffffffffffffffffffffffffff168152602001600482018054600181600116156101000203166002900480601f0160208091040260200160405190810160405280929190818152602001828054600181600116156101000203166002900480156134115780601f106133e657610100808354040283529160200191613411565b820191906000526020600020905b8154815290600101906020018083116133f457829003601f168201915b50505050508152602001600582015481526020016007820160009054906101000a900460ff16151515158152602001600882015481526020016009820160009054906101000a900460ff16151515158152505082602001819052506001601a8581548110151561347d57fe5b90600052602060002090600a020160070160006101000a81548160ff0219169083151502179055508160000151601a858154811015156134b957fe5b90600052602060002090600a02016008018190555033826040019073ffffffffffffffffffffffffffffffffffffffff16908173ffffffffffffffffffffffffffffffffffffffff168152505082826060019073ffffffffffffffffffffffffffffffffffffffff16908173ffffffffffffffffffffffffffffffffffffffff16815250506001826080019015159081151581525050601b805480600101828161356391906142b4565b91600052602060002090600d02016000849091909150600082015181600001556020820151816001016000820151816000015560208201518160010190805190602001906135b29291906142e6565b5060408201518160020190805190602001906135cf9291906142e6565b5060608201518160030160006101000a81548173ffffffffffffffffffffffffffffffffffffffff021916908373ffffffffffffffffffffffffffffffffffffffff16021790555060808201518160040190805190602001906136339291906142e6565b5060a0820151816005015560c08201518160070160006101000a81548160ff02191690831515021790555060e082015181600801556101008201518160090160006101000a81548160ff0219169083151502179055505050604082015181600b0160006101000a81548173ffffffffffffffffffffffffffffffffffffffff021916908373ffffffffffffffffffffffffffffffffffffffff160217905550606082015181600c0160006101000a81548173ffffffffffffffffffffffffffffffffffffffff021916908373ffffffffffffffffffffffffffffffffffffffff160217905550608082015181600c0160146101000a81548160ff02191690831515021790555050505050505050565b601360003373ffffffffffffffffffffffffffffffffffffffff1673ffffffffffffffffffffffffffffffffffffffff16815260200190815260200160002060009054906101000a900460ff16151561379a57600080fd5b60016000806101000a81548160ff021916908315150217905550565b60095481565b6000601b80549050821015806137d25750600082105b156137dc57600080fd5b600073ffffffffffffffffffffffffffffffffffffffff16601b8381548110151561380357fe5b90600052602060002090600d0201600c0160009054906101000a900473ffffffffffffffffffffffffffffffffffffffff1673ffffffffffffffffffffffffffffffffffffffff16141561385a576000905061389e565b601b8281548110151561386957fe5b90600052602060002090600d0201600c0160009054906101000a900473ffffffffffffffffffffffffffffffffffffffff1690505b919050565b6000601360003373ffffffffffffffffffffffffffffffffffffffff1673ffffffffffffffffffffffffffffffffffffffff16815260200190815260200160002060009054906101000a900460ff1615156138fd57600080fd5b601360008373ffffffffffffffffffffffffffffffffffffffff1673ffffffffffffffffffffffffffffffffffffffff16815260200190815260200160002060009054906101000a900460ff16151561395557600080fd5b6000601360008473ffffffffffffffffffffffffffffffffffffffff1673ffffffffffffffffffffffffffffffffffffffff16815260200190815260200160002060006101000a81548160ff0219169083151502179055506139b682613f68565b90507fffffffffffffffffffffffffffffffffffffffffffffffffffffffffffffffff81141515613a3c5760006012828154811015156139f257fe5b906000526020600020900160006101000a81548173ffffffffffffffffffffffffffffffffffffffff021916908373ffffffffffffffffffffffffffffffffffffffff1602179055505b5050565b600e5481565b813373ffffffffffffffffffffffffffffffffffffffff16601a82815481101515613a6d57fe5b90600052602060002090600a020160030160009054906101000a900473ffffffffffffffffffffffffffffffffffffffff1673ffffffffffffffffffffffffffffffffffffffff1614158015613b0d5750601360003373ffffffffffffffffffffffffffffffffffffffff1673ffffffffffffffffffffffffffffffffffffffff16815260200190815260200160002060009054906101000a900460ff16155b15613b1757600080fd5b601a8054905083101580613b2b5750600083105b15613b3557600080fd5b81601a84815481101515613b4557fe5b90600052602060002090600a02016004019080519060200190613b69929190614177565b50505050565b60045481565b600d5481565b6000613b85614366565b601a8054905081600001818152505085816020018190525084816040018190525033816060019073ffffffffffffffffffffffffffffffffffffffff16908173ffffffffffffffffffffffffffffffffffffffff168152505083816080018190525060008160a001818152505060008160c001901515908115158152505060008160e00181815250508281610100019015159081151581525050601a8054806001018281613c3391906143df565b91600052602060002090600a02016000839091909150600082015181600001556020820151816001019080519060200190613c6f9291906142e6565b506040820151816002019080519060200190613c8c9291906142e6565b5060608201518160030160006101000a81548173ffffffffffffffffffffffffffffffffffffffff021916908373ffffffffffffffffffffffffffffffffffffffff1602179055506080820151816004019080519060200190613cf09291906142e6565b5060a0820151816005015560c08201518160070160006101000a81548160ff02191690831515021790555060e082015181600801556101008201518160090160006101000a81548160ff0219169083151502179055505050506001915050949350505050565b600360009054906101000a900473ffffffffffffffffffffffffffffffffffffffff1681565b6000601b80549050905090565b601360003373ffffffffffffffffffffffffffffffffffffffff1673ffffffffffffffffffffffffffffffffffffffff16815260200190815260200160002060009054906101000a900460ff161515613de157600080fd5b60168054806001018281613df59190614223565b916000526020600020900160008390919091509080519060200190613e1b929190614177565b505050565b6000808284019050613e40848210158015613e3b5750838210155b614033565b8091505092915050565b600080600090505b6014805490508160ff161015613f3e57613f2160148260ff16815481101515613e7757fe5b90600052602060002090018054600181600116156101000203166002900480601f016020809104026020016040519081016040528092919081815260200182805460018160011615610100020316600290048015613f165780601f10613eeb57610100808354040283529160200191613f16565b820191906000526020600020905b815481529060010190602001808311613ef957829003601f168201915b505050505084614042565b15613f31578060ff169150613f62565b8080600101915050613e52565b7fffffffffffffffffffffffffffffffffffffffffffffffffffffffffffffffff91505b50919050565b600080600090505b6012805490508160ff161015614009578273ffffffffffffffffffffffffffffffffffffffff1660128260ff16815481101515613fa957fe5b906000526020600020900160009054906101000a900473ffffffffffffffffffffffffffffffffffffffff1673ffffffffffffffffffffffffffffffffffffffff161415613ffc578060ff16915061402d565b8080600101915050613f70565b7fffffffffffffffffffffffffffffffffffffffffffffffffffffffffffffffff91505b50919050565b80151561403f57600080fd5b50565b6000816040518082805190602001908083835b60208310151561407a5780518252602082019150602081019050602083039250614055565b6001836020036101000a038019825116818451168082178552505050505050905001915050604051809103902060001916836040518082805190602001908083835b6020831015156140e157805182526020820191506020810190506020830392506140bc565b6001836020036101000a03801982511681845116808217855250505050505090500191505060405180910390206000191614905092915050565b602060405190810160405280600081525090565b50805460018160011615610100020316600290046000825580601f106141555750614174565b601f0160209004906000526020600020908101906141739190614411565b5b50565b828054600181600116156101000203166002900490600052602060002090601f016020900481019282601f106141b857805160ff19168380011785556141e6565b828001600101855582156141e6579182015b828111156141e55782518255916020019190600101906141ca565b5b5090506141f39190614411565b5090565b81548183558181151161421e5781836000526020600020918201910161421d9190614411565b5b505050565b81548183558181151161424a578183600052602060002091820191016142499190614436565b5b505050565b6101a0604051908101604052806000815260200161426b614462565b8152602001600073ffffffffffffffffffffffffffffffffffffffff168152602001600073ffffffffffffffffffffffffffffffffffffffff1681526020016000151581525090565b8154818355818115116142e157600d0281600d0283600052602060002091820191016142e091906144db565b5b505050565b828054600181600116156101000203166002900490600052602060002090601f016020900481019282601f1061432757805160ff1916838001178555614355565b82800160010185558215614355579182015b82811115614354578251825591602001919060010190614339565b5b5090506143629190614411565b5090565b6101206040519081016040528060008152602001614382614602565b815260200161438f614602565b8152602001600073ffffffffffffffffffffffffffffffffffffffff1681526020016143b9614602565b815260200160008152602001600015158152602001600081526020016000151581525090565b81548183558181151161440c57600a0281600a02836000526020600020918201910161440b9190614616565b5b505050565b61443391905b8082111561442f576000816000905550600101614417565b5090565b90565b61445f91905b8082111561445b5760008181614452919061412f565b5060010161443c565b5090565b90565b610120604051908101604052806000815260200161447e614602565b815260200161448b614602565b8152602001600073ffffffffffffffffffffffffffffffffffffffff1681526020016144b5614602565b815260200160008152602001600015158152602001600081526020016000151581525090565b6145ff91905b808211156145fb576000808201600090556001820160008082016000905560018201600061450f919061412f565b60028201600061451f919061412f565b6003820160006101000a81549073ffffffffffffffffffffffffffffffffffffffff0219169055600482016000614556919061412f565b60058201600090556007820160006101000a81549060ff021916905560088201600090556009820160006101000a81549060ff02191690555050600b820160006101000a81549073ffffffffffffffffffffffffffffffffffffffff0219169055600c820160006101000a81549073ffffffffffffffffffffffffffffffffffffffff0219169055600c820160146101000a81549060ff021916905550600d016144e1565b5090565b90565b602060405190810160405280600081525090565b6146c991905b808211156146c55760008082016000905560018201600061463d919061412f565b60028201600061464d919061412f565b6003820160006101000a81549073ffffffffffffffffffffffffffffffffffffffff0219169055600482016000614684919061412f565b60058201600090556007820160006101000a81549060ff021916905560088201600090556009820160006101000a81549060ff021916905550600a0161461c565b5090565b905600a165627a7a7230582027d90b78b2ac1173b6d84df1b971b9033728c7bf3809a9a0d7d5634053cba660002960606040526040805190810160405280600581526020017f4552433230000000000000000000000000000000000000000000000000000000815250600190805190602001906200005192919062000173565b506040805190810160405280600f81526020017f4f70656e436f6c6c6162546f6b656e0000000000000000000000000000000000815250600290805190602001906200009f92919062000173565b506040805190810160405280600381526020017f4f4354000000000000000000000000000000000000000000000000000000000081525060039080519060200190620000ed92919062000173565b5060126004556a115eec47f6cf7e3500000060085534156200010e57600080fd5b604051602080620012568339810160405280805190602001909190505080600760006101000a81548173ffffffffffffffffffffffffffffffffffffffff021916908373ffffffffffffffffffffffffffffffffffffffff1602179055505062000222565b828054600181600116156101000203166002900490600052602060002090601f016020900481019282601f10620001b657805160ff1916838001178555620001e7565b82800160010185558215620001e7579182015b82811115620001e6578251825591602001919060010190620001c9565b5b509050620001f69190620001fa565b5090565b6200021f91905b808211156200021b57600081600090555060010162000201565b5090565b90565b61102480620002326000396000f3006060604052600436106100d0576000357c0100000000000000000000000000000000000000000000000000000000900463ffffffff16806306fdde03146100d5578063095ea7b31461016357806318160ddd146101bd57806323b872dd146101e6578063313ce5671461025f57806340c10f19146102885780635a3b7e42146102e257806370a08231146103705780638f770ad0146103bd57806395d89b41146103e65780639d11877014610474578063a9059cbb146104af578063dd62ed3e14610509578063eb6db26114610575575b600080fd5b34156100e057600080fd5b6100e86105ca565b6040518080602001828103825283818151815260200191508051906020019080838360005b8381101561012857808201518184015260208101905061010d565b50505050905090810190601f1680156101555780820380516001836020036101000a031916815260200191505b509250505060405180910390f35b341561016e57600080fd5b6101a3600480803573ffffffffffffffffffffffffffffffffffffffff16906020019091908035906020019091905050610668565b604051808215151515815260200191505060405180910390f35b34156101c857600080fd5b6101d061075a565b6040518082815260200191505060405180910390f35b34156101f157600080fd5b610245600480803573ffffffffffffffffffffffffffffffffffffffff1690602001909190803573ffffffffffffffffffffffffffffffffffffffff16906020019091908035906020019091905050610760565b604051808215151515815260200191505060405180910390f35b341561026a57600080fd5b61027261096b565b6040518082815260200191505060405180910390f35b341561029357600080fd5b6102c8600480803573ffffffffffffffffffffffffffffffffffffffff16906020019091908035906020019091905050610971565b604051808215151515815260200191505060405180910390f35b34156102ed57600080fd5b6102f5610a8a565b6040518080602001828103825283818151815260200191508051906020019080838360005b8381101561033557808201518184015260208101905061031a565b50505050905090810190601f1680156103625780820380516001836020036101000a031916815260200191505b509250505060405180910390f35b341561037b57600080fd5b6103a7600480803573ffffffffffffffffffffffffffffffffffffffff16906020019091905050610b28565b6040518082815260200191505060405180910390f35b34156103c857600080fd5b6103d0610b71565b6040518082815260200191505060405180910390f35b34156103f157600080fd5b6103f9610b77565b6040518080602001828103825283818151815260200191508051906020019080838360005b8381101561043957808201518184015260208101905061041e565b50505050905090810190601f1680156104665780820380516001836020036101000a031916815260200191505b509250505060405180910390f35b341561047f57600080fd5b6104956004808035906020019091905050610c15565b604051808215151515815260200191505060405180910390f35b34156104ba57600080fd5b6104ef600480803573ffffffffffffffffffffffffffffffffffffffff16906020019091908035906020019091905050610d70565b604051808215151515815260200191505060405180910390f35b341561051457600080fd5b61055f600480803573ffffffffffffffffffffffffffffffffffffffff1690602001909190803573ffffffffffffffffffffffffffffffffffffffff16906020019091905050610ef9565b6040518082815260200191505060405180910390f35b341561058057600080fd5b610588610f80565b604051808273ffffffffffffffffffffffffffffffffffffffff1673ffffffffffffffffffffffffffffffffffffffff16815260200191505060405180910390f35b60028054600181600116156101000203166002900480601f0160208091040260200160405190810160405280929190818152602001828054600181600116156101000203166002900480156106605780601f1061063557610100808354040283529160200191610660565b820191906000526020600020905b81548152906001019060200180831161064357829003601f168201915b505050505081565b600081600660003373ffffffffffffffffffffffffffffffffffffffff1673ffffffffffffffffffffffffffffffffffffffff16815260200190815260200160002060008573ffffffffffffffffffffffffffffffffffffffff1673ffffffffffffffffffffffffffffffffffffffff168152602001908152602001600020819055508273ffffffffffffffffffffffffffffffffffffffff163373ffffffffffffffffffffffffffffffffffffffff167f8c5be1e5ebec7d5bd14f71427d1e84f3dd0314c0f7b2291e5b200ac8c7c3b925846040518082815260200191505060405180910390a36001905092915050565b60005481565b600080600660008673ffffffffffffffffffffffffffffffffffffffff1673ffffffffffffffffffffffffffffffffffffffff16815260200190815260200160002060003373ffffffffffffffffffffffffffffffffffffffff1673ffffffffffffffffffffffffffffffffffffffff16815260200190815260200160002054905061082b600560008673ffffffffffffffffffffffffffffffffffffffff1673ffffffffffffffffffffffffffffffffffffffff1681526020019081526020016000205484610fa6565b600560008673ffffffffffffffffffffffffffffffffffffffff1673ffffffffffffffffffffffffffffffffffffffff168152602001908152602001600020819055506108b7600560008773ffffffffffffffffffffffffffffffffffffffff1673ffffffffffffffffffffffffffffffffffffffff1681526020019081526020016000205484610fd0565b600560008773ffffffffffffffffffffffffffffffffffffffff1673ffffffffffffffffffffffffffffffffffffffff168152602001908152602001600020819055508373ffffffffffffffffffffffffffffffffffffffff168573ffffffffffffffffffffffffffffffffffffffff167fddf252ad1be2c89b69c2b068fc378daa952ba7f163c4a11628f55a4df523b3ef856040518082815260200191505060405180910390a360019150509392505050565b60045481565b6000600760009054906101000a900473ffffffffffffffffffffffffffffffffffffffff1673ffffffffffffffffffffffffffffffffffffffff163373ffffffffffffffffffffffffffffffffffffffff161415156109cf57600080fd5b600854826000540111156109e257600080fd5b610a2b600560008573ffffffffffffffffffffffffffffffffffffffff1673ffffffffffffffffffffffffffffffffffffffff1681526020019081526020016000205483610fa6565b600560008573ffffffffffffffffffffffffffffffffffffffff1673ffffffffffffffffffffffffffffffffffffffff16815260200190815260200160002081905550610a7a60005483610fa6565b6000819055506001905092915050565b60018054600181600116156101000203166002900480601f016020809104026020016040519081016040528092919081815260200182805460018160011615610100020316600290048015610b205780601f10610af557610100808354040283529160200191610b20565b820191906000526020600020905b815481529060010190602001808311610b0357829003601f168201915b505050505081565b6000600560008373ffffffffffffffffffffffffffffffffffffffff1673ffffffffffffffffffffffffffffffffffffffff168152602001908152602001600020549050919050565b60085481565b60038054600181600116156101000203166002900480601f016020809104026020016040519081016040528092919081815260200182805460018160011615610100020316600290048015610c0d5780601f10610be257610100808354040283529160200191610c0d565b820191906000526020600020905b815481529060010190602001808311610bf057829003601f168201915b505050505081565b6000600760009054906101000a900473ffffffffffffffffffffffffffffffffffffffff1673ffffffffffffffffffffffffffffffffffffffff163373ffffffffffffffffffffffffffffffffffffffff16141515610c7357600080fd5b600082600054031015610c8557600080fd5b610cf060056000600760009054906101000a900473ffffffffffffffffffffffffffffffffffffffff1673ffffffffffffffffffffffffffffffffffffffff1673ffffffffffffffffffffffffffffffffffffffff1681526020019081526020016000205483610fd0565b60056000600760009054906101000a900473ffffffffffffffffffffffffffffffffffffffff1673ffffffffffffffffffffffffffffffffffffffff1673ffffffffffffffffffffffffffffffffffffffff16815260200190815260200160002081905550610d6160005483610fd0565b60008190555060019050919050565b6000610dbb600560003373ffffffffffffffffffffffffffffffffffffffff1673ffffffffffffffffffffffffffffffffffffffff1681526020019081526020016000205483610fd0565b600560003373ffffffffffffffffffffffffffffffffffffffff1673ffffffffffffffffffffffffffffffffffffffff16815260200190815260200160002081905550610e47600560008573ffffffffffffffffffffffffffffffffffffffff1673ffffffffffffffffffffffffffffffffffffffff1681526020019081526020016000205483610fa6565b600560008573ffffffffffffffffffffffffffffffffffffffff1673ffffffffffffffffffffffffffffffffffffffff168152602001908152602001600020819055508273ffffffffffffffffffffffffffffffffffffffff163373ffffffffffffffffffffffffffffffffffffffff167fddf252ad1be2c89b69c2b068fc378daa952ba7f163c4a11628f55a4df523b3ef846040518082815260200191505060405180910390a36001905092915050565b6000600660008473ffffffffffffffffffffffffffffffffffffffff1673ffffffffffffffffffffffffffffffffffffffff16815260200190815260200160002060008373ffffffffffffffffffffffffffffffffffffffff1673ffffffffffffffffffffffffffffffffffffffff16815260200190815260200160002054905092915050565b600760009054906101000a900473ffffffffffffffffffffffffffffffffffffffff1681565b6000808284019050610fc6848210158015610fc15750838210155b610fe9565b8091505092915050565b6000610fde83831115610fe9565b818303905092915050565b801515610ff557600080fd5b505600a165627a7a72305820ce4c0f1e2451b2832360a022079c51eba4da32fb78db5ef33e265660bb258e7e0029",
  "source": "/*\n * Mango Repository\n * Copyright (C) 2016 Alex Beregszaszi\n *\n * This program is free software: you can redistribute it and/or modify\n * it under the terms of the GNU General Public License as published by\n * the Free Software Foundation, version 3 of the License only.\n *\n * This program is distributed in the hope that it will be useful,\n * but WITHOUT ANY WARRANTY; without even the implied warranty of\n * MERCHANTABILITY or FITNESS FOR A PARTICULAR PURPOSE.  See the\n * GNU General Public License for more details.\n *\n * You should have received a copy of the GNU General Public License\n * along with this program.  If not, see <http://www.gnu.org/licenses/>.\n */\npragma solidity ^0.4.6;\n\n\nimport \"./OpenCollabToken.sol\";\nimport \"./SafeMath.sol\";\n\n\n\ncontract MangoRepo is SafeMath {\n  bool public obsolete;\n\n  string public name;\n  string public description;\n\n  // Token address\n  OpenCollabToken public token;\n\n  // Maintainer percentage of issue token reward\n  uint256 public maintainerPercentage;\n  // Percentage to increase voter deposit by if voter is on winning side of vote\n  uint256 public voterRewardPercentage;\n  // Percentage to decrease voter deposity by if voter is on losing side of vote\n  uint256 public voterPenaltyPercentage;\n\n  // Required deposit to be a voter\n  uint256 public voterDeposit;\n  // Required stake to be a contributor and open a pull request\n  uint256 public contributorStake;\n  // Required stake to initiate a pull request merge\n  uint256 public maintainerStake;\n  // Required stake to challenge a maintainer\n  uint256 public challengerStake;\n\n  // Protocol period\n  enum Period { Review, Voting, Regular }\n  // Current protocol period\n  Period currentPeriod;\n\n  // Length of maintainer merge review period in days\n  uint256 public reviewPeriodLength;\n  // Timestamp for end of review period\n  uint256 public reviewPeriodEnd;\n  // Length of voting commit period\n  uint256 public votingCommitPeriodLength;\n  // Timestamp for end of voting commit period in days\n  uint256 public votingCommitPeriodEnd;\n  // Length of voting reveal period in days\n  uint256 public votingRevealPeriodLength;\n  // Timestamp for end of voting reveal period\n  uint256 public votingRevealPeriodEnd;  \n\n  address[] maintainerAddresses;\n  mapping (address => bool) maintainers;\n\n  string[] refKeys;\n  mapping (string => string) refs;\n\n  string[] snapshots;\n\n\n  struct Issue {\n    uint id;                                 // Issue id\n    string name;                             \n    string description;\n    address creator;                         // Address of issue creator\n    string hash;                             // Swarm hash of issue contents\n    uint totalStake;                         // Total amount staked to this issue\n    mapping (address => uint) stakedTokens;  // Mapping curator addresses to staked amounts for this issue\n    bool openPullRequest;                    // Is there a pull request open for this issue\n    uint pullRequestId;                      // Id for open pull request for this issue\n    bool active;                             // Is this issue active\n  }\n\n\n  struct PullRequest {\n    uint id;                                 // Pull request id\n    Issue issue;                             // Issue being resolved\n    address creator;                         // Address of pull request creator\n    address fork;                            // Contract address of repo fork\n    bool active;                             // Is this pull request active\n  }\n\n  // Represents a challenge voting round\n  struct VotingRound {\n    address maintainer;               // Address of maintainer challenged\n    address challenger;               // Address of challenger\n    uint256 uphold;                   // Number of uphold votes\n    uint256 veto;                     // Number of veto votes\n    mapping (address => Vote) votes;  // Votes casted\n    VoteValue result;                 // Result of vote\n  }\n\n  // Track all voting rounds\n  VotingRound[] votingRounds;\n\n  // Represents a vote\n  struct Vote {\n    bytes32 commit;                   // Vote commitment hash\n    VoteValue voteValue;              // Revealed vote value\n    bool commited;                    // Was the vote committed\n    bool revealed;                    // Was the vote revealed\n  }\n\n  // Values of votes\n  enum VoteValue { Uphold, Veto, None }\n\n  // Represents a voter\n  struct Voter {\n    address voterAddress;             // Address of voter\n    uint deposit;                     // Voter deposit\n    uint lastCheckIn;                 // Last voting round voter checked in\n    bool active;                 // Is the voter active\n  }\n\n  // Track registered voters\n  mapping (address => Voter) public voters;\n\n  // Track stakes for pull requests (opening, merging and challenging)\n  mapping (address => uint256) public pullRequestStakes;\n\n  Issue[] issues;\n  PullRequest[] pullRequests;\n\n  // Only maintainer can call functions with this modifier\n  modifier maintainerOnly {\n    if (!maintainers[msg.sender]) throw;\n    _;\n  }\n\n  // Checks for valid issue\n  modifier validIssue(uint id) {\n    // Check for valid issue id\n    if (id >= issues.length || id < 0) throw;\n    // Check for active issue\n    if (!issues[id].active) throw;\n    _;\n  }  \n\n  // Checks for valid pull request\n  modifier validPullRequest(uint id) {\n    // Check for valid pull request id\n    if (id >= pullRequests.length || id < 0) throw;\n    // Check for active pull request\n    if (!pullRequests[id].active) throw;\n    _;\n  }\n\n  // Only an issue creator or a maintainer can call functions with this modifier\n  modifier issuePermissions(uint id) {\n    if (issues[id].creator != msg.sender && !maintainers[msg.sender]) throw;\n    _;\n  }\n\n  // Only a pull request creator or a maintainer can call functions with this modifier\n  modifier pullRequestPermissions(uint id) {\n    if (pullRequests[id].creator != msg.sender && !maintainers[msg.sender]) throw;\n    _;\n  }\n\n  function MangoRepo(string _name, string _description, uint _maintainerPercentage, uint _voterRewardPercentage, uint _voterPenaltyPercentage,\n    uint _voterDeposit, uint _maintainerStake, uint _contributorStake, uint _challengerStake, uint _reviewPeriodLength, uint _votingCommitPeriodLength,\n    uint _votingRevealPeriodLength, uint _tokenCount) {\n\n    name = _name;\n    description = _description;\n\n    maintainers[msg.sender] = true;\n    maintainerAddresses.push(msg.sender);\n    obsolete = false;\n    token = new OpenCollabToken(address(this));\n\n    maintainerPercentage = _maintainerPercentage;\n    voterRewardPercentage = _voterRewardPercentage;\n    voterPenaltyPercentage = _voterPenaltyPercentage;\n\n    voterDeposit = _voterDeposit;\n    maintainerStake = _maintainerStake;\n    contributorStake = _contributorStake;\n    challengerStake = _challengerStake;\n\n    reviewPeriodLength = _reviewPeriodLength;\n    votingCommitPeriodLength = _votingCommitPeriodLength;\n    votingRevealPeriodLength = _votingRevealPeriodLength;\n\n    // Initial token distribution\n    token.mint(msg.sender, _tokenCount);\n  }\n\n  function refCount() constant returns (uint) {\n    return refKeys.length;\n  }\n\n  function refName(uint index) constant returns (string ref) {\n    ref = refKeys[index];\n  }\n\n  function getRef(string ref) constant returns (string hash) {\n    hash = refs[ref];\n  }\n\n  function __findRef(string ref) private returns (int) {\n    /* Horrible way to add a new key to the list */\n\n    for (var i = 0; i < refKeys.length; i++)\n      if (strEqual(refKeys[i], ref))\n        return i;\n\n    return -1;\n  }\n\n\n  function setRef(string ref, string hash) maintainerOnly {\n    if (__findRef(ref) == -1)\n      refKeys.push(ref);\n\n    refs[ref] = hash;\n  }\n\n  function deleteRef(string ref) maintainerOnly {\n    int pos = __findRef(ref);\n    if (pos != -1) {\n      // FIXME: shrink the array?\n      refKeys[uint(pos)] = \"\";\n    }\n\n    // FIXME: null? string(0)?\n    refs[ref] = \"\";\n  }\n\n  function strEqual(string a, string b) private returns (bool) {\n    return sha3(a) == sha3(b);\n  }\n\n  function snapshotCount() constant returns (uint) {\n    return snapshots.length;\n  }\n\n  function getSnapshot(uint index) constant returns (string) {\n    return snapshots[index];\n  }\n\n  function addSnapshot(string hash) maintainerOnly {\n    snapshots.push(hash);\n  }\n\n  function issueCount() constant returns (uint count) {\n    return issues.length;\n  }\n\n  function getIssue(uint _id) constant returns (\n    string name, \n    string description,\n    string hash,\n    uint totalStake,\n    bool openPullRequest,\n    uint pullRequestId,\n    bool active) \n  {\n\n    if (_id >= issues.length || _id < 0) \n      throw;\n\n    return (issues[_id].name, issues[_id].description, issues[_id].hash, issues[_id].totalStake, issues[_id].openPullRequest, issues[_id].pullRequestId, issues[_id].active);\n  }\n\n  /**\n   * Create new issue\n   * @param hash Swarm hash of issue contents\n   */\n  function newIssue(string _name, string _description, string hash, bool _isActive) returns (bool success) {\n    Issue memory issue;\n\n    issue.id = issues.length;\n    issue.name = _name;\n    issue.description = _description;\n    issue.creator = msg.sender;\n    issue.hash = hash;\n    issue.totalStake = 0;\n    issue.openPullRequest = false;\n    issue.pullRequestId = 0;\n    issue.active = _isActive;\n\n    issues.push(issue);\n\n    return true;\n  }\n\n  function setIssue(uint id, string hash) issuePermissions(id) {\n    if (id >= issues.length || id < 0) throw;\n\n    issues[id].hash = hash;\n  }\n\n  function closeIssue(uint id) validIssue(id) issuePermissions(id) {\n    issues[id].active = false;\n  }\n\n  /*\n   * Stake tokens to an issue as a curator\n   * @param id Issue id\n   * @param stake The amount of OCT to stake\n   */\n  function stakeIssue(uint id, uint stake) validIssue(id) returns (bool success) {\n    \n    token.transferFrom(msg.sender, address(this), stake);\n\n    issues[id].stakedTokens[msg.sender] = safeAdd(issues[id].stakedTokens[msg.sender], stake);\n\n    issues[id].totalStake = safeAdd(issues[id].totalStake, stake);\n\n    return true;\n  }\n\n  /*\n   * Unbond tokens staked to an issue\n   * @param id Issue id\n   */\n  function withdrawIssueStake(uint id) returns (bool success) {\n\n    if (id >= issues.length || id < 0) throw;\n\n    if (issues[id].openPullRequest) throw;\n \n    if (issues[id].stakedTokens[msg.sender] == 0) throw;\n\n    token.transfer(msg.sender, issues[id].stakedTokens[msg.sender]);\n\n    delete issues[id].stakedTokens[msg.sender];\n  }\n\n  function pullRequestCount() constant returns (uint count) {\n    return pullRequests.length;\n  }\n\n  function getPullRequest(uint id) constant returns (address fork) {\n    if (id >= pullRequests.length || id < 0) throw;\n\n    if (pullRequests[id].fork == address(0)) {\n      return address(0);\n    } else {\n      return pullRequests[id].fork;\n    }\n  }\n\n  /**\n   * Opens pull request\n   * @param issueId Issue id\n   * @param fork Contract address for repo fork\n   */\n  function openPullRequest(uint issueId, address fork) validIssue(issueId) {\n    // Transfer tokens. This call throws if it fails\n    token.transferFrom(msg.sender, this, contributorStake);\n\n    // Update pullRequestStakes for sender\n    pullRequestStakes[msg.sender] = safeAdd(pullRequestStakes[msg.sender], contributorStake);\n\n    PullRequest memory pullRequest;\n\n    pullRequest.id = pullRequests.length;\n    pullRequest.issue = issues[issueId];\n    issues[issueId].openPullRequest = true;\n    issues[issueId].pullRequestId = pullRequest.id;\n    pullRequest.creator = msg.sender;\n    pullRequest.fork = fork;\n    pullRequest.active = true;\n\n    pullRequests.push(pullRequest);\n  }\n\n  function closePullRequest(uint id) pullRequestPermissions(id) {\n    if (id >= pullRequests.length || id < 0) throw;\n    if (pullRequests[id].fork == address(0)) throw;\n\n    delete pullRequests[id];\n  }\n\n  /*\n   * Finalize a pull request merge\n   * @param id Pull request id\n   */\n  function mergePullRequest(uint id) validPullRequest(id) maintainerOnly returns (bool success) {\n    // Check if in regular period\n    if (currentPeriod == Period.Regular) throw;\n    // If in review period check if it is over\n    if (currentPeriod == Period.Review\n        && block.timestamp < reviewPeriodEnd) {\n      throw;\n    }\n    // If in voting period check if voting reveal period is over\n    if (currentPeriod == Period.Voting\n        && block.timestamp < votingRevealPeriodEnd) {\n      throw;\n    }\n\n    var totalStake = pullRequests[id].issue.totalStake;\n\n    // Mint issue reward\n    token.mint(this, totalStake);\n\n    // Calculate rewards\n    uint256 maintainerReward = (totalStake * maintainerPercentage) / 100;\n    uint256 contributorReward = totalStake - maintainerReward;\n\n    // Update pullRequestStakes with rewards\n    pullRequestStakes[msg.sender] = safeAdd(pullRequestStakes[msg.sender], maintainerReward);\n    pullRequestStakes[pullRequests[id].creator] = safeAdd(pullRequestStakes[pullRequests[id].creator], contributorReward);\n\n    // Zero out issue pull request id\n    uint issueId = pullRequests[id].issue.id;\n    issues[issueId].openPullRequest = false;\n    issues[issueId].pullRequestId = 0;\n\n    delete pullRequests[id];\n\n    currentPeriod = Period.Regular;\n\n    return true;\n  }\n\n  function setObsolete() maintainerOnly {\n    obsolete = true;\n  }\n\n  function maintainerCount() constant returns (uint) {\n    return maintainerAddresses.length;\n  }\n\n  function __findMaintainer(address addr) private returns (int) {\n    for (var i = 0; i < maintainerAddresses.length; i++) {\n      if (maintainerAddresses[i] == addr)\n        return i;\n    }\n\n    return -1;\n  }\n\n  function getName() constant returns (string) {\n    return name;\n  }\n\n  function getDescription() constant returns (string) {\n    return description;\n  }\n\n  function getMaintainer(uint idx) constant returns (address) {\n    return maintainerAddresses[idx];\n  }\n\n  function addMaintainer(address addr) maintainerOnly {\n    if (maintainers[addr]) throw;\n\n    maintainers[addr] = true;\n    maintainerAddresses.push(addr);\n  }\n\n  function removeMaintainer(address addr) maintainerOnly {\n    if (!maintainers[addr]) throw;\n\n    maintainers[addr] = false;\n\n    int pos = __findMaintainer(addr);\n\n    if (pos != -1) {\n      maintainerAddresses[uint(pos)] = address(0);\n    }\n  }\n\n\n  /**\n   * Token functions\n   */\n   function balanceOf(address owner) constant returns (uint balance) {\n     return token.balanceOf(owner);\n   }\n}\n",
  "sourcePath": "/home/mathew/workspace/opencollab/opencollab-lib/contracts/MangoRepo.sol",
  "compiler": {
    "name": "solc",
    "version": "0.4.19+commit.c4cbbb05.Emscripten.clang"
  },
  "schemaVersion": "2.0.0",
  "updatedAt": "2018-03-19T14:38:33.626Z"
}