{
  "contractName": "OpenCollabToken",
  "abi": [
    {
      "constant": true,
      "inputs": [],
      "name": "name",
      "outputs": [
        {
          "name": "",
          "type": "string"
        }
      ],
      "payable": false,
      "stateMutability": "view",
      "type": "function"
    },
    {
      "constant": true,
      "inputs": [],
      "name": "totalSupply",
      "outputs": [
        {
          "name": "",
          "type": "uint256"
        }
      ],
      "payable": false,
      "stateMutability": "view",
      "type": "function"
    },
    {
      "constant": true,
      "inputs": [],
      "name": "decimals",
      "outputs": [
        {
          "name": "",
          "type": "uint256"
        }
      ],
      "payable": false,
      "stateMutability": "view",
      "type": "function"
    },
    {
      "constant": true,
      "inputs": [],
      "name": "standard",
      "outputs": [
        {
          "name": "",
          "type": "string"
        }
      ],
      "payable": false,
      "stateMutability": "view",
      "type": "function"
    },
    {
      "constant": true,
      "inputs": [],
      "name": "supplyCap",
      "outputs": [
        {
          "name": "",
          "type": "uint256"
        }
      ],
      "payable": false,
      "stateMutability": "view",
      "type": "function"
    },
    {
      "constant": true,
      "inputs": [],
      "name": "symbol",
      "outputs": [
        {
          "name": "",
          "type": "string"
        }
      ],
      "payable": false,
      "stateMutability": "view",
      "type": "function"
    },
    {
      "constant": true,
      "inputs": [],
      "name": "repoAddress",
      "outputs": [
        {
          "name": "",
          "type": "address"
        }
      ],
      "payable": false,
      "stateMutability": "view",
      "type": "function"
    },
    {
      "inputs": [
        {
          "name": "_repoAddress",
          "type": "address"
        }
      ],
      "payable": false,
      "stateMutability": "nonpayable",
      "type": "constructor"
    },
    {
      "anonymous": false,
      "inputs": [
        {
          "indexed": true,
          "name": "from",
          "type": "address"
        },
        {
          "indexed": true,
          "name": "to",
          "type": "address"
        },
        {
          "indexed": false,
          "name": "value",
          "type": "uint256"
        }
      ],
      "name": "Transfer",
      "type": "event"
    },
    {
      "anonymous": false,
      "inputs": [
        {
          "indexed": true,
          "name": "owner",
          "type": "address"
        },
        {
          "indexed": true,
          "name": "spender",
          "type": "address"
        },
        {
          "indexed": false,
          "name": "value",
          "type": "uint256"
        }
      ],
      "name": "Approval",
      "type": "event"
    },
    {
      "constant": false,
      "inputs": [
        {
          "name": "to",
          "type": "address"
        },
        {
          "name": "value",
          "type": "uint256"
        }
      ],
      "name": "mint",
      "outputs": [
        {
          "name": "success",
          "type": "bool"
        }
      ],
      "payable": false,
      "stateMutability": "nonpayable",
      "type": "function"
    },
    {
      "constant": false,
      "inputs": [
        {
          "name": "value",
          "type": "uint256"
        }
      ],
      "name": "destroy",
      "outputs": [
        {
          "name": "success",
          "type": "bool"
        }
      ],
      "payable": false,
      "stateMutability": "nonpayable",
      "type": "function"
    },
    {
      "constant": false,
      "inputs": [
        {
          "name": "to",
          "type": "address"
        },
        {
          "name": "value",
          "type": "uint256"
        }
      ],
      "name": "transfer",
      "outputs": [
        {
          "name": "success",
          "type": "bool"
        }
      ],
      "payable": false,
      "stateMutability": "nonpayable",
      "type": "function"
    },
    {
      "constant": false,
      "inputs": [
        {
          "name": "from",
          "type": "address"
        },
        {
          "name": "to",
          "type": "address"
        },
        {
          "name": "value",
          "type": "uint256"
        }
      ],
      "name": "transferFrom",
      "outputs": [
        {
          "name": "success",
          "type": "bool"
        }
      ],
      "payable": false,
      "stateMutability": "nonpayable",
      "type": "function"
    },
    {
      "constant": true,
      "inputs": [
        {
          "name": "owner",
          "type": "address"
        }
      ],
      "name": "balanceOf",
      "outputs": [
        {
          "name": "balance",
          "type": "uint256"
        }
      ],
      "payable": false,
      "stateMutability": "view",
      "type": "function"
    },
    {
      "constant": false,
      "inputs": [
        {
          "name": "spender",
          "type": "address"
        },
        {
          "name": "value",
          "type": "uint256"
        }
      ],
      "name": "approve",
      "outputs": [
        {
          "name": "success",
          "type": "bool"
        }
      ],
      "payable": false,
      "stateMutability": "nonpayable",
      "type": "function"
    },
    {
      "constant": true,
      "inputs": [
        {
          "name": "owner",
          "type": "address"
        },
        {
          "name": "spender",
          "type": "address"
        }
      ],
      "name": "allowance",
      "outputs": [
        {
          "name": "remaining",
          "type": "uint256"
        }
      ],
      "payable": false,
      "stateMutability": "view",
      "type": "function"
    }
  ],
  "bytecode": "0x60606040526040805190810160405280600581526020017f4552433230000000000000000000000000000000000000000000000000000000815250600190805190602001906200005192919062000173565b506040805190810160405280600f81526020017f4f70656e436f6c6c6162546f6b656e0000000000000000000000000000000000815250600290805190602001906200009f92919062000173565b506040805190810160405280600381526020017f4f4354000000000000000000000000000000000000000000000000000000000081525060039080519060200190620000ed92919062000173565b5060126004556a115eec47f6cf7e3500000060085534156200010e57600080fd5b604051602080620012568339810160405280805190602001909190505080600760006101000a81548173ffffffffffffffffffffffffffffffffffffffff021916908373ffffffffffffffffffffffffffffffffffffffff1602179055505062000222565b828054600181600116156101000203166002900490600052602060002090601f016020900481019282601f10620001b657805160ff1916838001178555620001e7565b82800160010185558215620001e7579182015b82811115620001e6578251825591602001919060010190620001c9565b5b509050620001f69190620001fa565b5090565b6200021f91905b808211156200021b57600081600090555060010162000201565b5090565b90565b61102480620002326000396000f3006060604052600436106100d0576000357c0100000000000000000000000000000000000000000000000000000000900463ffffffff16806306fdde03146100d5578063095ea7b31461016357806318160ddd146101bd57806323b872dd146101e6578063313ce5671461025f57806340c10f19146102885780635a3b7e42146102e257806370a08231146103705780638f770ad0146103bd57806395d89b41146103e65780639d11877014610474578063a9059cbb146104af578063dd62ed3e14610509578063eb6db26114610575575b600080fd5b34156100e057600080fd5b6100e86105ca565b6040518080602001828103825283818151815260200191508051906020019080838360005b8381101561012857808201518184015260208101905061010d565b50505050905090810190601f1680156101555780820380516001836020036101000a031916815260200191505b509250505060405180910390f35b341561016e57600080fd5b6101a3600480803573ffffffffffffffffffffffffffffffffffffffff16906020019091908035906020019091905050610668565b604051808215151515815260200191505060405180910390f35b34156101c857600080fd5b6101d061075a565b6040518082815260200191505060405180910390f35b34156101f157600080fd5b610245600480803573ffffffffffffffffffffffffffffffffffffffff1690602001909190803573ffffffffffffffffffffffffffffffffffffffff16906020019091908035906020019091905050610760565b604051808215151515815260200191505060405180910390f35b341561026a57600080fd5b61027261096b565b6040518082815260200191505060405180910390f35b341561029357600080fd5b6102c8600480803573ffffffffffffffffffffffffffffffffffffffff16906020019091908035906020019091905050610971565b604051808215151515815260200191505060405180910390f35b34156102ed57600080fd5b6102f5610a8a565b6040518080602001828103825283818151815260200191508051906020019080838360005b8381101561033557808201518184015260208101905061031a565b50505050905090810190601f1680156103625780820380516001836020036101000a031916815260200191505b509250505060405180910390f35b341561037b57600080fd5b6103a7600480803573ffffffffffffffffffffffffffffffffffffffff16906020019091905050610b28565b6040518082815260200191505060405180910390f35b34156103c857600080fd5b6103d0610b71565b6040518082815260200191505060405180910390f35b34156103f157600080fd5b6103f9610b77565b6040518080602001828103825283818151815260200191508051906020019080838360005b8381101561043957808201518184015260208101905061041e565b50505050905090810190601f1680156104665780820380516001836020036101000a031916815260200191505b509250505060405180910390f35b341561047f57600080fd5b6104956004808035906020019091905050610c15565b604051808215151515815260200191505060405180910390f35b34156104ba57600080fd5b6104ef600480803573ffffffffffffffffffffffffffffffffffffffff16906020019091908035906020019091905050610d70565b604051808215151515815260200191505060405180910390f35b341561051457600080fd5b61055f600480803573ffffffffffffffffffffffffffffffffffffffff1690602001909190803573ffffffffffffffffffffffffffffffffffffffff16906020019091905050610ef9565b6040518082815260200191505060405180910390f35b341561058057600080fd5b610588610f80565b604051808273ffffffffffffffffffffffffffffffffffffffff1673ffffffffffffffffffffffffffffffffffffffff16815260200191505060405180910390f35b60028054600181600116156101000203166002900480601f0160208091040260200160405190810160405280929190818152602001828054600181600116156101000203166002900480156106605780601f1061063557610100808354040283529160200191610660565b820191906000526020600020905b81548152906001019060200180831161064357829003601f168201915b505050505081565b600081600660003373ffffffffffffffffffffffffffffffffffffffff1673ffffffffffffffffffffffffffffffffffffffff16815260200190815260200160002060008573ffffffffffffffffffffffffffffffffffffffff1673ffffffffffffffffffffffffffffffffffffffff168152602001908152602001600020819055508273ffffffffffffffffffffffffffffffffffffffff163373ffffffffffffffffffffffffffffffffffffffff167f8c5be1e5ebec7d5bd14f71427d1e84f3dd0314c0f7b2291e5b200ac8c7c3b925846040518082815260200191505060405180910390a36001905092915050565b60005481565b600080600660008673ffffffffffffffffffffffffffffffffffffffff1673ffffffffffffffffffffffffffffffffffffffff16815260200190815260200160002060003373ffffffffffffffffffffffffffffffffffffffff1673ffffffffffffffffffffffffffffffffffffffff16815260200190815260200160002054905061082b600560008673ffffffffffffffffffffffffffffffffffffffff1673ffffffffffffffffffffffffffffffffffffffff1681526020019081526020016000205484610fa6565b600560008673ffffffffffffffffffffffffffffffffffffffff1673ffffffffffffffffffffffffffffffffffffffff168152602001908152602001600020819055506108b7600560008773ffffffffffffffffffffffffffffffffffffffff1673ffffffffffffffffffffffffffffffffffffffff1681526020019081526020016000205484610fd0565b600560008773ffffffffffffffffffffffffffffffffffffffff1673ffffffffffffffffffffffffffffffffffffffff168152602001908152602001600020819055508373ffffffffffffffffffffffffffffffffffffffff168573ffffffffffffffffffffffffffffffffffffffff167fddf252ad1be2c89b69c2b068fc378daa952ba7f163c4a11628f55a4df523b3ef856040518082815260200191505060405180910390a360019150509392505050565b60045481565b6000600760009054906101000a900473ffffffffffffffffffffffffffffffffffffffff1673ffffffffffffffffffffffffffffffffffffffff163373ffffffffffffffffffffffffffffffffffffffff161415156109cf57600080fd5b600854826000540111156109e257600080fd5b610a2b600560008573ffffffffffffffffffffffffffffffffffffffff1673ffffffffffffffffffffffffffffffffffffffff1681526020019081526020016000205483610fa6565b600560008573ffffffffffffffffffffffffffffffffffffffff1673ffffffffffffffffffffffffffffffffffffffff16815260200190815260200160002081905550610a7a60005483610fa6565b6000819055506001905092915050565b60018054600181600116156101000203166002900480601f016020809104026020016040519081016040528092919081815260200182805460018160011615610100020316600290048015610b205780601f10610af557610100808354040283529160200191610b20565b820191906000526020600020905b815481529060010190602001808311610b0357829003601f168201915b505050505081565b6000600560008373ffffffffffffffffffffffffffffffffffffffff1673ffffffffffffffffffffffffffffffffffffffff168152602001908152602001600020549050919050565b60085481565b60038054600181600116156101000203166002900480601f016020809104026020016040519081016040528092919081815260200182805460018160011615610100020316600290048015610c0d5780601f10610be257610100808354040283529160200191610c0d565b820191906000526020600020905b815481529060010190602001808311610bf057829003601f168201915b505050505081565b6000600760009054906101000a900473ffffffffffffffffffffffffffffffffffffffff1673ffffffffffffffffffffffffffffffffffffffff163373ffffffffffffffffffffffffffffffffffffffff16141515610c7357600080fd5b600082600054031015610c8557600080fd5b610cf060056000600760009054906101000a900473ffffffffffffffffffffffffffffffffffffffff1673ffffffffffffffffffffffffffffffffffffffff1673ffffffffffffffffffffffffffffffffffffffff1681526020019081526020016000205483610fd0565b60056000600760009054906101000a900473ffffffffffffffffffffffffffffffffffffffff1673ffffffffffffffffffffffffffffffffffffffff1673ffffffffffffffffffffffffffffffffffffffff16815260200190815260200160002081905550610d6160005483610fd0565b60008190555060019050919050565b6000610dbb600560003373ffffffffffffffffffffffffffffffffffffffff1673ffffffffffffffffffffffffffffffffffffffff1681526020019081526020016000205483610fd0565b600560003373ffffffffffffffffffffffffffffffffffffffff1673ffffffffffffffffffffffffffffffffffffffff16815260200190815260200160002081905550610e47600560008573ffffffffffffffffffffffffffffffffffffffff1673ffffffffffffffffffffffffffffffffffffffff1681526020019081526020016000205483610fa6565b600560008573ffffffffffffffffffffffffffffffffffffffff1673ffffffffffffffffffffffffffffffffffffffff168152602001908152602001600020819055508273ffffffffffffffffffffffffffffffffffffffff163373ffffffffffffffffffffffffffffffffffffffff167fddf252ad1be2c89b69c2b068fc378daa952ba7f163c4a11628f55a4df523b3ef846040518082815260200191505060405180910390a36001905092915050565b6000600660008473ffffffffffffffffffffffffffffffffffffffff1673ffffffffffffffffffffffffffffffffffffffff16815260200190815260200160002060008373ffffffffffffffffffffffffffffffffffffffff1673ffffffffffffffffffffffffffffffffffffffff16815260200190815260200160002054905092915050565b600760009054906101000a900473ffffffffffffffffffffffffffffffffffffffff1681565b6000808284019050610fc6848210158015610fc15750838210155b610fe9565b8091505092915050565b6000610fde83831115610fe9565b818303905092915050565b801515610ff557600080fd5b505600a165627a7a72305820ce4c0f1e2451b2832360a022079c51eba4da32fb78db5ef33e265660bb258e7e0029",
  "source": "pragma solidity ^0.4.6;\n\nimport \"./ERC20.sol\";\nimport \"./SafeMath.sol\";\n\ncontract OpenCollabToken is ERC20, SafeMath {\n  string public standard = \"ERC20\";\n  string public name = \"OpenCollabToken\";\n  string public symbol = \"OCT\";\n  uint256 public decimals = 18;\n\n  mapping (address => uint) balances;\n  mapping (address => mapping (address => uint256)) allowed;\n\n  address public repoAddress;\n\n  uint256 public supplyCap = 21000000000000000000000000;\n\n  modifier onlyRepo() {\n    if (msg.sender != repoAddress) throw;\n    _;\n  }\n\n  function OpenCollabToken(address _repoAddress) {\n    repoAddress = _repoAddress;\n  }\n\n  function mint(address to, uint256 value) onlyRepo returns (bool success) {\n    // Cannot mint more than cap\n    if ((totalSupply + value) > supplyCap) throw;\n\n    balances[to] = safeAdd(balances[to], value);\n    totalSupply = safeAdd(totalSupply, value);\n\n    return true;\n  }\n\n  function destroy(uint256 value) onlyRepo returns (bool success) {\n    // Cannot destroy such that supply is less than 0\n    if ((totalSupply - value) < 0) throw;\n\n    balances[repoAddress] = safeSub(balances[repoAddress], value);\n    totalSupply = safeSub(totalSupply, value);\n\n    return true;\n  }\n\n  // ERC20 standard functions\n\n  function transfer(address to, uint256 value) returns (bool success) {\n    balances[msg.sender] = safeSub(balances[msg.sender], value);\n    balances[to] = safeAdd(balances[to], value);\n\n    Transfer(msg.sender, to, value);\n\n    return true;\n  }\n\n  function transferFrom(address from, address to, uint value) returns (bool success) {\n    var allowance = allowed[from][msg.sender];\n\n    balances[to] = safeAdd(balances[to], value);\n    balances[from] = safeSub(balances[from], value);\n    //allowed[from][msg.sender] = safeSub(allowance, value); // safeSub throws if value > allowance, rolling everything back\n\n    Transfer(from, to, value);\n\n    return true;\n  }\n\n\n  function balanceOf(address owner) constant returns (uint balance) {\n    return balances[owner];\n  }\n\n  function approve(address spender, uint value) returns (bool success) {\n    allowed[msg.sender][spender] = value;\n\n    Approval(msg.sender, spender, value);\n\n    return true;\n  }\n\n  function allowance(address owner, address spender) constant returns (uint remaining) {\n    return allowed[owner][spender];\n  }\n}",
  "sourcePath": "/home/mathew/workspace/opencollab/opencollab-lib/contracts/OpenCollabToken.sol",
  "compiler": {
    "name": "solc",
    "version": "0.4.19+commit.c4cbbb05.Emscripten.clang"
  },
  "schemaVersion": "2.0.0",
  "updatedAt": "2018-03-18T20:52:10.470Z"
}